{
  "id": "0ada6fe8491ccb96a9533a50a69a67472f7c0e996ba51e645516bed8bf11e48e",
  "accountId": "c5a8db54-9050-455d-8ce5-63f9acd54f2d",
  "network": "TestNet",
  "amountReceived": 100000,
  "amountSent": 0,
  "totalAmount": 18998327,
  "totalFees": 141,
  "isSend": false,
  "isReceive": true,
  "blockHeight": 2034934,
  "blockhash": "0000000000000001cfa672bb6c89464074c31c74c7d82f530574ad1d3a418669",
  "createdAt": 1626521457,
  "scriptPubKey": "00146fa016500a3c6a737ebb260e2ddca78ba9234558",
  "isRBF": false,
  "hex": "0200000000010152a9f67e4076e59d81363c70e87e08717c590e74eb7520331deee4cde472f73e0100000000feffffff02975d200100000000160014494eb335a0acc83eaf2b89a941aaf1018ba686dea0860100000000001600146fa016500a3c6a737ebb260e2ddca78ba92345580247304402206213d51c8316ecea5fc77ee7d7728454197d10643cb0884848228f2ed08a8e0d02207aaa91fd048e81c257264f8c6dd968364dca8c7f15a42453fae240b7bb7d4c6d012103467150d4d96a9029d26797792b4c2348e91b33f9286baa4d92ec6a6125d8967af40c1f00",
  "memo": "",
  "confirmations": 158846,
  "hasAproxCreatedAt": false
}