{
  "id": "101d6d29a22043907181f7c3b32d06b6408ee5898b8e5c83ccc5efbed47375cb",
  "accountId": "c5a8db54-9050-455d-8ce5-63f9acd54f2d",
  "network": "TestNet",
  "amountReceived": 1000000,
  "amountSent": 0,
  "totalAmount": 3593713,
  "totalFees": 254,
  "isSend": false,
  "isReceive": true,
  "blockHeight": 1772714,
  "blockhash": "00000000000000c7046316936cd0a0799df9479df0a69cd50dbba88d99962d0e",
  "createdAt": 1592744779,
  "scriptPubKey": "0014d0c4a3ef09e997b6e99e397e518fe3e41a118ca1",
  "isRBF": false,
  "hex": "020000000001026d198aec7b28c87d7ff177da41146433f4427b5af7b1d79a40110e9e559c6f2b00000000171600147d7a462d03d6837f504652fe34d5df5293a853e8feffffff329e5267b99db507ea56cb7854006d48957314df716159a8fe689aed24e28faf00000000171600148ec8ea3fd5303ef716e80afd117b11d77f9b5292feffffff0240420f0000000000160014d0c4a3ef09e997b6e99e397e518fe3e41a118ca1b193270000000000160014beccbe6427d6794acca048a60de2d1464ed8e71902473044022026f9b1821e37ddb0cb941eb7a966fd4728437e289cd2b332a16e46f883bd54fd02203ea079eb519d6cd0f2d21b882b44df4552a79c0836687008c9c9fcc8ec344907012103b8e61074ffbd8a828f69544d302b7ff578575e66f9c461440197685ea7e5240b02473044022000b78cf43148699c6734253fb3ed8b4700629639f3e3a1212ed9358f012fa27a02201ad51e6d54671c95dc6fa319e3813997e03cad570a3a338a0283a45eb1e69bfc012103abcabf02461b06e7483a4924eb348ae66fc16836776ca504a826847048ff8d90670c1b00",
  "memo": "",
  "confirmations": 421066,
  "hasAproxCreatedAt": false
}