{
  "id": "1204fb4785c2e31d5851036fe2684d198f8c5809143740a997f29ca23f2e472d",
  "accountId": "c5a8db54-9050-455d-8ce5-63f9acd54f2d",
  "network": "TestNet",
  "amountReceived": 100000,
  "amountSent": 0,
  "totalAmount": 886034,
  "totalFees": 151060,
  "isSend": false,
  "isReceive": true,
  "blockHeight": 2163237,
  "blockhash": "00000000029ec93a3204df52afb74848a9f114eef490399cad4844732474d7bb",
  "createdAt": 1645497483,
  "scriptPubKey": "0014d0c4a3ef09e997b6e99e397e518fe3e41a118ca1",
  "isRBF": false,
  "hex": "010000000001030e1aaff78b13e887c3b349b70fd6ba4f09417d77671b1482a5d72d3a4e8887100100000000ffffffffa4fa910a5f2e196d0f50654d9fd5bff90573bdad5b877ee50e2052b7fd0133dd0100000000ffffffffa7af298117b787946e119511c674d7c51d39f0fbf44b18e8393843dd071b70600000000000ffffffff0272fe0b00000000001600147b55875d4b0e1b329d7f196e8bb20ccb6827ccefa086010000000000160014d0c4a3ef09e997b6e99e397e518fe3e41a118ca102483045022100c0af6ee1302205f904643cb113a504f80061acd88c39e769147f84b0a25c0a2e0220553da8b0296d80424c5794b1c7716551f6b27a366cf36a477902d30a26c48c618121027dd8bc1aa7c502db343011f952ebc280cf2bdd90be198ab7fa009d48a3d293fb024730440220197645c4eee43a5d796835780a948a8eb1e5a028d58aa6015753e919843a917f02207ad033bbc4cd8fd755f0f3c09abf1616aae6582729e12cfb232943925da0c7018121027dd8bc1aa7c502db343011f952ebc280cf2bdd90be198ab7fa009d48a3d293fb0247304402205fd3fda88fadc1e3768ef69159a53c5cb19444c0cb85b34678ecdcb6cc66c11f0220145af4c82315cec397d7fe5de09643f4d79b053774934763146659282ccf876e8121027dd8bc1aa7c502db343011f952ebc280cf2bdd90be198ab7fa009d48a3d293fb00000000",
  "memo": "",
  "confirmations": 30543,
  "hasAproxCreatedAt": false
}