{
  "id": "1376ed649c25fe667c1ae756d39afa1511b0ce2911245c299be352754be05172",
  "accountId": "c5a8db54-9050-455d-8ce5-63f9acd54f2d",
  "network": "TestNet",
  "amountReceived": 10000,
  "amountSent": 0,
  "totalAmount": 19858,
  "totalFees": 142,
  "isSend": false,
  "isReceive": true,
  "blockHeight": 1934293,
  "blockhash": "00000000000000241e9e7f5c2dbd173c7a105bf612e1207c54d8be52b1e80b13",
  "createdAt": 1612697283,
  "scriptPubKey": "00146fa016500a3c6a737ebb260e2ddca78ba9234558",
  "isRBF": true,
  "hex": "0200000000010144e9b9a56cc1ed683b5e63f13028cc1629c3f64e53fe9cae22406e544613729a0100000000fdffffff028226000000000000160014f8c3333b20a1205ad4d82eed23074a938a06b3d810270000000000001600146fa016500a3c6a737ebb260e2ddca78ba92345580247304402206735eb2512476b1a83b5de9194c2b01c526b8d88b1fc1f26959290ed301bd26602206925233c638b1242c0833a163bd4f98e08fd0ac3f910a29acb077fbb6c072ce5012102bcdbb117a6183e65b9cafa5a386a74825f7ea208afd5a5c5d5bb0c00cb7aa8bc00000000",
  "memo": "",
  "confirmations": 259487,
  "hasAproxCreatedAt": false
}