{
  "id": "15573079d54ad2b6fe96cea13b48af03b2f67472049e0de4d412641cd464dc4a",
  "accountId": "c5a8db54-9050-455d-8ce5-63f9acd54f2d",
  "network": "TestNet",
  "amountReceived": 99890,
  "amountSent": 0,
  "totalAmount": 99890,
  "totalFees": 110,
  "isSend": false,
  "isReceive": true,
  "blockHeight": 1282455,
  "blockhash": "000000000000027e5529071a473c7cf03af9bc0802e7afe48f67d7bca0e295b7",
  "createdAt": 1518538984,
  "scriptPubKey": "001424c28869dd0eae5e309e93cdfcc32e538ea04df1",
  "isRBF": true,
  "hex": "01000000000101fba0f1f9de21d3da6d6d4941b31541b2e58bf2639e2178a25a02994ce11504d60000000000fdffffff01328601000000000016001424c28869dd0eae5e309e93cdfcc32e538ea04df10247304402206dc53581c6b458f80fbb95fdc0d11b35b219d4643bc268673fb7675e980fc1ec0220636bbf24775fcf1e05027627c47e0c09aca3c72c46d864ca155ce48e2f9607c20121026f59384278c7daf1e20047f4d3ad7b8820589b1c71fab972beea03a95acea3b796911300",
  "memo": "",
  "confirmations": 911325,
  "hasAproxCreatedAt": false
}