{
  "id": "164e9ed18c1797ca0fadb25a464455481657e39287b2c882737d72853364b26c",
  "accountId": "c5a8db54-9050-455d-8ce5-63f9acd54f2d",
  "network": "TestNet",
  "amountReceived": 6000,
  "amountSent": 0,
  "totalAmount": 5679723,
  "totalFees": 142,
  "isSend": false,
  "isReceive": true,
  "blockHeight": 2095912,
  "blockhash": "000000000000004c0afffb87359a7f36955cf12b32ffade665790ea55320e057",
  "createdAt": 1632405033,
  "scriptPubKey": "0014badc0dc4de74de25e453b5841eec43dc6b4940b6",
  "isRBF": false,
  "hex": "01000000000101cef0011f42dba518ea0370b89dde8e7a28bb5ac03dc56351852378ed4ed32cad0100000000ffffffff027017000000000000160014badc0dc4de74de25e453b5841eec43dc6b4940b6fb925600000000001600141813e44616171d1a8794d8cea0867bf820f5dbc102483045022100b9eb932258dc69f30487fc051a46261c929008c0fb32df551458ca45a76ab3ac0220345261a968ebc6b79715c210bfd6fa0c97f72740f61b5a10c111cb2edf0dcfbf012102a5f57b11d54bc2b8aaa48d1a6de6985c4bac49a19dd2a9d535c6ea05e582dc8b00000000",
  "memo": "",
  "confirmations": 97868,
  "hasAproxCreatedAt": false
}