{
  "id": "2315f265b331f74189bf62331e4fa555f169b89df1e92a954ed7de5a0e393cb8",
  "accountId": "c5a8db54-9050-455d-8ce5-63f9acd54f2d",
  "network": "TestNet",
  "amountReceived": 10000,
  "amountSent": 0,
  "totalAmount": 283094,
  "totalFees": 50420,
  "isSend": false,
  "isReceive": true,
  "blockHeight": 2163255,
  "blockhash": "000000000000005919167b568e889be5baf787f8fe55df1f2cef02690cf28cae",
  "createdAt": 1645510223,
  "scriptPubKey": "0014d0c4a3ef09e997b6e99e397e518fe3e41a118ca1",
  "isRBF": false,
  "hex": "0100000000010101c0789d88271c88d1bf5a13b64c174999ec13017b0f4d958891856a7197f5840000000000ffffffff02c62a0400000000001600147b55875d4b0e1b329d7f196e8bb20ccb6827ccef1027000000000000160014d0c4a3ef09e997b6e99e397e518fe3e41a118ca10247304402204489369c83102de184a2a46a0259d0ba114f0856ab1bcf093cac15e6cff08d4902206a5597c69daf288137cc8deeba4eb337dead39933cbc7d9f46698ed0f9ab61518121027dd8bc1aa7c502db343011f952ebc280cf2bdd90be198ab7fa009d48a3d293fb00000000",
  "memo": "",
  "confirmations": 30525,
  "hasAproxCreatedAt": false
}