{
  "id": "26301cf85c0ac24a3364cf82eb0b353209941769a280b46f9816649f51d699d6",
  "accountId": "c5a8db54-9050-455d-8ce5-63f9acd54f2d",
  "network": "TestNet",
  "amountReceived": 0,
  "amountSent": 210804,
  "totalAmount": 210804,
  "totalFees": 614,
  "isSend": false,
  "isReceive": false,
  "blockHeight": 1454957,
  "blockhash": "000000000000010bf8065053b4aae80efaf4afefe19202efbad39ece5761b782",
  "createdAt": 1549039890,
  "scriptPubKey": null,
  "isRBF": false,
  "sentScriptPubKey": "a91416870bea4ecfd0cc1b301140c3ea3469ceb8780587",
  "hex": "010000000001052b911420fafe759978e36bb5a6ee95149eaf2f4066d7e1c4d4bdf89a9eaa4155010000006b483045022100e6b5feedb071aae3d947be8967a984e3ffe56f22c42da2289ebef7952393536f02207a691e7cd63b132e72d7db02ffc3c8ef1d91e2540890a41eb6edd3242bb01d97012102a7451395735369f2ecdfc829c0f774e88ef1303dfe5b2f04dbaab30a535dfdd6ffffffff2b911420fafe759978e36bb5a6ee95149eaf2f4066d7e1c4d4bdf89a9eaa4155000000001716001438971f73930f6c141d977ac4fd4a727c854935b3ffffffffa1bc208676fed75a412c9528bf3b6c8d5d4afebd8b43764d2448c820a47c587f0100000000ffffffff6778be073f9d1d0d500953105c84f55d73a2c6bb6f3f810525ade5cf8ec58b0f000000001716001423cf48b75446a0e4169b858d4561735f06c6cec3fffffffff7a8affcceff1de4d1b7a8d73d655f3b66a4cf9ba4c08f68621995228568a7f6010000006a4730440220538be4d040768f1821138a5826d6701bb9fbc7c1107d79a858269c8b017174080220732085bf9c2d6f38f2b5c0d813a18e09e75f82701dddf3f1571b9fd9733ad1b6012102a7451395735369f2ecdfc829c0f774e88ef1303dfe5b2f04dbaab30a535dfdd6ffffffff01743703000000000017a91416870bea4ecfd0cc1b301140c3ea3469ceb8780587000247304402201e4d18ca94d9b54a7f04b0c555cfac7a87aa3c8ee56be77029b279b2667c124b02206eb3c2b36c5a6541b177c07ac000d3c7e71b7c52aaa5f372ba27c07141d8472b012103a1af804ac108a8a51782198c2d034b28bf90c8803f5a53f76276fa69a4eae77f02483045022100ea86f05db2dba876739eb1acae25d8489b6754028bc8fd983d3ae497391e32e502200876da1ca500163ffdd7ff6631500116de3dc86f3a588fa939dfe7efdb4560ec012102b67ccd43f1442a51faccb5fdca442485ae011b01d2b9cff298ceb215982501fb0247304402200747e940e0249f1eaf6ff54d4bfbd03ce548d51fe50d68e724979c74c724f2e1022035c1b84e517e151951bb8338da7bf074861df574dd670a99592a3f62c8e13906012103245491c3953e773c35be0e1f5f8c3f97c012b1d28c1dbbcd4d814ea611a960e50000000000",
  "memo": "",
  "confirmations": 738823,
  "hasAproxCreatedAt": false
}