{
  "id": "28269d0841e3c0824d04659780e1cb1dbe8e806619eec1bfcba80e3fb1c726c2",
  "accountId": "c5a8db54-9050-455d-8ce5-63f9acd54f2d",
  "network": "TestNet",
  "amountReceived": 0,
  "amountSent": 39888,
  "totalAmount": 39888,
  "totalFees": 112,
  "isSend": false,
  "isReceive": false,
  "blockHeight": 2138098,
  "blockhash": "000000000000007b6347bb7a5f9c1caa5987be949c97a61b4a87a7f3b29ee72a",
  "createdAt": 1643494099,
  "scriptPubKey": null,
  "isRBF": false,
  "sentScriptPubKey": "0014269a7224acf8a31f7be59efe7db8d9ba3a204ff6",
  "hex": "010000000001019a204a7c27c2f6ff8c41e959f8aab27f9d0f8dde89a54ea607e910ed415ee0960000000000ffffffff01d09b000000000000160014269a7224acf8a31f7be59efe7db8d9ba3a204ff602483045022100a838a115f83ab0ed3c98d3c351944c6805600cd0d2e1d8c7f0807383a88dfa5f02203c220db8df48637b359d1043a334521a299c508d383ca972569e70fb11eba1420121039191d34ca380fac499a072e5762217bf6fe6b7ea157faaf771c78c89ef444c4300000000",
  "memo": "",
  "confirmations": 55682,
  "hasAproxCreatedAt": false
}