{
  "id": "39dfedaa6969f9d283657930a4086c2f5b0fda0b9a8257b6a8a741cf9371758c",
  "accountId": "c5a8db54-9050-455d-8ce5-63f9acd54f2d",
  "network": "TestNet",
  "amountReceived": 10000,
  "amountSent": 0,
  "totalAmount": 37521502500,
  "totalFees": 141,
  "isSend": false,
  "isReceive": true,
  "blockHeight": 2095909,
  "blockhash": "000000000000001c7c13b2fb26031738c54efa3a5398e1c69eba582113c7cb2b",
  "createdAt": 1632404138,
  "scriptPubKey": "0014041493a0916d54174b4725bc4aa93d3e123a1781",
  "isRBF": false,
  "hex": "02000000000101b8d93dcbc363841038a3bb3aa55afba307d0a2f9aaf5a09dc714b0ce32ad675f0000000000feffffff02148a74bc080000001600144bba3db312ea87dbb689dab023fd267b836330d51027000000000000160014041493a0916d54174b4725bc4aa93d3e123a178102473044022079b99eb48b75e167a2188fb9fdc6a4ff9afd036b0214435c8e64b292740f42f702206d032ea7aa82e35ae365b14654f22c3f2384906c332cf20e86bb3c12e52a29b101210285f39e184e4bc7d8bfa3bc9a126671c98ad97eb379063ea154bb4df1e449aed424fb1f00",
  "memo": "",
  "confirmations": 97871,
  "hasAproxCreatedAt": false
}