{
  "id": "48dcf94daf0dcce9d0cf3cdf9f7260865a660fa9379228d8237a3b81cce0162c",
  "accountId": "c5a8db54-9050-455d-8ce5-63f9acd54f2d",
  "network": "TestNet",
  "amountReceived": 0,
  "amountSent": 53962,
  "totalAmount": 99847,
  "totalFees": 153,
  "isSend": true,
  "isReceive": false,
  "blockHeight": 2163367,
  "blockhash": "000000000002e9fde2ea0d7da280f2fbebdc5b01fbdcc438f9486379a2569151",
  "createdAt": 1645615845,
  "scriptPubKey": null,
  "isRBF": true,
  "sentScriptPubKey": "5120f34fac8695b01c225b2ad605ae70d129d7b767a97b3bf801788f7960a94e60a0",
  "hex": "01000000000101a7af298117b787946e119511c674d7c51d39f0fbf44b18e8393843dd071b70600100000000fdffffff023db3000000000000160014c220efeec82e1a99dc421001533b58ea264c9785cad2000000000000225120f34fac8695b01c225b2ad605ae70d129d7b767a97b3bf801788f7960a94e60a0024730440220476d5e16c93f55235987364da8d4e59cdf233c227b29275055911a1aaf7e698602207038e8fb843faf0903a28d6320eb3c27b08875c8850c5554a2d7ed3c045dbc02012102e7ab2537b5d49e970309aae06e9e49f36ce1c9febbd44ec8e0d1cca0b4f9c31900000000",
  "memo": "",
  "confirmations": 30413,
  "hasAproxCreatedAt": false
}