{
  "id": "541217db39a00d3e26fa96e38dcd9511e4a61097bf87b4807040cefd684dd3b8",
  "accountId": "c5a8db54-9050-455d-8ce5-63f9acd54f2d",
  "network": "TestNet",
  "amountReceived": 10000,
  "amountSent": 0,
  "totalAmount": 142880,
  "totalFees": 2260,
  "isSend": false,
  "isReceive": true,
  "blockHeight": 2192029,
  "blockhash": "00000000597c8cbbd8bc6a43ced3e71ae0563f6acb73daaaecbe361540c0971c",
  "createdAt": 1648542321,
  "scriptPubKey": "0014d0c4a3ef09e997b6e99e397e518fe3e41a118ca1",
  "isRBF": false,
  "hex": "010000000001016f9c2b5e40a101451c65f1b0329d5054e5ae0b187a713a716cc489016228875a0000000000ffffffff021007020000000000160014a843e706518658e10e7c158cb8ef293cbc1bb0c01027000000000000160014d0c4a3ef09e997b6e99e397e518fe3e41a118ca102473044022020276f76089841a3ebf7c68359f95b3dcc82e30b09832771164a0acc7fa96ca2022077496595208976ae8e29c6da7e74676f68198a80ebc2f11cb1127ca41472fd598121032ddcf36491641c7b0ad4a22046a479b6e827fd968687eed166e094214fa5be9500000000",
  "memo": "",
  "confirmations": 1751,
  "hasAproxCreatedAt": false
}