{
  "id": "5785b267298ea7b1216fdbdbfa55db6808ad0ac07d49e3bcdfd1badbc1ee4b06",
  "accountId": "c5a8db54-9050-455d-8ce5-63f9acd54f2d",
  "network": "TestNet",
  "amountReceived": 10000,
  "amountSent": 0,
  "totalAmount": 57060,
  "totalFees": 2260,
  "isSend": false,
  "isReceive": true,
  "blockHeight": 2192140,
  "blockhash": "000000000000f20f63ae28fcddc942648b5cacac199a04d55acf39e4e6161ecc",
  "createdAt": 1648606393,
  "scriptPubKey": "0014d0c4a3ef09e997b6e99e397e518fe3e41a118ca1",
  "isRBF": false,
  "hex": "01000000000101ad907bb22e3abd8a39b645647b829e39d588a055d6e908829fcfb1070319db370000000000ffffffff02d4b7000000000000160014a843e706518658e10e7c158cb8ef293cbc1bb0c01027000000000000160014d0c4a3ef09e997b6e99e397e518fe3e41a118ca10247304402202ac7d9316c4385550434ec0860219014b5de1bb9019e54e6a631be11beb2f97502205c075d327a35935802addef276c569ac6e20d4c66f2de28ab38f8e73b29071648121032ddcf36491641c7b0ad4a22046a479b6e827fd968687eed166e094214fa5be9500000000",
  "memo": "",
  "confirmations": 1640,
  "hasAproxCreatedAt": false
}