{
  "id": "6d7668dabd3eb618c43fb5e2ce92c3f20ff8d72875d48230cf0d23fa4ff53def",
  "accountId": "c5a8db54-9050-455d-8ce5-63f9acd54f2d",
  "network": "TestNet",
  "amountReceived": 0,
  "amountSent": 15606,
  "totalAmount": 15606,
  "totalFees": 112,
  "isSend": false,
  "isReceive": false,
  "blockHeight": 2097162,
  "blockhash": "0000000000000020d73107079c7bcc45123b2b87731ddc78fae4786ce8086124",
  "createdAt": 1633074995,
  "scriptPubKey": null,
  "isRBF": false,
  "sentScriptPubKey": "0014269a7224acf8a31f7be59efe7db8d9ba3a204ff6",
  "hex": "01000000000101e0ed0a8563293a2df459ec1e10e7da8a8cdc215dd10ed2ff929e5435e36f4da20100000000ffffffff01f63c000000000000160014269a7224acf8a31f7be59efe7db8d9ba3a204ff602483045022100899f8ddb657bc0719c8523ad25a3141e6bfae76ee87f47ebc42a4def96c3675902201163837b39390ea85b04a93b2020b435cf570f485615a824f19d152abc39fbdc01210256956f66a9911ca8627dc4289f4d20c9682c1930b8bcd0fd0e2ca51f5528d8d400000000",
  "memo": "",
  "confirmations": 96618,
  "hasAproxCreatedAt": false
}