{
  "id": "7129cc62c3a76b6fc45513d80e4c8fa991cdd682d5c03d8100a447c8a4f97be9",
  "accountId": "c5a8db54-9050-455d-8ce5-63f9acd54f2d",
  "network": "TestNet",
  "amountReceived": 0,
  "amountSent": 9182,
  "totalAmount": 9182,
  "totalFees": 220,
  "isSend": false,
  "isReceive": false,
  "blockHeight": 2035310,
  "blockhash": "0000000000000038465c3cd3a1789cebd6c6e1f3b519300107b849b92e8c8da3",
  "createdAt": 1626625094,
  "scriptPubKey": null,
  "isRBF": true,
  "sentScriptPubKey": "0014467d3f4392941a8c8c21616cd6e0cd05aa0e2e61",
  "hex": "02000000000101f00e1bae61fbf417b3b317fb3b5dcda001a96e4c9f1cba0132490f26beca81670000000000fdffffff01de23000000000000160014467d3f4392941a8c8c21616cd6e0cd05aa0e2e610247304402200500b012bebbeba73994a2d165f9c18cb5c01f52495f642372fcd4473310ba0a02206355482549b84616f8490947ae83653921ab7b3bd65ddaaca7297b0d30d2e8fb012102e7ab2537b5d49e970309aae06e9e49f36ce1c9febbd44ec8e0d1cca0b4f9c31900000000",
  "memo": "",
  "confirmations": 158470,
  "hasAproxCreatedAt": false
}