{
  "id": "73f564f045283d01d8a7ab6c4ea3b2f387c2f161ec725bfb20628b3e6063e09b",
  "accountId": "c5a8db54-9050-455d-8ce5-63f9acd54f2d",
  "network": "TestNet",
  "amountReceived": 10000,
  "amountSent": 0,
  "totalAmount": 464354,
  "totalFees": 50420,
  "isSend": false,
  "isReceive": true,
  "blockHeight": 2163255,
  "blockhash": "000000000000005919167b568e889be5baf787f8fe55df1f2cef02690cf28cae",
  "createdAt": 1645510223,
  "scriptPubKey": "0014d0c4a3ef09e997b6e99e397e518fe3e41a118ca1",
  "isRBF": false,
  "hex": "01000000000101f37f64fa67be43c2066ad76eda322dbb05fd7f561af4ff8ca4bd39d6a462c7640000000000ffffffff02d2ee0600000000001600147b55875d4b0e1b329d7f196e8bb20ccb6827ccef1027000000000000160014d0c4a3ef09e997b6e99e397e518fe3e41a118ca10247304402206349102c7e692d0cf5f073636c3619e7ddcb5f7e4595995b1e607a279d5b47300220688a4fffbcc12a8a8b7f3f84d94c18b48ab86fac79811f648b959010c131e2248121027dd8bc1aa7c502db343011f952ebc280cf2bdd90be198ab7fa009d48a3d293fb00000000",
  "memo": "",
  "confirmations": 30525,
  "hasAproxCreatedAt": false
}