{
  "id": "819d34b6fbc6fe42e6d78b584dc27da6b760de970af0ac90e6bf88fce8e604a4",
  "accountId": "c5a8db54-9050-455d-8ce5-63f9acd54f2d",
  "network": "TestNet",
  "amountReceived": 0,
  "amountSent": 2016860,
  "totalAmount": 6852880,
  "totalFees": 1155,
  "isSend": true,
  "isReceive": false,
  "blockHeight": 2186865,
  "blockhash": "00000000000001b172d37379fedd187427356d7a0b5ca678cf1d383152a3ff04",
  "createdAt": 1646858409,
  "scriptPubKey": null,
  "isRBF": true,
  "sentScriptPubKey": "00204f1a19f84fc8adfaa94359862de1a6eb6e91e25c110c250c0a6e83e5c9672b94",
  "hex": "02000000000101c45abba6cd1868f2737bef3afc28666980d58c6796e199070f1bad946f0a613e0000000000fdffffff025cc61e00000000002200204f1a19f84fc8adfaa94359862de1a6eb6e91e25c110c250c0a6e83e5c9672b94b4ca4900000000001600148294878c8151a8fda6bf3d31b9d530a2fdc5f4b8024730440220261d7d6a2fabbf9d9c21d637157bcd032cc2b40740ee3dead0aeb1ac669b2b1f022073497057ee00c87de2b7afe32a071c43fb17ebe3d29497f81a183c9a6951f42e01210312c22f70d32ea3ad9722840769662198959043695f8fb1ae3ea121400f347b806e5e2100",
  "memo": "",
  "confirmations": 6915,
  "hasAproxCreatedAt": false
}