{
  "id": "81f6c715b13b864aaa27c243e61b1b79203d96c4c6960b34b205eb4e153150fd",
  "accountId": "c5a8db54-9050-455d-8ce5-63f9acd54f2d",
  "network": "TestNet",
  "amountReceived": 0,
  "amountSent": 7690,
  "totalAmount": 7690,
  "totalFees": 110,
  "isSend": false,
  "isReceive": false,
  "blockHeight": 1974331,
  "blockhash": "000000000000000b780d2507dff833dd23d120d6fecbaf78f41a7de69efb6c1c",
  "createdAt": 1620129393,
  "scriptPubKey": null,
  "isRBF": true,
  "sentScriptPubKey": "00141634f30e9568cd6a08ccd7aa2703e85862f9a558",
  "hex": "02000000000101d2fb7d10163af88f83836f5a454cb5ef9353458a15854ea92867f02b50f274c10000000000fdffffff010a1e0000000000001600141634f30e9568cd6a08ccd7aa2703e85862f9a558024730440220237ea601fa8fd9b77c82682d2a07d1c037847910dee6ec15766a7a88adabe72e0220626584c09915dd67c41df9afd427fcf40ab40a1a13d3653430ade287275b4fa6012102e7ab2537b5d49e970309aae06e9e49f36ce1c9febbd44ec8e0d1cca0b4f9c3193a201e00",
  "memo": "",
  "confirmations": 219449,
  "hasAproxCreatedAt": false
}