{
  "id": "84f597716a859188954d0f7b0113ec9949174cb6135abfd1881c27889d78c001",
  "accountId": "c5a8db54-9050-455d-8ce5-63f9acd54f2d",
  "network": "TestNet",
  "amountReceived": 10000,
  "amountSent": 0,
  "totalAmount": 343514,
  "totalFees": 50420,
  "isSend": false,
  "isReceive": true,
  "blockHeight": 2163255,
  "blockhash": "000000000000005919167b568e889be5baf787f8fe55df1f2cef02690cf28cae",
  "createdAt": 1645510223,
  "scriptPubKey": "0014d0c4a3ef09e997b6e99e397e518fe3e41a118ca1",
  "isRBF": false,
  "hex": "01000000000101f003c948b1feec76f41df0a6d6703756b0bb1e2b18de6ed189d221e25908aa7c0000000000ffffffff02ca160500000000001600147b55875d4b0e1b329d7f196e8bb20ccb6827ccef1027000000000000160014d0c4a3ef09e997b6e99e397e518fe3e41a118ca10248304502210088cc5f41df253cc9815af82ae971c8fa1cc2f1f6e77cf4a6d8ebc66c5a1ed8ce022014f5548a6709bcf5c4d3fbec77574ebbdc7bbfe9e3dfad3b2f1235083b38547a8121027dd8bc1aa7c502db343011f952ebc280cf2bdd90be198ab7fa009d48a3d293fb00000000",
  "memo": "",
  "confirmations": 30525,
  "hasAproxCreatedAt": false
}