{
  "id": "8858c6fbc6816a8893f2e8efa23d5f1096d4f7cc674038777b5d673b82c9861b",
  "accountId": "c5a8db54-9050-455d-8ce5-63f9acd54f2d",
  "network": "TestNet",
  "amountReceived": 0,
  "amountSent": 318936,
  "totalAmount": 318936,
  "totalFees": 460,
  "isSend": false,
  "isReceive": false,
  "blockHeight": 1936870,
  "blockhash": "000000000000000bd199248068aba5ab09cf9187565e2926f9f00af0be0830f6",
  "createdAt": 1613765220,
  "scriptPubKey": null,
  "isRBF": false,
  "sentScriptPubKey": "0014269a7224acf8a31f7be59efe7db8d9ba3a204ff6",
  "hex": "010000000001067e3d5b1e8671566d7380d150ca46a26249d1ec453aa15d04b0f551a742ca7b1e0000000000ffffffffad5b7e35a593743bc208d0a70d890f0ab4d9199e60a728461449eb6819e9d4900000000000ffffffffb99f8be5b386f9d152c3bc1643a99a57affd0937ed045d70edf5a6bc6725faf30100000000ffffffff7251e04b7552e39b295c241129ceb01115fa9ad356e71a7c66fe259c64ed76130100000000ffffffff46670002f797dea130b879e4b793bbbbcbffbfdec76278246365bbf0ac3fabe60000000000ffffffff953a5f6befec096d1922ad0bc384402771ba57ca71620435bc98fca1f1e5d5140000000000ffffffff01d8dd040000000000160014269a7224acf8a31f7be59efe7db8d9ba3a204ff602483045022100b7175c01d3aee393526fb974999a94e04cb80e92886f2532e6566ffab7da878602203ae734623121aa342fcadf3123947c03637c820c4e14d2286baec85e27bb0af601210247de233ef9d19cc20eb9e0968c5b397056fb38f2e9f644e9c7005a9e7dfa7a8a02483045022100b162f1fc481c22a466d6311cf29ce8247db381ffe730ddc300488350a4e3bff602203e990fd138d46de437025aaed024f43afcf60b00737a7d46a3d31f87721a139b01210292ddba71871dd9515aac5f0f71e8acbc5db71fd5d816bdd62dd23448b608bbbb02473044022018372d96e68363bddf42d90d065759578bf92781895149167f3171174b5d3ac202206e43dd4057b43776f341533e4da33ea009f8b7e40978c0640a2527583680239f0121035d49eccd54d0099e43676277c7a6d4625d611da88a5df49bf9517a7791a777a502483045022100f3f5f77d1b41ab92abb1879047726656808892da55c9ff5deb443c804904cfbf0220670fc77a636fac86c8f84ed9739844da532afa681e027a2eb2ffea916c20d449012103eeed205a69022fed4a62a02457f3699b19c06bf74bf801acc6d9ae84bc16a9e102483045022100f43f06154b38fd5ca882e1041d9c5ccf76b2b441774948019293120e472b382602206aabd15de474e05b5912a2dd59aa91acf3d589d8fee4188bd14771c03d61a1cf012102105d0e55b9a741b873a9c0bd52ecac6f85f58de93e19d48c8c0ea33f54806b5f02473044022053e1c4c198d1c1beb9695510fd43731a89de062a555999ae10af15250c78b433022058c1adb763e73f8760800e6e1edd2fb7c0ae9e931ac1bc2edf250aeec6e053bc01210370cfa6506ef43a4a2d1c8738dab63e54750435078a312760d104657dbdad962c00000000",
  "memo": "",
  "confirmations": 256910,
  "hasAproxCreatedAt": false
}