{
  "id": "943c8d3fb1e1cdd88f6f609134348df376e5871fd32fb3343c0d69cddf2e97f4",
  "accountId": "c5a8db54-9050-455d-8ce5-63f9acd54f2d",
  "network": "TestNet",
  "amountReceived": 0,
  "amountSent": 125647,
  "totalAmount": 125647,
  "totalFees": 353,
  "isSend": false,
  "isReceive": false,
  "blockHeight": 2095020,
  "blockhash": "0000000079d572ecfed3ae1e623b958ec2dcb3013cb742725dd3f5a798e8240a",
  "createdAt": 1632019533,
  "scriptPubKey": null,
  "isRBF": false,
  "sentScriptPubKey": "0014269a7224acf8a31f7be59efe7db8d9ba3a204ff6",
  "hex": "0100000000010466942b4eb367a693dea61fdae4a829e270641f3a870b5f0e312bf359a77d10a5010000001716001438971f73930f6c141d977ac4fd4a727c854935b3fffffffff1b007a73371ee4caa483dcdf7548db3b979e5cea720522acb8ce232b33bd41f0000000000fffffffff1b007a73371ee4caa483dcdf7548db3b979e5cea720522acb8ce232b33bd41f0100000000ffffffff80ba78f736ece2a6f89fcc5e528a6724fcc9640b74d70c4c403505ef5215d6780100000000ffffffff01cfea010000000000160014269a7224acf8a31f7be59efe7db8d9ba3a204ff602483045022100eb1a6700c3bb02bd53de16b4b765c22f6a434ca7b6863d268110f2378d5b1d75022077bd4a1d15a9ad31423ab77b3299a1d5f0f4ecfa50b42d6c963914c1ecc02b03012103a1af804ac108a8a51782198c2d034b28bf90c8803f5a53f76276fa69a4eae77f02483045022100907a91e7bdfa5def1ed3d1bb61095b6173253c7133093fe1206d48a5db32539f02206058cc895ee98e40a6d9ab677643c84096fff4ed10b698cf94eb1a9866f1b0c0012103eeed205a69022fed4a62a02457f3699b19c06bf74bf801acc6d9ae84bc16a9e1024830450221008c399f60ba185ec3d9869fdc7b77050b2607dd8429dd0ab5649b61bed9f07e940220619cba2c86c7f5da6cce8807da94d0de4f3f0dc63ddfd0d16aae947b16225d8d012102e7ab2537b5d49e970309aae06e9e49f36ce1c9febbd44ec8e0d1cca0b4f9c31902483045022100c939cb1cdab9cfdd2b121829743482fbf54d4cb1a1347aab6a4e026c8bf50455022056ad19d0ce4647ec8f94a8bcaebf0d9682e450a85dc517700bd2103d7646027f012103eeed205a69022fed4a62a02457f3699b19c06bf74bf801acc6d9ae84bc16a9e100000000",
  "memo": "",
  "confirmations": 98760,
  "hasAproxCreatedAt": false
}