{
  "id": "9d96dc8fdefcc70adc5c1e1b0ff434a8cf1c14075e640703ed2f3fe583b5760f",
  "accountId": "c5a8db54-9050-455d-8ce5-63f9acd54f2d",
  "network": "TestNet",
  "amountReceived": 86000,
  "amountSent": 0,
  "totalAmount": 86000,
  "totalFees": 1000,
  "isSend": false,
  "isReceive": true,
  "blockHeight": 1974228,
  "blockhash": "00000000d95fbb85675ef30475b9f56ee84f985c3b94806fc631be45ed2b164d",
  "createdAt": 1620059230,
  "scriptPubKey": "0014d0c4a3ef09e997b6e99e397e518fe3e41a118ca1",
  "isRBF": false,
  "hex": "02000000000101d21af38bd7295b843da7e61833b51c7cb180e41358d2ae59dc96d5c9156dbd2e0000000000feffffff01f04f010000000000160014d0c4a3ef09e997b6e99e397e518fe3e41a118ca10347304402204ce7ace875811ba8073a3ea4add50865acad2e053336ecd98e958e317c30296902206031ecd972672a5b078641987737a5fd2db2b8225811c36d3cf0d361f54cd47001202bb80d537b1da3e38bd30361aa855686bde0eacd7162fef6a25fe97bf527a25b65a9140f29b5431fd985d12c6074072f98fd0ae7939d8887632102e7ab2537b5d49e970309aae06e9e49f36ce1c9febbd44ec8e0d1cca0b4f9c31967032f201eb175210256f451edcd30d091dc3133f3bcb2da16683a3227a200a04767d3ed02ca4b551168ac00000000",
  "memo": "",
  "confirmations": 219552,
  "hasAproxCreatedAt": false
}