{
  "id": "9fca06b2a6469d401f33ef86d29ea4cdd832c35e6384f5df663e9fd4a95df3ac",
  "accountId": "c5a8db54-9050-455d-8ce5-63f9acd54f2d",
  "network": "TestNet",
  "amountReceived": 1000000,
  "amountSent": 0,
  "totalAmount": 25099800,
  "totalFees": 160,
  "isSend": false,
  "isReceive": true,
  "blockHeight": 1259783,
  "blockhash": "00000000004e150651daa12a6bc6c144505a1a93bf158b8aef1da36c1893df8c",
  "createdAt": 1516530941,
  "scriptPubKey": "0014d0c4a3ef09e997b6e99e397e518fe3e41a118ca1",
  "isRBF": true,
  "hex": "01000000000101b5561450458314097d23e48ce2ef6eefe2581ed226a03ee27f843929d8a090440000000000fdffffff0240420f0000000000160014d0c4a3ef09e997b6e99e397e518fe3e41a118ca1d8bb6f01000000001600141eb17d4dcc40dcc15091597e5367438ef3e6eec1024730440220391911c8bc0e59ac10d339a0e299f9477857a9e86fc2beb9c68a40ed6bc325c202203571b8e169f53e8b949786164b5fb80dc3e42ddad78d1b9f0777695a3ea23efc0121024ea4015948ecb68ff3ff4b5092ecc77188f2f63766a5c45db7f1822c88cb1b1606391300",
  "memo": "",
  "confirmations": 933997,
  "hasAproxCreatedAt": false
}