{
  "id": "a4b70b4409d1c76bf0fef7c5e684ee0e54d3aa4b2afbea7e62fb57300413f8dc",
  "accountId": "c5a8db54-9050-455d-8ce5-63f9acd54f2d",
  "network": "TestNet",
  "amountReceived": 0,
  "amountSent": 171822,
  "totalAmount": 171822,
  "totalFees": 178,
  "isSend": false,
  "isReceive": false,
  "blockHeight": 1974228,
  "blockhash": "00000000d95fbb85675ef30475b9f56ee84f985c3b94806fc631be45ed2b164d",
  "createdAt": 1620059230,
  "scriptPubKey": null,
  "isRBF": true,
  "sentScriptPubKey": "001426fa3f9541a7c8081c43e9ed5fad14fff2118513",
  "hex": "020000000001028ba58914d3dfd4cb09c1177eaa835b24158f5c48c8ee8524d6806373effec4430000000000fdffffff0f76b583e53f2fed0307645e07141ccfa834f40f1b1e5cdc0ac7fcde8fdc969d0000000000fdffffff012e9f02000000000016001426fa3f9541a7c8081c43e9ed5fad14fff2118513024730440220139fefd6d2850c0b0da03b199adc40deadc0d79f80d5b4c08290cd08e23d873002203e737c391cbfa0646c1c7a7e5f087a7dee17a9d9e0630e7bcbdd51ae8b58d98f012102e7ab2537b5d49e970309aae06e9e49f36ce1c9febbd44ec8e0d1cca0b4f9c31902473044022053709928fd3fcd4883cc9c72ec8a29003609af3462e56ced4bdd3f7e95466c6a022048844daabab615b4d6ab3e6e57dc7ea08abdc5c0a61f98f22a7b007aa1901516012102e7ab2537b5d49e970309aae06e9e49f36ce1c9febbd44ec8e0d1cca0b4f9c319d31f1e00",
  "memo": "",
  "confirmations": 219552,
  "hasAproxCreatedAt": false
}