{
  "id": "a6ec7c0f3e325e714df562df23710c97d7c734d6b868a69a1d68d674cb282745",
  "accountId": "c5a8db54-9050-455d-8ce5-63f9acd54f2d",
  "network": "TestNet",
  "amountReceived": 1000,
  "amountSent": 0,
  "totalAmount": 222674,
  "totalFees": 50420,
  "isSend": false,
  "isReceive": true,
  "blockHeight": 2163256,
  "blockhash": "00000000000001b420b34b3d0c85e97102d18099d9ece241fc6424df867823f2",
  "createdAt": 1645510446,
  "scriptPubKey": "0014d0c4a3ef09e997b6e99e397e518fe3e41a118ca1",
  "isRBF": false,
  "hex": "01000000000101b83c390e5aded74e952ae9f19db869f155a54f1e3362bf8941f731b365f215230000000000ffffffff02ea610300000000001600147b55875d4b0e1b329d7f196e8bb20ccb6827ccefe803000000000000160014d0c4a3ef09e997b6e99e397e518fe3e41a118ca10248304502210095f7fe1ec808186f39a4250cdb13f34b0976c61f7d813b1e9892673a0e1222ae02202f0f93cd6882503f63f8a9f59945660c0b87cadb93ced65d69acf690fc42c2b38121027dd8bc1aa7c502db343011f952ebc280cf2bdd90be198ab7fa009d48a3d293fb00000000",
  "memo": "",
  "confirmations": 30524,
  "hasAproxCreatedAt": false
}