{
  "id": "ac64aa5dff95bd94267a7ecaeac8ce1d8255c7ad456de85c1841bc659d14d3ca",
  "accountId": "c5a8db54-9050-455d-8ce5-63f9acd54f2d",
  "network": "TestNet",
  "amountReceived": 0,
  "amountSent": 10000,
  "totalAmount": 99846,
  "totalFees": 154,
  "isSend": true,
  "isReceive": false,
  "blockHeight": 1934280,
  "blockhash": "00000000000000231568eae58cc80589ac302e414a7915c70bab1007e5f42ae7",
  "createdAt": 1612693940,
  "scriptPubKey": null,
  "isRBF": true,
  "sentScriptPubKey": "00201ae97effedd5ae7c8eb2db678edcc9b83025aa9bca441abb74729d8ba11c4678",
  "hex": "02000000000101cc24371ca725b7951c7703dbf60fa8ff3f0f3bd2e62c0fcc5fdff98cac0441ca0000000000fdffffff0210270000000000002200201ae97effedd5ae7c8eb2db678edcc9b83025aa9bca441abb74729d8ba11c4678f65e0100000000001600142f34aa1cf00a53b055a291a03a7d45f0a6988b5202473044022026d2ba1f55a7dfd4dc175e1776a6bf1f398c1e46e47f880af029381ad44f1baa0220755e42e102517f4930bc24a7237a037c5f864534f4dc23a689c37eb9eac45f3a012102e7ab2537b5d49e970309aae06e9e49f36ce1c9febbd44ec8e0d1cca0b4f9c31900000000",
  "memo": "",
  "confirmations": 259500,
  "hasAproxCreatedAt": false
}