{
  "id": "ae94a6933e5e002999b7e654dfdc068c02d854f28fa4e43d318cf45b92d9a64a",
  "accountId": "c5a8db54-9050-455d-8ce5-63f9acd54f2d",
  "network": "TestNet",
  "amountReceived": 0,
  "amountSent": 5904462,
  "totalAmount": 5904462,
  "totalFees": 1813,
  "isSend": false,
  "isReceive": false,
  "blockHeight": 2190429,
  "blockhash": "00000000000072edb60787d3f2bec4b2262d496ac54b8909a55547d62779fceb",
  "createdAt": 1647679145,
  "scriptPubKey": null,
  "isRBF": false,
  "sentScriptPubKey": "0014269a7224acf8a31f7be59efe7db8d9ba3a204ff6",
  "hex": "01000000000119b89c2e257845d600b5d2fd6bfcb0f12b1c493fc5938c7e83544d9dc5e344191d0100000000ffffffffb66de396fe34ab9eb59ac3938ac9ff2d6be6025cd8fa70dec626d554b1f07c1d0100000000ffffffff6738674dc8e8fad06baa3d940984342f2d872124dfb8d53f3531cc62fb9fef0d0100000000ffffffff5d5a06bb22160f2c4ef07478ad636eee58530d4014b877e9bbb8c0f680c0cbb40100000000ffffffffcf548f0d99f90d8e419adec9d8174cf8ee20883e8425edf72144d639ed5a4dd70100000000ffffffff1f788651c393c587beacec7ce3a557ff0b4040a0dad176582e1abf8fa24b7b970000000000ffffffff2c16e0cc813b7a23d8289237a90f665a8660729fdf3ccfd0e9cc0daf4df9dc480000000000ffffffff19017391baf279265797f285a38b379b631b3976b1435102da0820ab97a343c30100000000ffffffff014d025b84af2da8b58e0d31efbdda48f1f4b29e492085fdc6e44175dd620c8e0100000000ffffffff636b98e91f7e8647990ca25a2f8a8675bf4f79b3b4d10a47c9173ff8e87f4dfe0100000000fffffffff003c948b1feec76f41df0a6d6703756b0bb1e2b18de6ed189d221e25908aa7c0100000000ffffffff9be063603e8b6220fb5b72ec61f1c287f3b2a34e6caba7d8013d2845f064f5730100000000ffffffff8c54ddd3266c1a87969fecffcc4e47f96ab51f330364822ba0568fa80473c9eb0100000000ffffffff01c0789d88271c88d1bf5a13b64c174999ec13017b0f4d958891856a7197f5840100000000ffffffffa404e6e8fc88bfe690acf00a97de60b7a67dc24d588bd7e642fec6fbb6349d810100000000ffffffff67547f888ccfc7a3ca81230b70957cbc573aa5eba4f9c612e1568d5b1a0c32150100000000ffffffff287eeff857a16d3620e704fc8237c5283e57c2c4721c63fab44e5ac5ecaf24a20100000000ffffffffc0fcf04b2ac9d175dabb9562b8399a36ddce275e7c9aa763733386c73706e1210100000000ffffffff452728cb74d6681d9aa668b8d634c7d7970c7123df62f54d715e323e0f7ceca60100000000ffffffffb83c390e5aded74e952ae9f19db869f155a54f1e3362bf8941f731b365f215230100000000ffffffff691477f2be5ad316e385d2c520835f1315e27c86330bef442aa6448c50da67510100000000ffffffffe39d1debc2d48c788a49b434ffe6911a92ea631229847b64c033617c77c4c7290100000000ffffffff57b40b603ffb5b8e2f729d77f7fcae9492ae4707284cf4f0b141edc6607742dd0100000000ffffffff2b514a2983ac4132f4cf2217c7ab7a3d3b535d66533e4eea1f70804e511e7068000000001716001438971f73930f6c141d977ac4fd4a727c854935b3ffffffffc15507cfea0b18bc829482cfd83b3f16a2d9474f8c0c747e2a9fa81d090013f10100000000ffffffff014e185a0000000000160014269a7224acf8a31f7be59efe7db8d9ba3a204ff602483045022100cec5c2e8d0174a2da821519afe8e9c5201be9060080a68bed2a2623d96e49f0b02207a3d72711146f235e20cdb83037cb9ee4cd51d91c311507b74cd97c11afff84a012102e7ab2537b5d49e970309aae06e9e49f36ce1c9febbd44ec8e0d1cca0b4f9c3190248304502210086ba158c53f890632543d6692ec9f96e5dc128a8a531a83f933e0a89132aa1c5022020e8e7f1a289d0aa326156cc9dd275a298526174bd6e2b401893344fac55f5a2012102e7ab2537b5d49e970309aae06e9e49f36ce1c9febbd44ec8e0d1cca0b4f9c31902483045022100fcd9ffe26aa86f8ef2efe780517bbc8763d6e9212e77f83abc05c4efd2b2ee1b02204c7a336380f49f8e0d4441d52c80013342e28b4f23e5ede05eff0ab93b40c4ee012102e7ab2537b5d49e970309aae06e9e49f36ce1c9febbd44ec8e0d1cca0b4f9c3190248304502210081c34d9d274b474b04cc4156fbe1f7c79345ae394a0bc993a623c41d613115a00220058c0bed5c6b4e82b90780c3fdca5adb01d283c8d70a2a5c7227f3537ffe4b1e012102e7ab2537b5d49e970309aae06e9e49f36ce1c9febbd44ec8e0d1cca0b4f9c31902483045022100ff8f9a05e137636e271e9691fd2fc6600962840d7b357642f4ee1ed0e0cef453022066ce5909b1163f9cb041b40319efa227e36bfeb9eb38256fd9984325ebb0b229012102e7ab2537b5d49e970309aae06e9e49f36ce1c9febbd44ec8e0d1cca0b4f9c31902473044022005468b53f89182b0e5bac56280e40f1fb87bdbb3127a62ea5911a0598b050fc702201222099db987b71f60826cc5d9674d72150885d89560ed0bda44a4933e8e7b8f012103f6a0a0a23ce3e86e8b858c521865cd7448cec8cc429db80c617c7fe496560c2902483045022100b8352e0d50cc42f0363d55297e16d86244d85d36305623dcbe3ab46e56f2f49a0220407b6199ff8de76d70edaf6f82cc95c662beff982817b37c3536c16c85682a4d01210295b77f540db326a3347abaa0f8d1e62a9af261629f5e4bbfd682089e6c13aa7902483045022100b202dc1e276a4280fdfc1972428bfd0e0bca1ed63d5dd53976dac4893d6025c20220258840f902e33b15c37cff137fca235283431b83610b23bd89cc88e05dc22ad4012102e7ab2537b5d49e970309aae06e9e49f36ce1c9febbd44ec8e0d1cca0b4f9c3190247304402202f30cff7923c1a9ebc8832334d4f85d604931efd3e6199e1506b697d8ebc03d0022049e8d4eec33f7a4949242d3bebe1ae37505e83a89ab9ffc652a2ada34aaa278a012102e7ab2537b5d49e970309aae06e9e49f36ce1c9febbd44ec8e0d1cca0b4f9c3190247304402206584b5f4712a13453c5d9da3cf15584461a8fcd7b3be18c3e1958871dd467924022027a92be955d045d7e1c70f45ffea651bd758e00acda8beeca370a1c65443a8c8012102e7ab2537b5d49e970309aae06e9e49f36ce1c9febbd44ec8e0d1cca0b4f9c31902473044022034d3264651861721359133a3268788eb4c19012c617c987cdf99ea9d5fb20476022040919b1a43701ec58e21dc2bde8fd5bdfd20e150d8c2a8605bb72bd1d0a4565f012102e7ab2537b5d49e970309aae06e9e49f36ce1c9febbd44ec8e0d1cca0b4f9c319024730440220413e5990cbc7f69fc0edd0ee512a0fb39abfebb1b5570a75c7ba0db08c67dbde0220439e626704de6564633d4d4f4b1e7acc5e9a50ce87d0dfc3034bd86cb6bb88a0012102e7ab2537b5d49e970309aae06e9e49f36ce1c9febbd44ec8e0d1cca0b4f9c31902483045022100e2ecf315e5354b6eadcbea8568f14c0055e7c9baeb33b59947ab0354bd3069e00220291d25b7d793f8f4c730b75f63c3f4ad86ffce7e48e310476c69bbde8633d691012102e7ab2537b5d49e970309aae06e9e49f36ce1c9febbd44ec8e0d1cca0b4f9c3190247304402206c8e111b4cb2bf443137a2b5334c25c0256802bafadb23ff995c76fccfb220a8022049562af18fc6df0b01c043d12666b7417fd07cd59e9ca44f369e9327929d44fd012102e7ab2537b5d49e970309aae06e9e49f36ce1c9febbd44ec8e0d1cca0b4f9c31902483045022100b1bcd6af2be77c96dfe7dd2b6c31f4e95f49daa184bb11c73685778af81cf9fd022064fcfa00999cacedb0bfed72fdff5124216fa501692a6d0a350164e6ecaa90b901210397bd8426ad20aed66a9762a56b5bd6435e2c06cdb31166acd3a57ddbc8c7219102473044022016dad35c2c26513a4a804412d10ba5401a32a2e43fbae3274d58f526abdacb58022055ad732adfb65b387d19b6002797a4427d85c626d21227c1a43543cbf2130f32012102e7ab2537b5d49e970309aae06e9e49f36ce1c9febbd44ec8e0d1cca0b4f9c319024830450221009221d2853c49e1bc30eac8c1e043d6233ba051497ca31478a2102d9c0809ce71022049f676050929a558e786fefd37a154657f726a1ceb68688e79f91f50287e1788012102e7ab2537b5d49e970309aae06e9e49f36ce1c9febbd44ec8e0d1cca0b4f9c31902483045022100ea76f59bfcd10bca587e045841211d1db27a6ceceb1c99ad2bc7a0a27a97c1e002202e6bf1dc63444ead0867a6fd0b1542a9a0500c01a77340dcc70af67670829eb6012102e7ab2537b5d49e970309aae06e9e49f36ce1c9febbd44ec8e0d1cca0b4f9c319024830450221008c0e127a808e35122b8fc0467f5a0ac784acba1a2defc4775bfa357fc3f95bbf0220771ace6589e6242ec8dbb8decc69d7c7e8e139689e1141e4d202891ff9945ea9012102e7ab2537b5d49e970309aae06e9e49f36ce1c9febbd44ec8e0d1cca0b4f9c319024730440220744920189e40807bd1a683fc8cb68e5a4fde275b355dc2a2197bcab1e0a6bbb9022043933a474df49c5159184de04f6314bf1cd722e2907459ffbbe8ea5e5ded4123012102e7ab2537b5d49e970309aae06e9e49f36ce1c9febbd44ec8e0d1cca0b4f9c3190247304402207d8911202b84abe27333db959b2841911e7f3e8d2698e38de76f6fbb769aa6390220198c1b9820c867a3a305e8263989848e5f15dc204697a411dc8d724199635e83012102e7ab2537b5d49e970309aae06e9e49f36ce1c9febbd44ec8e0d1cca0b4f9c3190247304402201f0dbd384a96a2764ff6c1490f5acb8259a09d7744f0041f8931279076a2e7270220566709ebd77d749e1d5b5acc49efc45b2b9b45fbe0fbb26f34df2fd80d2e1ae1012102e7ab2537b5d49e970309aae06e9e49f36ce1c9febbd44ec8e0d1cca0b4f9c3190247304402205e0537330bc5f05d1593b3c1aa2d8a3b3482dd00e1522f76721092173987980a0220033d2acf9e73e4cc7f372cd479eab06d5ced7fe404607f86daff8da49f132641012102e7ab2537b5d49e970309aae06e9e49f36ce1c9febbd44ec8e0d1cca0b4f9c319024830450221008f270d989d94d3f04d42fab88214e63b85851fea09ba60260b38d571e730cf87022074d7190ccffdff6cdda174b27878ac444838a6bb5cc76c39e8b1497d62687440012103a1af804ac108a8a51782198c2d034b28bf90c8803f5a53f76276fa69a4eae77f02473044022012e49b0b617f6909e26775aa9dad5ca07507844b56530e1df74f400f84f56e8e0220472e8a5f3dc47bec07bdc2b2e57a4053c8b01c22eff3b666fac474d6db52fb09012102e7ab2537b5d49e970309aae06e9e49f36ce1c9febbd44ec8e0d1cca0b4f9c31900000000",
  "memo": "",
  "confirmations": 3351,
  "hasAproxCreatedAt": false
}