{
  "id": "b4a5c9edf528ab3c0b5aa54b53f405ec4447332961294c390947dcf7ec40943a",
  "accountId": "c5a8db54-9050-455d-8ce5-63f9acd54f2d",
  "network": "TestNet",
  "amountReceived": 30000,
  "amountSent": 0,
  "totalAmount": 3521325,
  "totalFees": 1410,
  "isSend": false,
  "isReceive": true,
  "blockHeight": 1931410,
  "blockhash": "00000000000000adde8c84b43e1575e2d3fca72cc043883e0e7de04b7f6d1f8d",
  "createdAt": 1612264671,
  "scriptPubKey": "00141fa1866dfe5f5ff68be3ddbc39ef05fda34d13a3",
  "isRBF": false,
  "hex": "0100000000010153af85e0ea3b20ba8496f40d9e21cb1c928808bf66e0f1ad6686609b76296d490000000000ffffffff0230750000000000001600141fa1866dfe5f5ff68be3ddbc39ef05fda34d13a3fd453500000000001600146a453c8dea613a995379c71628ba582382e432d0024730440220143b867f66a60394822e926f706714d2a3242dfe4ee9616623a26e405a978c0f02201d43b4d9e02c981088badf9ca9a9ef83e9d6b6b7f4764ecaccfe219c7f045637012102ed55f90c86c8ca23c6e2b486930e143b98c0939189a95b9f270a3e926ff5bf4800000000",
  "memo": "",
  "confirmations": 262370,
  "hasAproxCreatedAt": false
}