{
  "id": "b64a9ffbad740252a03de48d4d7f7f1c35df2a599cfbc68e1494efb111d67ed2",
  "accountId": "c5a8db54-9050-455d-8ce5-63f9acd54f2d",
  "network": "TestNet",
  "amountReceived": 10000,
  "amountSent": 0,
  "totalAmount": 10000,
  "totalFees": 78000,
  "isSend": false,
  "isReceive": true,
  "blockHeight": 2094421,
  "blockhash": "0000000000000049af3bfcdd5e879f5304106f209a28972cc63e6cf02c004ade",
  "createdAt": 1631758229,
  "scriptPubKey": "00146fa016500a3c6a737ebb260e2ddca78ba9234558",
  "isRBF": false,
  "hex": "02000000000101468cc46f74c4d4adeb1f5f90d2379942243f86aa9da00792362e6cfa76c174120100000000ffffffff0110270000000000001600146fa016500a3c6a737ebb260e2ddca78ba9234558024830450221008e152e130d1e63d061f2f26c4e0be86509c271bd6661d962eb481d305ce3e5a802201b97c1c2a20be32cd20bef4f70f7fe004a79335f8711fad0930dc11600165015012102e7ab2537b5d49e970309aae06e9e49f36ce1c9febbd44ec8e0d1cca0b4f9c31900000000",
  "memo": "",
  "confirmations": 99359,
  "hasAproxCreatedAt": false
}