{
  "id": "b92d171dc8e0203aba4e8657c8b561172d92501afcea23a74b39c068cedfd3a8",
  "accountId": "c5a8db54-9050-455d-8ce5-63f9acd54f2d",
  "network": "TestNet",
  "amountReceived": 10000,
  "amountSent": 0,
  "totalAmount": 101024919,
  "totalFees": 141,
  "isSend": false,
  "isReceive": true,
  "blockHeight": 1864139,
  "blockhash": "0000000069232995892b12811f4d584665353c420a32a1638e8baf95ac58a109",
  "createdAt": 1603419427,
  "scriptPubKey": "0014d0c4a3ef09e997b6e99e397e518fe3e41a118ca1",
  "isRBF": false,
  "hex": "02000000000101567f690c25d457aeb26ff2ab5180dd32e12be66a6acf22b8d71ea7af1aa757e10100000000feffffff021027000000000000160014d0c4a3ef09e997b6e99e397e518fe3e41a118ca1875d050600000000160014e0c50d543e94e955553708cff46f6b7b3c14ac090247304402200946433a8fdc53e380ae4551ccd8767c884f65e3ae8baf22066d367596537e82022063cb49f409b1a3a0ab9efe28e4de4f13b474110c9f0e34efdeec818732c302ce01210276f6ba63bdf8a1b57a75a579de889979aa7f9118be23b252209f346534c94a16ca711c00",
  "memo": "",
  "confirmations": 329641,
  "hasAproxCreatedAt": false
}