{
  "id": "c174f2502bf06728a94e85158a455393efb54c455a6f83838ff83a16107dfbd2",
  "accountId": "c5a8db54-9050-455d-8ce5-63f9acd54f2d",
  "network": "TestNet",
  "amountReceived": 7800,
  "amountSent": 0,
  "totalAmount": 7800,
  "totalFees": 200,
  "isSend": false,
  "isReceive": true,
  "blockHeight": 1974331,
  "blockhash": "000000000000000b780d2507dff833dd23d120d6fecbaf78f41a7de69efb6c1c",
  "createdAt": 1620129393,
  "scriptPubKey": "0014d0c4a3ef09e997b6e99e397e518fe3e41a118ca1",
  "isRBF": false,
  "hex": "02000000000101948d7d37fe6c7a902dfe3a22e63e45148823ed382b1203ed3d476131189fe7880000000000feffffff01781e000000000000160014d0c4a3ef09e997b6e99e397e518fe3e41a118ca103483045022100e6eec9bfc48f78ae70efb7fe3487e277feb623c2bbc54f4fe5fb8fc6ffd43eb20220342530b5c5db3979e699ff2c7933b068314d46a5f9fe5f3baf8a610305b6394501202bb80d537b1da3e38bd30361aa855686bde0eacd7162fef6a25fe97bf527a25b65a9140f29b5431fd985d12c6074072f98fd0ae7939d8887632102e7ab2537b5d49e970309aae06e9e49f36ce1c9febbd44ec8e0d1cca0b4f9c31967032f201eb175210256f451edcd30d091dc3133f3bcb2da16683a3227a200a04767d3ed02ca4b551168ac00000000",
  "memo": "",
  "confirmations": 219449,
  "hasAproxCreatedAt": false
}