{
  "id": "c343a397ab2008da025143b176391b639b378ba385f297572679f2ba91730119",
  "accountId": "c5a8db54-9050-455d-8ce5-63f9acd54f2d",
  "network": "TestNet",
  "amountReceived": 10000,
  "amountSent": 0,
  "totalAmount": 30922,
  "totalFees": 4068,
  "isSend": false,
  "isReceive": true,
  "blockHeight": 2164435,
  "blockhash": "000000000000672eb00b0bea4b65bc0ab7599d0e9bf15cddfb22d9b3a803134f",
  "createdAt": 1646199534,
  "scriptPubKey": "0014d0c4a3ef09e997b6e99e397e518fe3e41a118ca1",
  "isRBF": false,
  "hex": "01000000000101287eeff857a16d3620e704fc8237c5283e57c2c4721c63fab44e5ac5ecaf24a20000000000ffffffff02ba510000000000001600147b55875d4b0e1b329d7f196e8bb20ccb6827ccef1027000000000000160014d0c4a3ef09e997b6e99e397e518fe3e41a118ca10247304402204312e386b0c56fdace2642ff37587d646462edcd7fc86f17fce2ca53fa7d019d0220780eb384cb2ab7663bca63640a10c68705f8a877908fcc2da451eeef71f41d618121027dd8bc1aa7c502db343011f952ebc280cf2bdd90be198ab7fa009d48a3d293fb00000000",
  "memo": "",
  "confirmations": 29345,
  "hasAproxCreatedAt": false
}