{
  "id": "cbb1f39da6015584b6c3df0c7325faf91eb67ddf263e73da8b8fe2f90935ffde",
  "accountId": "c5a8db54-9050-455d-8ce5-63f9acd54f2d",
  "network": "TestNet",
  "amountReceived": 0,
  "amountSent": 3534655,
  "totalAmount": 3534655,
  "totalFees": 452,
  "isSend": false,
  "isReceive": false,
  "blockHeight": 1746866,
  "blockhash": "00000000b27887d5545e2c8776e933f36d5b6d7ae242105f89b8d6efa5732b8a",
  "createdAt": 1590809935,
  "scriptPubKey": null,
  "isRBF": false,
  "sentScriptPubKey": "00147f8a2b8c1e927075c7956b8aabccec1d863428de",
  "hex": "01000000000105f0b7b7ad837b4d3535bea79a2fa355262df910873b7a51afa1e4279c6b6f6e6f0000000017160014eee02beeb4a8f15bbe4926130c086bd47afe8dbcffffffff6840a9cf2e9de75e6572cad70cedc1892e008734dcc6a5fb758fed85de6967420000000000ffffffff6840a9cf2e9de75e6572cad70cedc1892e008734dcc6a5fb758fed85de6967420100000000ffffffff027a726f8aa4e81a45241099a9820e6cb7d8920a686701ad98000721101fa0aa0100000017160014d815dddcf8cf1b820419dcb1206a2a78cfa60320fffffffff0b7b7ad837b4d3535bea79a2fa355262df910873b7a51afa1e4279c6b6f6e6f0100000017160014cdf4c64549699034ebfa35d3b2fdf3e5490d66d6ffffffff013fef3500000000001600147f8a2b8c1e927075c7956b8aabccec1d863428de02483045022100c804cffe0af5c20ee829556874cac18984d40f4346ed50dfcd9356758f3e183f022042945049aef76297277d7ed38b60a600d5f533e5ac6180bcadcccca88abd6862012103cfbca92ae924a3bd87529956cb4f372a45daeafdb443e12a781881759e6f48ce024730440220382113d995779de68c0e575734cacb638b216ed5e13b57ca16aeeb26e8f64bd6022031c8e4094c00b0f32ebae14dd8ed93d7fce2979bd7dd9244d1a7aff2987fd55e012103eeed205a69022fed4a62a02457f3699b19c06bf74bf801acc6d9ae84bc16a9e10248304502210097ff97407c25f64ca4ca7dd72e781ea8cecebca92f8ba275d73f3c507ba03f4b02201fa11f39b39c2575b7465c01e0c2cdee93782caddae22adbd6bd33d2506a39770121035d49eccd54d0099e43676277c7a6d4625d611da88a5df49bf9517a7791a777a502483045022100a4672501c664a16640fc24690f5cd167d3f63c9df321499048da4221ed12d669022036ef4025817ab2d3a2b6931ea6d6297461879412a02bf514bf678393e37834d301210293137bc1a9b7993a1d2a462188efc45d965d135f53746b6b146a3cec9905322602483045022100b51013f6454edc1ada742e821784ac16d2216736f181b2be3a9968d308962cf20220055cbcb3a2d2f98739c4206121c8bc7fd7b4c51257ee1642f92fcc043fe38c02012102fb7e211e769b48013a0f21c0f8030235ae92f396ded25c86d3acd4e699fbf17a00000000",
  "memo": "",
  "confirmations": 446914,
  "hasAproxCreatedAt": false
}