{
  "id": "d6192f12d3aea99d13337303b2742fefdc078c8cf49636892d0bf0f373a7995b",
  "accountId": "c5a8db54-9050-455d-8ce5-63f9acd54f2d",
  "network": "TestNet",
  "amountReceived": 10000,
  "amountSent": 0,
  "totalAmount": 81580,
  "totalFees": 2260,
  "isSend": false,
  "isReceive": true,
  "blockHeight": 2192032,
  "blockhash": "00000000000000e87dc7bd8545fb4b14aec9f1a2b644b4f9107f0678d40181ad",
  "createdAt": 1648544800,
  "scriptPubKey": "0014d0c4a3ef09e997b6e99e397e518fe3e41a118ca1",
  "isRBF": false,
  "hex": "01000000000101219323e91658da99f665d70c285bcf4ce6b17414a5ed31cd1fa4035c39292f540000000000ffffffff029c17010000000000160014a843e706518658e10e7c158cb8ef293cbc1bb0c01027000000000000160014d0c4a3ef09e997b6e99e397e518fe3e41a118ca102483045022100f84081863b0e5a83d32a657d330b4b157a76061cd00c8ea40ff78459352600ae02204070459a0bec284c0b89b6fac72d25157476aa77f2be0db222cc6541ef2f63908121032ddcf36491641c7b0ad4a22046a479b6e827fd968687eed166e094214fa5be9500000000",
  "memo": "",
  "confirmations": 1748,
  "hasAproxCreatedAt": false
}