{
  "id": "d653e99ce67bc561966ea44f58f6ac56dabb801163cbbf36cacd819c06b5f28b",
  "accountId": "c5a8db54-9050-455d-8ce5-63f9acd54f2d",
  "network": "TestNet",
  "amountReceived": 0,
  "amountSent": 16000000,
  "totalAmount": 16283998,
  "totalFees": 10000,
  "isSend": true,
  "isReceive": false,
  "blockHeight": 1453430,
  "blockhash": "000000000000009867f821f184a744f7e90610d00c6fc35d4e653046074ec9d3",
  "createdAt": 1548060628,
  "scriptPubKey": null,
  "isRBF": false,
  "sentScriptPubKey": "a914affa53441d8fcadbe552d13cdad61cde975e0c4487",
  "hex": "01000000015ed61f1a30a514e31983971429127f522d445e9d60bc3786d25fc53a7424679a010000006a473044022001d5b118155e747a9fcdcc8693397580ba1654eaa238604b4f9f4d9d5870f8a602207ae4fe62a3794315d4532baff38505b7f0b4930074de8704ad4e34e54877438e012102a7451395735369f2ecdfc829c0f774e88ef1303dfe5b2f04dbaab30a535dfdd6ffffffff025e5504000000000016001480169efc106e0187ea0f9f4c310bfcbd78bc3fed0024f4000000000017a914affa53441d8fcadbe552d13cdad61cde975e0c448700000000",
  "memo": "",
  "confirmations": 740350,
  "hasAproxCreatedAt": false
}