{
  "id": "f11300091da89f2a7e740c8c4f47d9a2163f3bd8cf829482bc180beacf0755c1",
  "accountId": "c5a8db54-9050-455d-8ce5-63f9acd54f2d",
  "network": "TestNet",
  "amountReceived": 100000,
  "amountSent": 0,
  "totalAmount": 997740,
  "totalFees": 2260,
  "isSend": false,
  "isReceive": true,
  "blockHeight": 2190011,
  "blockhash": "00000000004e07cc5e8e5a308ef228c04c00f87c15011eb432d5dc183d1be51e",
  "createdAt": 1647416813,
  "scriptPubKey": "0014d0c4a3ef09e997b6e99e397e518fe3e41a118ca1",
  "isRBF": false,
  "hex": "010000000001011d75d62b7d2ff0781921048c9a8c20e0a6c4aed95dbb24aa40b2f565ce26d8250100000000ffffffff02ccb20d0000000000160014a843e706518658e10e7c158cb8ef293cbc1bb0c0a086010000000000160014d0c4a3ef09e997b6e99e397e518fe3e41a118ca10248304502210096c5fd098339057dc1156d50421445199e2409b42641cfb4e3c048f748b6ce1e02204644ce79eb4da8ec713068d45052324fdb113b2b316ea20c807c429408b00fb18121032ddcf36491641c7b0ad4a22046a479b6e827fd968687eed166e094214fa5be9500000000",
  "memo": "",
  "confirmations": 3769,
  "hasAproxCreatedAt": false
}