{
  "id": "fe4d7fe8f83f17c9470ad1b4b3794fbf75868a2f5aa20c9947867e1fe9986b63",
  "accountId": "c5a8db54-9050-455d-8ce5-63f9acd54f2d",
  "network": "TestNet",
  "amountReceived": 100000,
  "amountSent": 0,
  "totalAmount": 384180,
  "totalFees": 2260,
  "isSend": false,
  "isReceive": true,
  "blockHeight": 2190021,
  "blockhash": "00000000000000de9de08d04095a45b2159eb14f5435f4482976b18968660f7c",
  "createdAt": 1647420457,
  "scriptPubKey": "0014d0c4a3ef09e997b6e99e397e518fe3e41a118ca1",
  "isRBF": false,
  "hex": "010000000001018c54ddd3266c1a87969fecffcc4e47f96ab51f330364822ba0568fa80473c9eb0000000000ffffffff021456040000000000160014a843e706518658e10e7c158cb8ef293cbc1bb0c0a086010000000000160014d0c4a3ef09e997b6e99e397e518fe3e41a118ca10247304402206b8054e3990ae0eddb875a16642ccabe8f81ed159ea15a08628e5b2fcb0a46cb0220121991b0f01654675d4a609447f625a6c102b5b356d1854bb99f4f747f114a628121032ddcf36491641c7b0ad4a22046a479b6e827fd968687eed166e094214fa5be9500000000",
  "memo": "",
  "confirmations": 3759,
  "hasAproxCreatedAt": false
}