{
  "id": "0bc6daa762d6c6e2c436acc3d22efb4dc6e9dd62e279695e5f10225de4f02c2d",
  "accountId": "c5a8db54-9050-455d-8ce5-63f9acd54f2d",
  "network": "TestNet",
  "amountReceived": 0,
  "amountSent": 99990000,
  "totalAmount": 109990000,
  "totalFees": 10000,
  "isSend": true,
  "isReceive": false,
  "blockHeight": 1439006,
  "blockhash": "00000000000003ef3f5ece882d8dbc7c0e2a6ea81c02b7f9dcafdc2b9d76d294",
  "createdAt": 1539767907,
  "scriptPubKey": null,
  "isRBF": false,
  "sentScriptPubKey": "a914affa53441d8fcadbe552d13cdad61cde975e0c4487",
  "hex": "0100000000010153cc1527e2c0ce5fdab5c0c6847e38781a33296f38f687c38bbb07397c82eb34000000001716001438971f73930f6c141d977ac4fd4a727c854935b3ffffffff0280969800000000001600145337d7bd6d520bffb8f7774f32447ef546b5fbb9f0b9f5050000000017a914affa53441d8fcadbe552d13cdad61cde975e0c44870247304402201276f2ca6b64bf1ae69d82ccc03e99c499ec71293ae8034cc180fba992ead8ae02202e35a7de8c181eb1f8382461ab8c5e36e7e618038779f89b5b299cb229ef4c44012103a1af804ac108a8a51782198c2d034b28bf90c8803f5a53f76276fa69a4eae77f00000000",
  "memo": "",
  "confirmations": 754774,
  "hasAproxCreatedAt": false
}