{
  "id": "0def9ffb62cc31353fd5b8df2421872d2f348409943daa6bd0fae8c84d673867",
  "accountId": "c5a8db54-9050-455d-8ce5-63f9acd54f2d",
  "network": "TestNet",
  "amountReceived": 1000,
  "amountSent": 0,
  "totalAmount": 78194,
  "totalFees": 4068,
  "isSend": false,
  "isReceive": true,
  "blockHeight": 2164434,
  "blockhash": "00000000000002f8883314e81bfc2e18dab78b3bbe2dbc5313788b10052b1a47",
  "createdAt": 1646198319,
  "scriptPubKey": "0014d0c4a3ef09e997b6e99e397e518fe3e41a118ca1",
  "isRBF": false,
  "hex": "01000000000101e7101344a1eff1ee419ee45fe60add783537dfef3093a29d37feae311a47fac20000000000ffffffff028a2d0100000000001600147b55875d4b0e1b329d7f196e8bb20ccb6827ccefe803000000000000160014d0c4a3ef09e997b6e99e397e518fe3e41a118ca10247304402201933c46e2e0b4cd40438cfa4259edcc9c7ef9520d72b7a91340e86fb3cb7445602206168be222a71bc09abd8bbe4f09a521a24291056c7a22f9ee6dd6e855cf9cbcc8121027dd8bc1aa7c502db343011f952ebc280cf2bdd90be198ab7fa009d48a3d293fb00000000",
  "memo": "",
  "confirmations": 29346,
  "hasAproxCreatedAt": false
}