{
  "id": "10a65135fe5635234be7e5286aa541199328357b45fe13e63ba7d9a3d1cf1290",
  "accountId": "c5a8db54-9050-455d-8ce5-63f9acd54f2d",
  "network": "TestNet",
  "amountReceived": 1696,
  "amountSent": 0,
  "totalAmount": 1696,
  "totalFees": 276,
  "isSend": false,
  "isReceive": true,
  "blockHeight": 1968681,
  "blockhash": "000000000000003b6a67709680100b49f97687274c55c759b19727bb74dff39a",
  "createdAt": 1617099250,
  "scriptPubKey": "00146fe964d4aa382682ad47c4d6e87efd2842e33718",
  "isRBF": true,
  "hex": "020000000001017bcec88b321f9cd233e55152eb3c783f8f35534b8dd6dcf9c835a0da76a441af0100000000fdffffff01a0060000000000001600146fe964d4aa382682ad47c4d6e87efd2842e33718040047304402200e7e4a736aaeb98e8d4f95f4469143c740f50d461c7ff38d4160b1741973a4c1022046c60f49676a1cfe1143b36c8c4c7ed2881795a2781d512fa44960dfe52764530147304402205a540154568510de4a393a158aa23248f9d3f8e417b2f9f33c4f6f4c1f30851f0220508b92e7d8cdb048bb0809df1c393ef6f7cb5bb7f26169314c7a5a84ea79b8b701475221030b90ed2e86bad7f2a4fe9769bb417d7ba9caa1124807dbfb362dfbeeb65e7e012103e1c0a2197c826461f7644205ae22293af81de32c7d67ea778be43062d26481b452ae280a1e00",
  "memo": "",
  "confirmations": 225099,
  "hasAproxCreatedAt": false
}