{
  "id": "116af2717e9a2959f4e947b58408d8ed32ee6d8762932879589588d6d2e067fa",
  "accountId": "c5a8db54-9050-455d-8ce5-63f9acd54f2d",
  "network": "TestNet",
  "amountReceived": 0,
  "amountSent": 835,
  "totalAmount": 835,
  "totalFees": 165,
  "isSend": false,
  "isReceive": false,
  "blockHeight": 2163205,
  "blockhash": "0000000076c8b99a1557a25b148049e68a8e51a34975a26f38ee83584d58cbb8",
  "createdAt": 1645464523,
  "scriptPubKey": null,
  "isRBF": true,
  "sentScriptPubKey": "0014489bf5ba829c47c9a93f744452d32064dff14ac5",
  "hex": "020000000001015de8a00eed6f722b9d0de72044225981e910902b8fae50edbc79cbf052a5d2d30000000000fdffffff014303000000000000160014489bf5ba829c47c9a93f744452d32064dff14ac502483045022100da311b47c24a6523a5f1edb31b5a3f8c2a73abda6c44f58598c67c05fa9bb65802203c41dd932e3588b7f0a1507a620f31644cd18747de32951211027e36758e99c1012102e7ab2537b5d49e970309aae06e9e49f36ce1c9febbd44ec8e0d1cca0b4f9c31904022100",
  "memo": "",
  "confirmations": 30575,
  "hasAproxCreatedAt": false
}