{
  "id": "1274c176fa6c2e369207a09daa863f24429937d2905f1febadd4c4746fc48c46",
  "accountId": "c5a8db54-9050-455d-8ce5-63f9acd54f2d",
  "network": "TestNet",
  "amountReceived": 98000,
  "amountSent": 0,
  "totalAmount": 98000,
  "totalFees": 2000,
  "isSend": false,
  "isReceive": true,
  "blockHeight": 2094416,
  "blockhash": "000000000000006ef748836175dbd8838c063d93c5c0f96c84aac28167a237a7",
  "createdAt": 1631756373,
  "scriptPubKey": "0014d0c4a3ef09e997b6e99e397e518fe3e41a118ca1",
  "isRBF": false,
  "hex": "020000000001012c17475d8029d6757db6323823a1dcf1891db90195f894630b4bdaa9020c7fb40000000000ffffffff0210270000000000001600146fa016500a3c6a737ebb260e2ddca78ba9234558c057010000000000160014d0c4a3ef09e997b6e99e397e518fe3e41a118ca1024830450221009950f1218ba72c80305b8e4f5a2a0220361b2cbae0081015001b857a2d72bcaa022021106482794b778902836724720c166e8898205fca0f333abdfd26f829de20b2012102e7ab2537b5d49e970309aae06e9e49f36ce1c9febbd44ec8e0d1cca0b4f9c31900000000",
  "memo": "",
  "confirmations": 99364,
  "hasAproxCreatedAt": false
}