{
  "id": "14d5e5f1a1fc98bc35046271ca57ba71274084c30bad22196d09ecef6b5f3a95",
  "accountId": "c5a8db54-9050-455d-8ce5-63f9acd54f2d",
  "network": "TestNet",
  "amountReceived": 0,
  "amountSent": 10000,
  "totalAmount": 69550,
  "totalFees": 154,
  "isSend": true,
  "isReceive": false,
  "blockHeight": 1934515,
  "blockhash": "0000000000000011fcd144c52dc95943908a918779650d6d55f4175d9b764b44",
  "createdAt": 1612761824,
  "scriptPubKey": null,
  "isRBF": true,
  "sentScriptPubKey": "0020362f2cd7a27517b63c1deee4f5d91d58d34da26a86946771a3fc755fa8397e62",
  "hex": "0200000000010144e9b9a56cc1ed683b5e63f13028cc1629c3f64e53fe9cae22406e544613729a0000000000fdffffff029ee800000000000016001480169efc106e0187ea0f9f4c310bfcbd78bc3fed1027000000000000220020362f2cd7a27517b63c1deee4f5d91d58d34da26a86946771a3fc755fa8397e6202483045022100d50985b6f169fdeba4b03a8c0198c43758dd01addab2029b8e83427493d6761a0220185eef72e9de3290d70cefa178e5a3545dcbfc40da0984e644a7d6cff06e71c90121033adaeff018387bf52875cfd0a82ff29680f042e15010cb5b716b29767366983600000000",
  "memo": "",
  "confirmations": 259265,
  "hasAproxCreatedAt": false
}