{
  "id": "15320c1a5b8d56e112c6f9a4eba53a57bc7c95700b2381caa3c7cf8c887f5467",
  "accountId": "c5a8db54-9050-455d-8ce5-63f9acd54f2d",
  "network": "TestNet",
  "amountReceived": 10000,
  "amountSent": 0,
  "totalAmount": 73126,
  "totalFees": 4068,
  "isSend": false,
  "isReceive": true,
  "blockHeight": 2164435,
  "blockhash": "000000000000672eb00b0bea4b65bc0ab7599d0e9bf15cddfb22d9b3a803134f",
  "createdAt": 1646199534,
  "scriptPubKey": "0014d0c4a3ef09e997b6e99e397e518fe3e41a118ca1",
  "isRBF": false,
  "hex": "010000000001016738674dc8e8fad06baa3d940984342f2d872124dfb8d53f3531cc62fb9fef0d0000000000ffffffff0296f60000000000001600147b55875d4b0e1b329d7f196e8bb20ccb6827ccef1027000000000000160014d0c4a3ef09e997b6e99e397e518fe3e41a118ca1024730440220097d0aca815822651fa74b592506a2f011139fc5d524fe794e20d9be522af5ca0220784d7bd573464db796fba283a1278d7112070477d6eba8cc98bdc9851cbee3638121027dd8bc1aa7c502db343011f952ebc280cf2bdd90be198ab7fa009d48a3d293fb00000000",
  "memo": "",
  "confirmations": 29345,
  "hasAproxCreatedAt": false
}