{
  "id": "1d1944e3c59d4d54837e8c93c53f491c2bf1b0fc6bfdd2b500d64578252e9cb8",
  "accountId": "c5a8db54-9050-455d-8ce5-63f9acd54f2d",
  "network": "TestNet",
  "amountReceived": 100000,
  "amountSent": 0,
  "totalAmount": 588700,
  "totalFees": 2260,
  "isSend": false,
  "isReceive": true,
  "blockHeight": 2190019,
  "blockhash": "0000000000000059cbeef2df5e395a8babcdeb97432abbabf153d9f54d0a1e75",
  "createdAt": 1647419346,
  "scriptPubKey": "0014d0c4a3ef09e997b6e99e397e518fe3e41a118ca1",
  "isRBF": false,
  "hex": "010000000001015d5a06bb22160f2c4ef07478ad636eee58530d4014b877e9bbb8c0f680c0cbb40000000000ffffffff02fc74070000000000160014a843e706518658e10e7c158cb8ef293cbc1bb0c0a086010000000000160014d0c4a3ef09e997b6e99e397e518fe3e41a118ca10247304402200e8c857b93053537d2922dec01dd215d8de6f16914172bc22e8e931ea574182202207e4f0cfebe5e1efbc00442421c10ef6bb3c5be100399eb29abb78e135114d85b8121032ddcf36491641c7b0ad4a22046a479b6e827fd968687eed166e094214fa5be9500000000",
  "memo": "",
  "confirmations": 3761,
  "hasAproxCreatedAt": false
}