{
  "id": "1d7cf0b154d526c6de70fad85c02e66b2dffc98a93c39ab59eab34fe96e36db6",
  "accountId": "c5a8db54-9050-455d-8ce5-63f9acd54f2d",
  "network": "TestNet",
  "amountReceived": 88418,
  "amountSent": 0,
  "totalAmount": 98418,
  "totalFees": 1582,
  "isSend": false,
  "isReceive": true,
  "blockHeight": 2164236,
  "blockhash": "0000000011d9c06bceb8549f2a682ab771d809b7776e61eadceb2d47817a0dc8",
  "createdAt": 1646100074,
  "scriptPubKey": "0014d0c4a3ef09e997b6e99e397e518fe3e41a118ca1",
  "isRBF": false,
  "hex": "020000000001013df47c4d7e7e8f9b0af5b0f1557bbabe3e7befb2a3b6b332d0bd0c5be23eb8a20100000000ffffffff0210270000000000001600147b55875d4b0e1b329d7f196e8bb20ccb6827ccef6259010000000000160014d0c4a3ef09e997b6e99e397e518fe3e41a118ca102483045022100b7169f50ac243d1f900b47f1fcb55120ef98644d29f087744f4979fbf1246bf602206cab6b1b6435365db68df983171e311f5f80c23d44adbf952a5f77e1403ad38a012102e7ab2537b5d49e970309aae06e9e49f36ce1c9febbd44ec8e0d1cca0b4f9c31900000000",
  "memo": "",
  "confirmations": 29544,
  "hasAproxCreatedAt": false
}