{
  "id": "1e7bca42a751f5b0045da13a45ecd14962a246ca50d180736d5671861e5b3d7e",
  "accountId": "c5a8db54-9050-455d-8ce5-63f9acd54f2d",
  "network": "TestNet",
  "amountReceived": 80000,
  "amountSent": 0,
  "totalAmount": 3369025,
  "totalFees": 14100,
  "isSend": false,
  "isReceive": true,
  "blockHeight": 1935951,
  "blockhash": "00000000000000173365a5b8600a8cbdb7807ab756db18a5cb087544e71335ba",
  "createdAt": 1613297950,
  "scriptPubKey": "0014b171d2cafeeab7cb29999f15a0430aece9864dc1",
  "isRBF": false,
  "hex": "0100000000010146670002f797dea130b879e4b793bbbbcbffbfdec76278246365bbf0ac3fabe60100000000ffffffff028038010000000000160014b171d2cafeeab7cb29999f15a0430aece9864dc1c12f320000000000160014fd1156e7ae3d2c7cd6668df01720734020eb4d9f0248304502210097088b4eab4b0fef204d08bd7a973a0b3c50e849ed4065afc51cbb53aaede9d50220720a8b8987a31bc4d6825e35a6f3aa3ecfc7dca41ff34d3c711368337c6bba9f01210324b778658caa007444cc493bbf9b322e46a9e2d1e3d1b8338cd21e78487465d700000000",
  "memo": "",
  "confirmations": 257829,
  "hasAproxCreatedAt": false
}