{
  "id": "1fd43bb332e28ccb2a5220a7cee579b9b38d54f7cd3d48aa4cee7133a707b0f1",
  "accountId": "c5a8db54-9050-455d-8ce5-63f9acd54f2d",
  "network": "TestNet",
  "amountReceived": 18000,
  "amountSent": 0,
  "totalAmount": 18000,
  "totalFees": 2000,
  "isSend": false,
  "isReceive": true,
  "blockHeight": 2094475,
  "blockhash": "000000000000001c301efffb71183ac239a5cd16fcb13fb7505f95401f38ff10",
  "createdAt": 1631778841,
  "scriptPubKey": "0014d0c4a3ef09e997b6e99e397e518fe3e41a118ca1",
  "isRBF": false,
  "hex": "0200000000010200437da7015df25d0fb9922a9a62b5f47d980030b4f8faf8879f2e57043e37fd0000000000ffffffff80ba78f736ece2a6f89fcc5e528a6724fcc9640b74d70c4c403505ef5215d6780000000000ffffffff0210270000000000001600146fa016500a3c6a737ebb260e2ddca78ba9234558401f000000000000160014d0c4a3ef09e997b6e99e397e518fe3e41a118ca102473044022028b68fe74ca1d5456672f0c701aad7598e58b6ab3d24add8d9a2dabcfb6199e002205a088d781b64a188f0cbc05810ef013d265ac7f64499cb288a5c87f105c28ea5012102e7ab2537b5d49e970309aae06e9e49f36ce1c9febbd44ec8e0d1cca0b4f9c319024830450221008d71a06f3b5ea813828bb236f06e78183f0fc20a5c28b209f6201324c428993102204b8023636ea2bf01681a58d77dd4cef5e335b3bd71f477906ab11c3c7d6a0254012102e7ab2537b5d49e970309aae06e9e49f36ce1c9febbd44ec8e0d1cca0b4f9c31900000000",
  "memo": "",
  "confirmations": 99305,
  "hasAproxCreatedAt": false
}