{
  "id": "21e10637c786337363a79a7c5e27cedd369a39b86295bbda75d1c92a4bf0fcc0",
  "accountId": "c5a8db54-9050-455d-8ce5-63f9acd54f2d",
  "network": "TestNet",
  "amountReceived": 100000,
  "amountSent": 0,
  "totalAmount": 895480,
  "totalFees": 2260,
  "isSend": false,
  "isReceive": true,
  "blockHeight": 2190011,
  "blockhash": "00000000004e07cc5e8e5a308ef228c04c00f87c15011eb432d5dc183d1be51e",
  "createdAt": 1647416813,
  "scriptPubKey": "0014d0c4a3ef09e997b6e99e397e518fe3e41a118ca1",
  "isRBF": false,
  "hex": "01000000000101c15507cfea0b18bc829482cfd83b3f16a2d9474f8c0c747e2a9fa81d090013f10000000000ffffffff0258230c0000000000160014a843e706518658e10e7c158cb8ef293cbc1bb0c0a086010000000000160014d0c4a3ef09e997b6e99e397e518fe3e41a118ca10247304402200dbf3221623bf34e2b4b03af0c708730246eb616aa8cbdf27684cb4834f4ca3a0220406c8d923598cee4d5b4d7eaa4cc531f28d1ec333a5dc5c3a7caf9b968065b3d8121032ddcf36491641c7b0ad4a22046a479b6e827fd968687eed166e094214fa5be9500000000",
  "memo": "",
  "confirmations": 3769,
  "hasAproxCreatedAt": false
}