{
  "id": "240f8ef8e931a4582e74864e1e1aa1eabc0041876337943dde83b0ca9f168f96",
  "accountId": "c5a8db54-9050-455d-8ce5-63f9acd54f2d",
  "network": "TestNet",
  "amountReceived": 0,
  "amountSent": 2822,
  "totalAmount": 2822,
  "totalFees": 178,
  "isSend": false,
  "isReceive": false,
  "blockHeight": 1974321,
  "blockhash": "0000000000000001492de67d7397961636d5db1526702cb76503de1b1482cd76",
  "createdAt": 1620122414,
  "scriptPubKey": null,
  "isRBF": true,
  "sentScriptPubKey": "00140c7cdb22e93ac478db93fc17c6e1f5a0f6286f0d",
  "hex": "020000000001024c9637ccb08ea698d43225964a8b06af962570c14af9a6195a6c4eec0986354d0000000000fdffffff635434229d951e42b228701d5650a11f92b27ea9ebca1ae0656395d9def8049b0000000000fdffffff01060b0000000000001600140c7cdb22e93ac478db93fc17c6e1f5a0f6286f0d0247304402200d628a8a86e8caaf882df9da5f58d68c1f3c56c1ef3612544b0e19cb001a0158022055280294c75b577482dd902640015aaa0df482be6474d45acc2e8e2b5d3aee67012102e7ab2537b5d49e970309aae06e9e49f36ce1c9febbd44ec8e0d1cca0b4f9c319024730440220690e8b86f68abda1724250346801c87442fbee16911e1c859eed10d7524f8fc6022007ee4b1e9b420251977426617343de83504e984440520111ab92f1ac2937c080012102e7ab2537b5d49e970309aae06e9e49f36ce1c9febbd44ec8e0d1cca0b4f9c31930201e00",
  "memo": "",
  "confirmations": 219459,
  "hasAproxCreatedAt": false
}