{
  "id": "2612204d655b95bf03d1cfea411efbf7de5fde45a4ffb039c0d49caa675ac2ba",
  "accountId": "c5a8db54-9050-455d-8ce5-63f9acd54f2d",
  "network": "TestNet",
  "amountReceived": 10000,
  "amountSent": 0,
  "totalAmount": 2857306297,
  "totalFees": 141,
  "isSend": false,
  "isReceive": true,
  "blockHeight": 2131245,
  "blockhash": "000000005a7d116606bff77be8dd13abbc6ff709490cfeedb7115ea54bb9c8b2",
  "createdAt": 1639574665,
  "scriptPubKey": "00143c2f4802fefefeff3fe65d2afabce6e5edf35984",
  "isRBF": false,
  "hex": "02000000000101d33a014a322d0ec45e58a719d466287421a1be187d47bc63ae0ef4de7b32f5b40100000000feffffff02a9e14eaa0000000016001474a9dabe6ae97615d6a0c64732ce52d875b7506710270000000000001600143c2f4802fefefeff3fe65d2afabce6e5edf35984024730440220226b01105c960964ab0cab678ed5cb7ce28b10fb874376d73277101bc985741302207c0149f1cda5975a2db7b459c301ea8f6ef45269b416e2465580da01e48b53fd012103407620f98caf96ff9fe36b0aa4d74a6b376147bc67dd17f2184202ad468140cf2c852000",
  "memo": "",
  "confirmations": 62535,
  "hasAproxCreatedAt": false
}