{
  "id": "287e1643e61a9ea4a2046b4a09164041b80570e7213068398043268d266ab63e",
  "accountId": "c5a8db54-9050-455d-8ce5-63f9acd54f2d",
  "network": "TestNet",
  "amountReceived": 0,
  "amountSent": 89013,
  "totalAmount": 89013,
  "totalFees": 1287,
  "isSend": false,
  "isReceive": false,
  "blockHeight": 2192114,
  "blockhash": "00000000000000044baca9400b35c0c6f8f33a3eedede6c8fbdc9dbb6e77592b",
  "createdAt": 1648592482,
  "scriptPubKey": null,
  "isRBF": true,
  "sentScriptPubKey": "00140a7f5b65aa10e7b747bf3939b3615e633dae8908",
  "hex": "0200000000010c7f61455b7f1492b6d4caee162a0aebc6d6033d02e578febe9c93fa9879f440300100000000fdffffff44759a521aedfb6885ee1d3c49ccb59a18a3bd144cb8484a5ce937fbdb329d4a0100000000fdffffffb8d34d68fdce407080b487bf9710a6e41195cd8de396fa263e0da039db1712540100000000fdffffff219323e91658da99f665d70c285bcf4ce6b17414a5ed31cd1fa4035c39292f540100000000fdffffff6f9c2b5e40a101451c65f1b0329d5054e5ae0b187a713a716cc489016228875a0100000000fdffffffa2f4015341c3a35c3d5313be953581752262f23800260fd8b435b49771e2ff970100000000fdffffff8f3b54beddc4be71c0775b875c5fb8b1bef965504db8cb741ccd1d07ffa046980100000000fdffffffde8a0ab310055e306d04870dd4835bcd748eebd328eec4f54f2275e4fab9b3af0100000000fdffffff8800fa5f9b3fbf3b831673d48c168e958ca804199cd4e86592142eb7738e4cc00100000000fdffffff980bcea85e3de09c1ddae32cecec72b39657ba86d961e1aca526e6bbcdd55dc40100000000fdffffff5b99a773f3f00b2d893696f48c8c07dcef2f74b2037333139da9aed3122f19d60100000000fdffffff0072ebbd0e8bd2cc5b27ee9e6eba98148f08a3bba039624a12171915c39af7ff0100000000fdffffff01b55b0100000000001600140a7f5b65aa10e7b747bf3939b3615e633dae8908024730440220161e74f1a80f028078e425a7ed8545469f3c7cac1c590932d04d25e8b6236753022014e1a61030bd63a3c071704da508ab044562fb2e26c9d4ecbaa8d13fdbb900ce012102e7ab2537b5d49e970309aae06e9e49f36ce1c9febbd44ec8e0d1cca0b4f9c319024730440220463bd34169d5a6c6527ac52495aa8760628ecc1a083a7d2a517a64a7813559b9022074ab2d958043bf8ea5fc92d8f8041d439949886bd320c0db41ed4e0664974bb5012102e7ab2537b5d49e970309aae06e9e49f36ce1c9febbd44ec8e0d1cca0b4f9c3190247304402203501aef093a423171ec64befd78d58cca93538b167f391fe7e04e22cacf37e8c02203b99625b70b25f4f4a5b8e546b331bafb658d48d5e018077989dea281c11eb74012102e7ab2537b5d49e970309aae06e9e49f36ce1c9febbd44ec8e0d1cca0b4f9c3190247304402202d0c84485669e928d07afdf5b9e4a5dacbef63884abe80f4cfcd29976919d617022022c950ae5bee89f1094955029432911ac5e30117fd1730ebf66992b8f3dda467012102e7ab2537b5d49e970309aae06e9e49f36ce1c9febbd44ec8e0d1cca0b4f9c319024730440220732c55e39bcd7800db415ccefec605b7510887719346905344c64c3eca6621e002203d7294b9e0061bdac605cebbbb9e89a301f1cbcffcf2be339df5d64a0fbaf909012102e7ab2537b5d49e970309aae06e9e49f36ce1c9febbd44ec8e0d1cca0b4f9c319024730440220409bd3f436c0cef89d4539a0ec64531580109252d877ff3f66bad90de22d2cee02204ab8f9e60d4ae76a24680174a77a7fa2ae1acb5edddfb5f84ac61213ed200bec012102e7ab2537b5d49e970309aae06e9e49f36ce1c9febbd44ec8e0d1cca0b4f9c31902473044022024e9a2c0554f10401270b7b540a18005f486f494c7428a399fd2bac4ceca570d02202d405a24f8787033dd9965b06980d998e88a599d9e334795e2fc19c377703558012102e7ab2537b5d49e970309aae06e9e49f36ce1c9febbd44ec8e0d1cca0b4f9c3190247304402203619b621f5151b267b80ca6840b47ca13ac1a12a3a22cec02a950497c690ccb302205385c14c2f56701c999a72d7e72cacdae29a3da2b51869cd4e62cf95f23ece1e012102e7ab2537b5d49e970309aae06e9e49f36ce1c9febbd44ec8e0d1cca0b4f9c3190247304402204f934c87bcaaec86ffcce62e2fde205162726d291f64d3603f3dddf8ffa639bc02203900c159805a02c02d69c8ec1ae6cdee4c0cbf4aedcea198e42793775faccec0012102e7ab2537b5d49e970309aae06e9e49f36ce1c9febbd44ec8e0d1cca0b4f9c31902473044022024a42e5d6381e6f831a8b7ff9ed580c4fcc9a9739752258629ad4ca3f7b1197c022011ae4c660f3839d84b4653634dbe290ae35850d4caa4814b461b0c83a8f19b48012102e7ab2537b5d49e970309aae06e9e49f36ce1c9febbd44ec8e0d1cca0b4f9c3190247304402207cb6084b21ea12451ce766f50a4f01275cfe096e2993a2bbb3553dcea49fea0b02206749b91d8737dd7d69e69b709a9d2ec590dac34f19b06ce650042b16e1f0ece3012102e7ab2537b5d49e970309aae06e9e49f36ce1c9febbd44ec8e0d1cca0b4f9c3190247304402200b2a37b3a116ff584eb9e3e1190901cf159029f10a3158cd372fd7e54e40e4ef022015d3323a864132200ead831b136e9c528300b2878275df8f94bc3988a3e2fb5f012102e7ab2537b5d49e970309aae06e9e49f36ce1c9febbd44ec8e0d1cca0b4f9c319f0722100",
  "memo": "",
  "confirmations": 1666,
  "hasAproxCreatedAt": false
}