{
  "id": "29c7c4777c6133c0647b84291263ea921a91e6ff34b4498a788cd4c2eb1d9de3",
  "accountId": "c5a8db54-9050-455d-8ce5-63f9acd54f2d",
  "network": "TestNet",
  "amountReceived": 1000,
  "amountSent": 0,
  "totalAmount": 171254,
  "totalFees": 50420,
  "isSend": false,
  "isReceive": true,
  "blockHeight": 2163258,
  "blockhash": "00000000000000df87834da82458c9d7ec5ba68054e57732f0e825bf1cc219de",
  "createdAt": 1645510646,
  "scriptPubKey": "0014d0c4a3ef09e997b6e99e397e518fe3e41a118ca1",
  "isRBF": false,
  "hex": "01000000000101452728cb74d6681d9aa668b8d634c7d7970c7123df62f54d715e323e0f7ceca60000000000ffffffff020e990200000000001600147b55875d4b0e1b329d7f196e8bb20ccb6827ccefe803000000000000160014d0c4a3ef09e997b6e99e397e518fe3e41a118ca102483045022100e0ff741752a5056afbe761028829d827c901568178bbcd475971075ee483c0e40220481076911745fae84591c0a7a7a392b41f57a56789bf1e3a212b3e619e8e2b1a8121027dd8bc1aa7c502db343011f952ebc280cf2bdd90be198ab7fa009d48a3d293fb00000000",
  "memo": "",
  "confirmations": 30522,
  "hasAproxCreatedAt": false
}