{
  "id": "3040f47998fa939cbefe78e5023d03d6c6eb0a2a16eecad4b692147f5b45617f",
  "accountId": "c5a8db54-9050-455d-8ce5-63f9acd54f2d",
  "network": "TestNet",
  "amountReceived": 100,
  "amountSent": 0,
  "totalAmount": 117474,
  "totalFees": 2260,
  "isSend": false,
  "isReceive": true,
  "blockHeight": 2163341,
  "blockhash": "00000000178c6314762d1d37eee25455fda0558ff2d3abc3fb453564d4926644",
  "createdAt": 1645584486,
  "scriptPubKey": "0014d0c4a3ef09e997b6e99e397e518fe3e41a118ca1",
  "isRBF": false,
  "hex": "01000000000101980bcea85e3de09c1ddae32cecec72b39657ba86d961e1aca526e6bbcdd55dc40000000000ffffffff027eca0100000000001600147b55875d4b0e1b329d7f196e8bb20ccb6827ccef6400000000000000160014d0c4a3ef09e997b6e99e397e518fe3e41a118ca10248304502210080b699279258b2f02c8385cc431e7b01bb7a01650f1ba9fb31b52b56d20bd6330220517c15156e65438dc0cb9b5016c3953da1427b213b11863a0e22cfc1b62cbf968121027dd8bc1aa7c502db343011f952ebc280cf2bdd90be198ab7fa009d48a3d293fb00000000",
  "memo": "",
  "confirmations": 30439,
  "hasAproxCreatedAt": false
}