{
  "id": "37db190307b1cf9f8208e9d655a088d5399e827b6445b6398abd3a2eb27b90ad",
  "accountId": "c5a8db54-9050-455d-8ce5-63f9acd54f2d",
  "network": "TestNet",
  "amountReceived": 10000,
  "amountSent": 0,
  "totalAmount": 69320,
  "totalFees": 2260,
  "isSend": false,
  "isReceive": true,
  "blockHeight": 2192140,
  "blockhash": "000000000000f20f63ae28fcddc942648b5cacac199a04d55acf39e4e6161ecc",
  "createdAt": 1648606393,
  "scriptPubKey": "0014d0c4a3ef09e997b6e99e397e518fe3e41a118ca1",
  "isRBF": false,
  "hex": "010000000001015b99a773f3f00b2d893696f48c8c07dcef2f74b2037333139da9aed3122f19d60000000000ffffffff02b8e7000000000000160014a843e706518658e10e7c158cb8ef293cbc1bb0c01027000000000000160014d0c4a3ef09e997b6e99e397e518fe3e41a118ca10248304502210085374e79ccde1baabe7c0222cfb7812c17eeecca355bdbe4a2af4b5c4afe3725022012ba9a49a15c016ca3db8cf60c99e4b54a5af90f8074034cf4bfca736ec12c588121032ddcf36491641c7b0ad4a22046a479b6e827fd968687eed166e094214fa5be9500000000",
  "memo": "",
  "confirmations": 1640,
  "hasAproxCreatedAt": false
}