{
  "id": "3866aee5e9b4719066af763f95e67b75f3e84023aec218700899c6af967f6544",
  "accountId": "c5a8db54-9050-455d-8ce5-63f9acd54f2d",
  "network": "TestNet",
  "amountReceived": 0,
  "amountSent": 119750,
  "totalAmount": 119750,
  "totalFees": 250,
  "isSend": false,
  "isReceive": false,
  "blockHeight": 2136742,
  "blockhash": "0000000025c1e7826f5c0b5878f59c2562fe9f065109388d9712fb6fb9c15e16",
  "createdAt": 1642728802,
  "scriptPubKey": null,
  "isRBF": false,
  "sentScriptPubKey": "0014269a7224acf8a31f7be59efe7db8d9ba3a204ff6",
  "hex": "01000000000103902e0f0c8733be1085be545170e01ed2c2743266b46f49946141b05f3d196c400000000000ffffffff8e9337ceb2c92e7d3fc8a0db197506b65201553744102c8a64d8268bdf43ffc90000000000ffffffff207deb3faf9d2e172a44baab90a8d29c98a81674e420e49f0ec4658dc12d68ce0100000000ffffffff01c6d3010000000000160014269a7224acf8a31f7be59efe7db8d9ba3a204ff6024830450221009fd99c00169157cd4855f5aa833cbaabc9529991c9837c1278eca54faaef351402202a5064149510f2d154ca98fdbc321da5a8697a2f7b1c76af5bf06d91537ba0fe012102e7ab2537b5d49e970309aae06e9e49f36ce1c9febbd44ec8e0d1cca0b4f9c3190247304402200d22e586a8b805e5edb55cf0b3424a527c4b56ab030896452c4d2d79dbac430b02207e52e983c3b24845fbb5d6d5a10ada6f3756ac348b52f0152c32af51346ff093012103733372e169f02c8270306bb6116ace9548e91b5a7be609c7023cdd5b796b695202483045022100c7f114a8fbe46de475b67c915dee36e2367f76897943f534bffd13bcd3b3035102202df63d168444e864d25bf66ae3e68e787915640d78a943ff4b791cd6159e6560012102e7ab2537b5d49e970309aae06e9e49f36ce1c9febbd44ec8e0d1cca0b4f9c31900000000",
  "memo": "",
  "confirmations": 57038,
  "hasAproxCreatedAt": false
}