{
  "id": "406c193d5fb0416194496fb4663274c2d21ee0705154be8510be33870c0f2e90",
  "accountId": "c5a8db54-9050-455d-8ce5-63f9acd54f2d",
  "network": "TestNet",
  "amountReceived": 10000,
  "amountSent": 0,
  "totalAmount": 36415127208,
  "totalFees": 141,
  "isSend": false,
  "isReceive": true,
  "blockHeight": 2135918,
  "blockhash": "00000000000000460704ce8f08d9741a83e9031e3eb552e20312992ce59419a8",
  "createdAt": 1642208134,
  "scriptPubKey": "0014d0c4a3ef09e997b6e99e397e518fe3e41a118ca1",
  "isRBF": false,
  "hex": "02000000000101f9e2d569be80522e7a7b31f2cbe426e9f07c11027d958f088a69b5e5b9544caf0100000000feffffff021027000000000000160014d0c4a3ef09e997b6e99e397e518fe3e41a118ca19897827a0800000016001437a32912a68f0670d6d48c534b345e4d955a70cd02473044022046a15d7e372753417d703079b18beac21e5d2e4242a6c2e422b1f70433ae0528022016254f76bc42a946ca7f2e6cadd3223850039ae6d906b7790c43fc34044455260121020396a1088143d285fa54af6c415e66f4afc597cf47bc7c17ccb5e9db0e8816d13f972000",
  "memo": "",
  "confirmations": 57862,
  "hasAproxCreatedAt": false
}