{
  "id": "426769de85ed8f75fba5c6dc3487002e89c1ed0cd7ca72655ee79d2ecfa94068",
  "accountId": "c5a8db54-9050-455d-8ce5-63f9acd54f2d",
  "network": "TestNet",
  "amountReceived": 10000,
  "amountSent": 0,
  "totalAmount": 1791771,
  "totalFees": 1460,
  "isSend": false,
  "isReceive": true,
  "blockHeight": 1671023,
  "blockhash": "00000000000a55220ce645eb92ebae395151cc39f74679c6804b94116aecded7",
  "createdAt": 1585136725,
  "scriptPubKey": "00146fa016500a3c6a737ebb260e2ddca78ba9234558",
  "isRBF": true,
  "hex": "010000000001011a4b54cdc6280e7c2b6450e3ad534ed63e7087104de2e4f10a930896b83ca2770000000000ffffff000210270000000000001600146fa016500a3c6a737ebb260e2ddca78ba92345580b301b00000000001600142f34aa1cf00a53b055a291a03a7d45f0a6988b52024730440220422dba7deac1bc76aa409b291c3c2416ff43db01f95c644c7f4239565cdae9aa0220398bcc0e03bf860179cac5d58859ad767338e1f63473782718577cff247e96b7012102e7ab2537b5d49e970309aae06e9e49f36ce1c9febbd44ec8e0d1cca0b4f9c31900000000",
  "memo": "",
  "confirmations": 522757,
  "hasAproxCreatedAt": false
}