{
  "id": "43c4feef736380d62485eec8485c8f15245b83aa7e17c109cbd4dfd31489a58b",
  "accountId": "c5a8db54-9050-455d-8ce5-63f9acd54f2d",
  "network": "TestNet",
  "amountReceived": 86000,
  "amountSent": 0,
  "totalAmount": 86000,
  "totalFees": 1000,
  "isSend": false,
  "isReceive": true,
  "blockHeight": 1974228,
  "blockhash": "00000000d95fbb85675ef30475b9f56ee84f985c3b94806fc631be45ed2b164d",
  "createdAt": 1620059230,
  "scriptPubKey": "0014d0c4a3ef09e997b6e99e397e518fe3e41a118ca1",
  "isRBF": false,
  "hex": "02000000000101d695e95e8675b3fb7fdee69526031b9175b018460f170dd72b7d80328ed78db00100000000feffffff01f04f010000000000160014d0c4a3ef09e997b6e99e397e518fe3e41a118ca10347304402201aaba203ea4231b11559cd7abad7ce8a4b07eb0ce00a92c9308c9704adbabcc70220184880c5f16a6a6f7ad093f3c2a67b992f630a3770367dc4c80b7b6c624dd75201202bb80d537b1da3e38bd30361aa855686bde0eacd7162fef6a25fe97bf527a25b65a9140f29b5431fd985d12c6074072f98fd0ae7939d8887632102e7ab2537b5d49e970309aae06e9e49f36ce1c9febbd44ec8e0d1cca0b4f9c31967032f201eb175210256f451edcd30d091dc3133f3bcb2da16683a3227a200a04767d3ed02ca4b551168ac00000000",
  "memo": "",
  "confirmations": 219552,
  "hasAproxCreatedAt": false
}