{
  "id": "472666da6748c0c9fcdef10e813ea31c45fdcd87b9e8ea3e27e65ec55ee45234",
  "accountId": "c5a8db54-9050-455d-8ce5-63f9acd54f2d",
  "network": "TestNet",
  "amountReceived": 6747347,
  "amountSent": 0,
  "totalAmount": 6748166,
  "totalFees": 381,
  "isSend": false,
  "isReceive": true,
  "blockHeight": 1260262,
  "blockhash": "0000000000000164f46277d4f243c2f6a5809e1584918c11a571afa2b4091504",
  "createdAt": 1516801240,
  "scriptPubKey": "00146fa016500a3c6a737ebb260e2ddca78ba9234558",
  "isRBF": false,
  "hex": "01000000000102c251e256118d264f99704d1b603a3959de061eea1fed989e976c142980ec094a0100000000ffffffff2b499b0c04b26c4929cec8fbc6c891fb462db5c33804d280f9a3bf01f814cb970000000000ffffffff023303000000000000160014e184a0f363f4bf6afee6a5f30f25414921b230f3d3f46600000000001600146fa016500a3c6a737ebb260e2ddca78ba923455802483045022100a590468a5dfba84023e0043780383e2a40062e4e7d3bfa54b66fd1eb29861ae8022070f35c31bcb66349da8125a2ee0fd179d6b540e29b624cf73644dddc9ee6132e012103ca75065803d1b685056c301cf6453a0ce64d8aea8bc8cfe9ad793bf173fe1765024730440220447eaa38f6cdbe20783de21f5fdff4858e1dd24db332ea5f47c8f269c9bdfe6a022056f07d6ea3c7a7bfc2baab41ea7ff09e81a9752d2a8bc83e653ff6635d0e83e0012102ea37c812a00850cdeea3a5503a08c0338b8e6c09e9cd79bb07e3a971d5a1a33000000000",
  "memo": "",
  "confirmations": 933518,
  "hasAproxCreatedAt": false
}