{
  "id": "4a596b4c52ec3b8fc0ceaaa1b49d15413f4bdad15974c2efa1806c3223f03732",
  "accountId": "c5a8db54-9050-455d-8ce5-63f9acd54f2d",
  "network": "TestNet",
  "amountReceived": 79000,
  "amountSent": 0,
  "totalAmount": 5980988029,
  "totalFees": 141,
  "isSend": false,
  "isReceive": true,
  "blockHeight": 1972837,
  "blockhash": "000000003d6ee2b34d572aa224d69c62b23113df9f9d658ac5fc57e2c6595ad9",
  "createdAt": 1619500416,
  "scriptPubKey": "001424c28869dd0eae5e309e93cdfcc32e538ea04df1",
  "isRBF": false,
  "hex": "02000000000101df0e33ea09dda7c299309f72d535625bd7d79835d84f37a3776db6542630af420000000000feffffff02983401000000000016001424c28869dd0eae5e309e93cdfcc32e538ea04df1e56d7d6401000000160014f345c5f630df640db9e171a9a688b7f26f377e000247304402201fb184ad2a789fa189a6a22dbe1ceaef58f6e9aba2421d4436542f417d2c9f6402203535dd4a6cc59d202ff1fc29c3514c410c02a3f0dcb848b2c8e5b5ff29d9bf6d01210218d24f248c4f4b15a91b4265d70f5fb6a92788afb74cfdd2499d326c29a4b9ec641a1e00",
  "memo": "",
  "confirmations": 220943,
  "hasAproxCreatedAt": false
}