{
  "id": "4a9d32dbfb37e95c4a48b84c14bda3189ab5cc493c1dee8568fbed1a529a7544",
  "accountId": "c5a8db54-9050-455d-8ce5-63f9acd54f2d",
  "network": "TestNet",
  "amountReceived": 10000,
  "amountSent": 0,
  "totalAmount": 179660,
  "totalFees": 2260,
  "isSend": false,
  "isReceive": true,
  "blockHeight": 2192029,
  "blockhash": "00000000597c8cbbd8bc6a43ced3e71ae0563f6acb73daaaecbe361540c0971c",
  "createdAt": 1648542321,
  "scriptPubKey": "0014d0c4a3ef09e997b6e99e397e518fe3e41a118ca1",
  "isRBF": false,
  "hex": "01000000000101691477f2be5ad316e385d2c520835f1315e27c86330bef442aa6448c50da67510000000000ffffffff02bc96020000000000160014a843e706518658e10e7c158cb8ef293cbc1bb0c01027000000000000160014d0c4a3ef09e997b6e99e397e518fe3e41a118ca102483045022100e07a082017f2c0932b1973c396987ac3198d2aa91fc6f98297b5b4887a37293002202efea9ecd6d4e7c0018c8109fb0d5993d572abc2170a74f443fc139a636b4e578121032ddcf36491641c7b0ad4a22046a479b6e827fd968687eed166e094214fa5be9500000000",
  "memo": "",
  "confirmations": 1751,
  "hasAproxCreatedAt": false
}