{
  "id": "4acbc3c017c338b4639c41b96d2176955e3d7bf77624b04994235db1b02f28b2",
  "accountId": "c5a8db54-9050-455d-8ce5-63f9acd54f2d",
  "network": "TestNet",
  "amountReceived": 0,
  "amountSent": 19818,
  "totalAmount": 19818,
  "totalFees": 182,
  "isSend": false,
  "isReceive": false,
  "blockHeight": 2192260,
  "blockhash": "0000000035e5d8d33740e9b505795158b613e1268bc6c661859f4a148c5da98e",
  "createdAt": 1648670410,
  "scriptPubKey": null,
  "isRBF": false,
  "sentScriptPubKey": "0014269a7224acf8a31f7be59efe7db8d9ba3a204ff6",
  "hex": "01000000000102064beec1dbbad1dfbce3497dc00aad0868db55fadbdb6f21b1a78e2967b285570100000000ffffffffad907bb22e3abd8a39b645647b829e39d588a055d6e908829fcfb1070319db370100000000ffffffff016a4d000000000000160014269a7224acf8a31f7be59efe7db8d9ba3a204ff60248304502210091f2e0e232b5833d7926f0a3dee09fd6b74891143bbb7614938785fb3d4c802e02204c54b358ad7b08ac765ea9c054e852a6ded9246084cd32d786bfd68f46b92e63012102e7ab2537b5d49e970309aae06e9e49f36ce1c9febbd44ec8e0d1cca0b4f9c31902473044022041eeab3442f838348153ea3714cff1ec6d7f148c75ef6d5b6e6693cf038e529302201f0e91a9ca54a1bbaf5bf598c4bd7014c7326d8cff464508e3b8c67b58650873012102e7ab2537b5d49e970309aae06e9e49f36ce1c9febbd44ec8e0d1cca0b4f9c31900000000",
  "memo": "",
  "confirmations": 1520,
  "hasAproxCreatedAt": false
}