{
  "id": "4d358609ec4e6c5a19a6f94ac1702596af068b4a962532d498a68eb0cc37964c",
  "accountId": "c5a8db54-9050-455d-8ce5-63f9acd54f2d",
  "network": "TestNet",
  "amountReceived": 2000,
  "amountSent": 0,
  "totalAmount": 2000,
  "totalFees": 200,
  "isSend": false,
  "isReceive": true,
  "blockHeight": 1974319,
  "blockhash": "000000000000001a18d7c347ad2221b50b05dcf6df7dc3b1ee5ef4679a57841d",
  "createdAt": 1620120411,
  "scriptPubKey": "0014d0c4a3ef09e997b6e99e397e518fe3e41a118ca1",
  "isRBF": false,
  "hex": "0200000000010112c04fee697526beaa0ffd0a2d21d0179f3e8f3c3245503ab532da7b5087c2720000000000feffffff01d007000000000000160014d0c4a3ef09e997b6e99e397e518fe3e41a118ca103483045022100b637d4f2497b4f12198ecbff65712a712924edd0f99d2680b6b5cc6a8470c83c022002977d6e8befed2169c73849570312d16430f64b1589378338d7a440c22a233b01202bb80d537b1da3e38bd30361aa855686bde0eacd7162fef6a25fe97bf527a25b65a9140f29b5431fd985d12c6074072f98fd0ae7939d8887632102e7ab2537b5d49e970309aae06e9e49f36ce1c9febbd44ec8e0d1cca0b4f9c31967032f201eb175210256f451edcd30d091dc3133f3bcb2da16683a3227a200a04767d3ed02ca4b551168ac00000000",
  "memo": "",
  "confirmations": 219461,
  "hasAproxCreatedAt": false
}