{
  "id": "5167da508c44a62a44ef0b33867ce215135f8320c5d285e316d35abef2771469",
  "accountId": "c5a8db54-9050-455d-8ce5-63f9acd54f2d",
  "network": "TestNet",
  "amountReceived": 100000,
  "amountSent": 0,
  "totalAmount": 281920,
  "totalFees": 2260,
  "isSend": false,
  "isReceive": true,
  "blockHeight": 2190024,
  "blockhash": "0000000000000081d75c0d8a3876a8bab38e630e81f4ee088b02d346525c53f6",
  "createdAt": 1647422023,
  "scriptPubKey": "0014d0c4a3ef09e997b6e99e397e518fe3e41a118ca1",
  "isRBF": false,
  "hex": "01000000000101636b98e91f7e8647990ca25a2f8a8675bf4f79b3b4d10a47c9173ff8e87f4dfe0000000000ffffffff02a0c6020000000000160014a843e706518658e10e7c158cb8ef293cbc1bb0c0a086010000000000160014d0c4a3ef09e997b6e99e397e518fe3e41a118ca1024730440220227b977a7859f9ab7dca8ad0f7fd98705392fc41ec1c6ab12af973c4fbcb9686022070459d6c836b8430eeee4c0250e5e02e411e37e0ebf1cee60217a4622314f1088121032ddcf36491641c7b0ad4a22046a479b6e827fd968687eed166e094214fa5be9500000000",
  "memo": "",
  "confirmations": 3756,
  "hasAproxCreatedAt": false
}