{
  "id": "542f29395c03a41fcd31eda51474b1e64ccf5b280cd765f699da5816e9239321",
  "accountId": "c5a8db54-9050-455d-8ce5-63f9acd54f2d",
  "network": "TestNet",
  "amountReceived": 10000,
  "amountSent": 0,
  "totalAmount": 93840,
  "totalFees": 2260,
  "isSend": false,
  "isReceive": true,
  "blockHeight": 2192030,
  "blockhash": "00000000097fb9744aba1b5b9afea109ddf6b0e006dbfac49749b25a6f452b7a",
  "createdAt": 1648543523,
  "scriptPubKey": "0014d0c4a3ef09e997b6e99e397e518fe3e41a118ca1",
  "isRBF": false,
  "hex": "01000000000101de8a0ab310055e306d04870dd4835bcd748eebd328eec4f54f2275e4fab9b3af0000000000ffffffff028047010000000000160014a843e706518658e10e7c158cb8ef293cbc1bb0c01027000000000000160014d0c4a3ef09e997b6e99e397e518fe3e41a118ca10247304402201c86a7db2698432a71dd11c46e949def12ef9ae7d3063613b71bc93a607631d4022008afd9d5b516205186a7349c8649fd8073886a95c0955ee229ea8a2ff4e843fe8121032ddcf36491641c7b0ad4a22046a479b6e827fd968687eed166e094214fa5be9500000000",
  "memo": "",
  "confirmations": 1750,
  "hasAproxCreatedAt": false
}