{
  "id": "5a8728620189c46c713a717a180baee554509d32b0f1651c4501a1405e2b9c6f",
  "accountId": "c5a8db54-9050-455d-8ce5-63f9acd54f2d",
  "network": "TestNet",
  "amountReceived": 10000,
  "amountSent": 0,
  "totalAmount": 155140,
  "totalFees": 2260,
  "isSend": false,
  "isReceive": true,
  "blockHeight": 2192029,
  "blockhash": "00000000597c8cbbd8bc6a43ced3e71ae0563f6acb73daaaecbe361540c0971c",
  "createdAt": 1648542321,
  "scriptPubKey": "0014d0c4a3ef09e997b6e99e397e518fe3e41a118ca1",
  "isRBF": false,
  "hex": "01000000000101a2f4015341c3a35c3d5313be953581752262f23800260fd8b435b49771e2ff970000000000ffffffff02f436020000000000160014a843e706518658e10e7c158cb8ef293cbc1bb0c01027000000000000160014d0c4a3ef09e997b6e99e397e518fe3e41a118ca1024730440220348fdfc16339c076492f2fecf37aaadce06b5855382af2cdda836a231e4d78b3022022d323fe9ea1f111125fd627eff5b06ab826c9433c49cb4d11ba4486a330b7628121032ddcf36491641c7b0ad4a22046a479b6e827fd968687eed166e094214fa5be9500000000",
  "memo": "",
  "confirmations": 1751,
  "hasAproxCreatedAt": false
}