{
  "id": "5b0ef462c8713ca40c6b03cb7dc8d60affae86edc0653f8b135fe667478c4141",
  "accountId": "c5a8db54-9050-455d-8ce5-63f9acd54f2d",
  "network": "TestNet",
  "amountReceived": 0,
  "amountSent": 9890,
  "totalAmount": 9890,
  "totalFees": 110,
  "isSend": false,
  "isReceive": false,
  "blockHeight": 2131259,
  "blockhash": "00000000000000f8264c21707b51c90dc0eccd790a8f51949748b0c8c5e809a9",
  "createdAt": 1639581089,
  "scriptPubKey": null,
  "isRBF": true,
  "sentScriptPubKey": "001428efdda30c4c9250178279ab05a2cce52187cc43",
  "hex": "02000000000101bac25a67aa9cd4c039b0ffa445de5fdef7fb1e41eacfd103bf955b654d2012260100000000fdffffff01a22600000000000016001428efdda30c4c9250178279ab05a2cce52187cc43024730440220110dbb97192535fb2e631c7a9fabe9660cc2bcb7606deebd6714cd11244db443022053552741130135f9465e8d2331943d73556cb32d28f5dac0872e6f43578023050121030eb9e31da15b2e9d95138e1926e7ee90ef9c3312a7a95d74f169e34f1c0177833a852000",
  "memo": "",
  "confirmations": 62521,
  "hasAproxCreatedAt": false
}