{
  "id": "5d3613d0a4e9f713f32a676188b8bc22b0cd10ebe6893fa65cb1d27695286880",
  "accountId": "c5a8db54-9050-455d-8ce5-63f9acd54f2d",
  "network": "TestNet",
  "amountReceived": 99889,
  "amountSent": 0,
  "totalAmount": 99889,
  "totalFees": 111,
  "isSend": false,
  "isReceive": true,
  "blockHeight": 2034939,
  "blockhash": "000000000000000545dcd20f7ded51e205a35bae1cd0ef75a082188bde59002a",
  "createdAt": 1626523913,
  "scriptPubKey": "00141fa1866dfe5f5ff68be3ddbc39ef05fda34d13a3",
  "isRBF": true,
  "hex": "02000000000101db26b3422cc08cb748685d4f54a40e2a3a0c4922dc1cd5eaa88406f316a875530000000000fdffffff0131860100000000001600141fa1866dfe5f5ff68be3ddbc39ef05fda34d13a30247304402206edc52f23ee3b9d9d6b45a3d1ed8d7697df345c163d94bba8bd47206392ec1e002205f78d848f4c802ed0ea525a542e683606b2a3e7f9f4f242c80b6fd2132b32e10012102a20df53c3fdfd69918fbc3f9a98936ddadeeabcbc963658f236a2227e96a31a800000000",
  "memo": "",
  "confirmations": 158841,
  "hasAproxCreatedAt": false
}