{
  "id": "5fa3cffef5beec913e700b1315b1940d079410898cf9ce672dbb65b138fd275b",
  "accountId": "c5a8db54-9050-455d-8ce5-63f9acd54f2d",
  "network": "TestNet",
  "amountReceived": 0,
  "amountSent": 29888,
  "totalAmount": 29888,
  "totalFees": 112,
  "isSend": false,
  "isReceive": false,
  "blockHeight": 1933360,
  "blockhash": "0000000000000031d04d8279e631d2fc4b71345ab96c63bcf50cfdff348526f0",
  "createdAt": 1612421100,
  "scriptPubKey": null,
  "isRBF": false,
  "sentScriptPubKey": "0014269a7224acf8a31f7be59efe7db8d9ba3a204ff6",
  "hex": "010000000001013a9440ecf7dc4709394c296129334744ec05f4534ba55a0b3cab28f5edc9a5b40000000000ffffffff01c074000000000000160014269a7224acf8a31f7be59efe7db8d9ba3a204ff60247304402202f796dee11b6b86c79e8b85ba541706039d7f208f52d31b7c9d35f56081e662802207021f009d6d95382d3d3b3108d43c1f823cf0579b48e9c49d0dec6dc556c6c23012103610008903596be72b0be7ed0dc9c2165fa6c82677ad77c706641a771a9bea2fd00000000",
  "memo": "",
  "confirmations": 260420,
  "hasAproxCreatedAt": false
}