{
  "id": "60701b07dd433839e8184bf4fbf0391dc5d774c61195116e9487b7178129afa7",
  "accountId": "c5a8db54-9050-455d-8ce5-63f9acd54f2d",
  "network": "TestNet",
  "amountReceived": 100000,
  "amountSent": 0,
  "totalAmount": 937094,
  "totalFees": 50420,
  "isSend": false,
  "isReceive": true,
  "blockHeight": 2163237,
  "blockhash": "00000000029ec93a3204df52afb74848a9f114eef490399cad4844732474d7bb",
  "createdAt": 1645497483,
  "scriptPubKey": "0014d0c4a3ef09e997b6e99e397e518fe3e41a118ca1",
  "isRBF": false,
  "hex": "01000000000101d5191cc480a963921a00739dfef61b19a0bb66c3f0742f9bafc10bbf69055f700100000000ffffffff02e6c50c00000000001600147b55875d4b0e1b329d7f196e8bb20ccb6827ccefa086010000000000160014d0c4a3ef09e997b6e99e397e518fe3e41a118ca102483045022100b63c2489e2758f33d0a24263de06d12da54f3257b629ede3a1a43922b99b552102200b138e4f64442ff0ad489da89f1773114aa2149ab76e37ccee42a2e747f241fb8121027dd8bc1aa7c502db343011f952ebc280cf2bdd90be198ab7fa009d48a3d293fb00000000",
  "memo": "",
  "confirmations": 30543,
  "hasAproxCreatedAt": false
}