{
  "id": "6781cabe260f493201ba1c9f4c6ea901a0cd5d3bfb17b3b317f4fb61ae1b0ef0",
  "accountId": "c5a8db54-9050-455d-8ce5-63f9acd54f2d",
  "network": "TestNet",
  "amountReceived": 9402,
  "amountSent": 0,
  "totalAmount": 9402,
  "totalFees": 220,
  "isSend": false,
  "isReceive": true,
  "blockHeight": 2035307,
  "blockhash": "0000000000000014e1d73df3c0ab701393e2ae4c6c0cde3c0ce5875deebb282e",
  "createdAt": 1626624164,
  "scriptPubKey": "0014d0c4a3ef09e997b6e99e397e518fe3e41a118ca1",
  "isRBF": true,
  "hex": "02000000000101aea30e3bb9a032d5cc96b8a1ba51fcd5450c8e1089bcc3fd66deac12b30a8ba60000000000fdffffff01ba24000000000000160014d0c4a3ef09e997b6e99e397e518fe3e41a118ca102483045022100d9ba56cfae4e90145dca1b731a8996860efac55649d474c1039137926f3935a702200fdc7738239a0adf79069f089c5ca9eaa33b3c025e4c481baa52daa81112d9d90121033023cfd76731e83942fe1747f7d3c1af65a848b93ad41e7d3c1eedbd5f324e0f00000000",
  "memo": "",
  "confirmations": 158473,
  "hasAproxCreatedAt": false
}