{
  "id": "725c85a0e5426a4ff853b995b19dcbef683ac048f869d0d897ffcf85f77b41ef",
  "accountId": "c5a8db54-9050-455d-8ce5-63f9acd54f2d",
  "network": "TestNet",
  "amountReceived": 0,
  "amountSent": 87240890,
  "totalAmount": 92777383,
  "totalFees": 10000,
  "isSend": true,
  "isReceive": false,
  "blockHeight": 1439006,
  "blockhash": "00000000000003ef3f5ece882d8dbc7c0e2a6ea81c02b7f9dcafdc2b9d76d294",
  "createdAt": 1539767907,
  "scriptPubKey": null,
  "isRBF": false,
  "sentScriptPubKey": "a914affa53441d8fcadbe552d13cdad61cde975e0c4487",
  "hex": "01000000000101081cbb4735a67125d830b28de5e4f5f5ef8cebfe40c48a329b5c2a51a1aebed60100000017160014e3508c79b0392fb2912a37d63de8e034822bb6f0ffffffff02ed7a540000000000160014b3910b705bdb9cc0765320fc4096e865e84ad2c8ba3033050000000017a914affa53441d8fcadbe552d13cdad61cde975e0c448702483045022100b68b981ee1e7ed03f70348b04be1845683cc1817a3c047887f7e47431d08c0e602203b5d31645d2cbb14d6bb9dcb0b7b36e2fcf159e40ba2e43fc1bb4d7b9939cb02012103ae2fdd5445018a41b0e9739d0f9f64d5cedbf16ba7e581ad74440d249aab517a00000000",
  "memo": "",
  "confirmations": 754774,
  "hasAproxCreatedAt": false
}