{
  "id": "77777451889f5653b24405c49be4d13bc6d53957adef53313e0311589f3c5ce0",
  "accountId": "c5a8db54-9050-455d-8ce5-63f9acd54f2d",
  "network": "TestNet",
  "amountReceived": 0,
  "amountSent": 136584500,
  "totalAmount": 136584500,
  "totalFees": 10000,
  "isSend": false,
  "isReceive": false,
  "blockHeight": 1446051,
  "blockhash": "000000000007ffab9439709da0a8b1bfdff84802a7b01f407c37ce4700ce9584",
  "createdAt": 1543580725,
  "scriptPubKey": null,
  "isRBF": false,
  "sentScriptPubKey": "a9142edacc916b46d13b0e8d1e40afb71e037f45c20b87",
  "hex": "01000000000105ef417bf785cfff97d8d069f848c03a68efcb9db195b953f84f6a42e5a0855c720000000000ffffffff760e23e56679c775be488839481f2ccd209c9ae5525258e731350b75297153940000000000ffffffff2d2cf0e45d22105f5e6979e262dde9c64dfb2ed2c3ac36c4e2c6d662a7dac60b0000000000fffffffffce4e190ba50b888a3b6056cbfb062550da026945f970ff38cd194b9a09d49840100000000ffffffff7b42981d779563def3cdd4c2fed0be7b1ccb326db1a5cf95365f3e543b70b5bf0000000000ffffffff01341d24080000000017a9142edacc916b46d13b0e8d1e40afb71e037f45c20b870247304402205de75c0e58b322e625af70111b47420a8d50c517763c0600197af384625950ad02201dc3a2e44182161efc0cd8250ccc3c59047d025de96e12b4797c1f40416994c6012103f37f9607be4661510885f4f960954dadfc0af91ea722fe2935ca39c1e54c29480247304402203f5633fbf3a04a705bdd2aee1bac379a20d1f9b5a4898827dba351477cd23ff602204f924d145330218afd6c4ee94978c6e5b98000ca0d56dbcdcfe435faf57b94ab012102e6c60079372951c3024a033ecf6584579ebf2f7927ae99c42633e805596f2935024730440220218d29897c990bbef30770da78fb0b8acf63b1758c551bb3fdeb1be6a8f2de9e02203d7077e3ffd62c444af5dc1fc3150af299b598014564e600e86802956644b0550121033adaeff018387bf52875cfd0a82ff29680f042e15010cb5b716b2976736698360247304402202b8c279f75d217f073fc474232802da80a1f2ff62c8500348ebdcfd916422247022079b64a487aa72e115be219d19689e3437f31c5ae963d3018ff96d21f80b63c470121028304f73220f0382dc0bebc4d36d7faa08e3daa707c6804baa2a3d703bb1a1d8102473044022019cea14d090094cefa0340528812bf7abcc4093b2db1c516ac0a4bdac3fb580f022039393785877d5f63fd641194924c229adf5250c9bb0c5f86e0979770461f494101210347122fe54cf188f1f75cf8e1d4c1c4c234128c5a1a7ce6d4948a15732232ccef00000000",
  "memo": "",
  "confirmations": 747729,
  "hasAproxCreatedAt": false
}