{
  "id": "77a23cb89608930af1e4e24d1087703ed64e53ade350642b7c0e28c6cd544b1a",
  "accountId": "c5a8db54-9050-455d-8ce5-63f9acd54f2d",
  "network": "TestNet",
  "amountReceived": 1793231,
  "amountSent": 0,
  "totalAmount": 8459356657,
  "totalFees": 82000,
  "isSend": false,
  "isReceive": true,
  "blockHeight": 1669468,
  "blockhash": "00000000000e67d565f464ba54876c61c1679cdaf741eac87ee5acbb4954136b",
  "createdAt": 1583849227,
  "scriptPubKey": "0014d0c4a3ef09e997b6e99e397e518fe3e41a118ca1",
  "isRBF": false,
  "hex": "02000000000101c55580331bac2f2f58c4ed4c56e2b98e57c05317862f89948c41a3836826c39400000000171600149257f5fb90606da9d2a4bab06763b5f0c7f15c7dfeffffff02cf5c1b0000000000160014d0c4a3ef09e997b6e99e397e518fe3e41a118ca1222d1cf80100000016001428d1aeababe1e742a8b2d1b7665ad34bdbb503c902473044022049cbd2c9e86bccf82cbc322e2b9a925329afdd91b97e35fcb4b0c9a53e0033640220633351cc7c1cdbf792c05ed62d9dd5a4b45fa0e197f05a919864a1ae0303a3ab012103240634b45b201380853caacaccab466c7177054ebd2273d06136b32ea95262e15b791900",
  "memo": "",
  "confirmations": 524312,
  "hasAproxCreatedAt": false
}