{
  "id": "786113d96eb52d5921d919e51c1d0054d3028a7ba8c589d1eca13fc0df73d512",
  "accountId": "c5a8db54-9050-455d-8ce5-63f9acd54f2d",
  "network": "TestNet",
  "amountReceived": 0,
  "amountSent": 1584,
  "totalAmount": 1584,
  "totalFees": 112,
  "isSend": false,
  "isReceive": false,
  "blockHeight": 1970112,
  "blockhash": "000000000000001701e31678fb3f7e949ad7d2e0befeef22067ba94c04011ee8",
  "createdAt": 1617637662,
  "scriptPubKey": null,
  "isRBF": false,
  "sentScriptPubKey": "0014269a7224acf8a31f7be59efe7db8d9ba3a204ff6",
  "hex": "010000000001019012cfd1a3d9a73be613fe457b3528931941a56a28e5e74b233556fe3551a6100000000000ffffffff013006000000000000160014269a7224acf8a31f7be59efe7db8d9ba3a204ff60247304402205a40788dcfcd2043bd3cda7021e5fd6ac3fea9734bdc3bbec5bf3a803f782f2302202b21e72f15e1da7049054435e423ccbd223d481d8793d8d21904c936136a84150121038d963a72ae8c5c2ca5a63f7fe39b2227216ed74bc4ac6b841dc6886817fb89c000000000",
  "memo": "",
  "confirmations": 223668,
  "hasAproxCreatedAt": false
}