{
  "id": "78d61552ef0535404c0cd7740b64c9fc24678a525ecc9ff8a6e2ec36f778ba80",
  "accountId": "c5a8db54-9050-455d-8ce5-63f9acd54f2d",
  "network": "TestNet",
  "amountReceived": 18000,
  "amountSent": 0,
  "totalAmount": 18000,
  "totalFees": 2000,
  "isSend": false,
  "isReceive": true,
  "blockHeight": 2094424,
  "blockhash": "000000000000000bd2f02c95b56f0920d2cd0e1feb66fe27634e92f401cc121c",
  "createdAt": 1631759033,
  "scriptPubKey": "00146fa016500a3c6a737ebb260e2ddca78ba9234558",
  "isRBF": false,
  "hex": "02000000000102d27ed611b1ef94148ec6fb9c592adf351c7f7f4d8de43da0520274adfb9f4ab60000000000ffffffff468cc46f74c4d4adeb1f5f90d2379942243f86aa9da00792362e6cfa76c174120000000000ffffffff021027000000000000160014d0c4a3ef09e997b6e99e397e518fe3e41a118ca1401f0000000000001600146fa016500a3c6a737ebb260e2ddca78ba92345580248304502210095f6a291f9f8ce289033907c0030f6a4d5035d6002c1118b7e5bd26ce95888ae02200bd496fc95fc43fdb28e53f6e397e10e069297f35529478bc3917aef2978c350012103eeed205a69022fed4a62a02457f3699b19c06bf74bf801acc6d9ae84bc16a9e102483045022100f12d75285a4fb14b0200f498752651f325a65e5e683eef18f3a0e9ee987f0cef02203e9939cc2997dbc6b977e6c06713c1490c92b6929045af14c8951e545a097935012103eeed205a69022fed4a62a02457f3699b19c06bf74bf801acc6d9ae84bc16a9e100000000",
  "memo": "",
  "confirmations": 99356,
  "hasAproxCreatedAt": false
}