{
  "id": "7caa0859e221d289d16ede182b1ebbb0563770d6a6f01df476ecfeb148c903f0",
  "accountId": "c5a8db54-9050-455d-8ce5-63f9acd54f2d",
  "network": "TestNet",
  "amountReceived": 10000,
  "amountSent": 0,
  "totalAmount": 403934,
  "totalFees": 50420,
  "isSend": false,
  "isReceive": true,
  "blockHeight": 2163255,
  "blockhash": "000000000000005919167b568e889be5baf787f8fe55df1f2cef02690cf28cae",
  "createdAt": 1645510223,
  "scriptPubKey": "0014d0c4a3ef09e997b6e99e397e518fe3e41a118ca1",
  "isRBF": false,
  "hex": "010000000001019be063603e8b6220fb5b72ec61f1c287f3b2a34e6caba7d8013d2845f064f5730000000000ffffffff02ce020600000000001600147b55875d4b0e1b329d7f196e8bb20ccb6827ccef1027000000000000160014d0c4a3ef09e997b6e99e397e518fe3e41a118ca102483045022100bf8c4d8628cc3e75f12914ddbdb97ef252f1ec41d4208894ee496fa04147bf970220488a52901aadcbea806fd8a8caa68190baefa16ebbce152de4df81fa60c265c08121027dd8bc1aa7c502db343011f952ebc280cf2bdd90be198ab7fa009d48a3d293fb00000000",
  "memo": "",
  "confirmations": 30525,
  "hasAproxCreatedAt": false
}