{
  "id": "7f587ca420c848244d76438bbdfe4a5d8d6c3bbf28952c415ad7fe768620bca1",
  "accountId": "c5a8db54-9050-455d-8ce5-63f9acd54f2d",
  "network": "TestNet",
  "amountReceived": 0,
  "amountSent": 200000,
  "totalAmount": 273998,
  "totalFees": 10000,
  "isSend": true,
  "isReceive": false,
  "blockHeight": 1453446,
  "blockhash": "0000000000413bb3c0249d43cbb0707aceb476844ff181b16556fe5b58372cc7",
  "createdAt": 1548070726,
  "scriptPubKey": null,
  "isRBF": false,
  "sentScriptPubKey": "a914affa53441d8fcadbe552d13cdad61cde975e0c4487",
  "hex": "010000000001018bf2b5069c81cdca36bfcb631180bbda56acf6584fa46e9661c57be69ce953d60000000000ffffffff02400d03000000000017a914affa53441d8fcadbe552d13cdad61cde975e0c44870e2101000000000016001431d439123779414a05807233daf92ac319c38f5a02483045022100a6ab50d4f4a67364824c439649666af23110155dd06c3f6d538612a887551aa802206adc04ef44095ef03348a920ad74467084cb0a5470949e5fcb2cceab1bc3cfee01210370cfa6506ef43a4a2d1c8738dab63e54750435078a312760d104657dbdad962c00000000",
  "memo": "",
  "confirmations": 740334,
  "hasAproxCreatedAt": false
}