{
  "id": "806c68d770ad03fcbcb4e94851ec7cc3f697d8d865a7d3cf33b4015a04ad5880",
  "accountId": "c5a8db54-9050-455d-8ce5-63f9acd54f2d",
  "network": "TestNet",
  "amountReceived": 9000,
  "amountSent": 0,
  "totalAmount": 38683679612,
  "totalFees": 141,
  "isSend": false,
  "isReceive": true,
  "blockHeight": 1972839,
  "blockhash": "00000000000000195196bf6a47e2316df1aee7adb0f0554230833b833e8d9da6",
  "createdAt": 1619501607,
  "scriptPubKey": "0014d0c4a3ef09e997b6e99e397e518fe3e41a118ca1",
  "isRBF": false,
  "hex": "0200000000010106c169e283fe81dd1bc06fd5d88505547f4d277854664c32b061646454a233ef0000000000feffffff0254f8b901090000001600142ffb4311344b4de3b2ecda1cf195193a528d0b392823000000000000160014d0c4a3ef09e997b6e99e397e518fe3e41a118ca102473044022076c83a3283080ce377998f290e911d2315e7bba4cff54c19ca359ed49763b4da022027407072b652cf87a9b3c6b936635c1f4e676d66c6310ae70b10fb59b56e14a001210285f7f6b30ed3bf0a71d66225e682d72e379e5e685bba7229d0ecd4c94594f675661a1e00",
  "memo": "",
  "confirmations": 220941,
  "hasAproxCreatedAt": false
}