{
  "id": "808f51472a76688dfd5c6b8e2507482d2129daa3b76ab2bb873ed6cee74d399a",
  "accountId": "c5a8db54-9050-455d-8ce5-63f9acd54f2d",
  "network": "TestNet",
  "amountReceived": 100000,
  "amountSent": 0,
  "totalAmount": 10464782,
  "totalFees": 164,
  "isSend": false,
  "isReceive": true,
  "blockHeight": 2095910,
  "blockhash": "00000000000000466db11e495984f4ead80cb8cc82fd7049ee134962afdbeec7",
  "createdAt": 1632404611,
  "scriptPubKey": "0014041493a0916d54174b4725bc4aa93d3e123a1781",
  "isRBF": false,
  "hex": "02000000000101b0b8469d077d599f3c244e94b3771da8e43a4f677be835622337e463585d01970000000017160014001de3e4a6fc54e2caa29c9dc7fdc3dd2ae227e0feffffff02a086010000000000160014041493a0916d54174b4725bc4aa93d3e123a17816e279e00000000001600147d69f8ee9616d16319f45e914cca42bdae57e084024730440220031d73f314f9ab8521d4464781fbe04e4d0da6e42d1153e659fed40f517f6f740220029c422b3006b0cf50766a1ded9df1d12ff7daeda368260446d01e6ddbd5b7c601210342d34132c557fba0dc117026493565bc53925570d04e25b9cb4e7aee0c3094c924fb1f00",
  "memo": "",
  "confirmations": 97870,
  "hasAproxCreatedAt": false
}