{
  "id": "8152ccc1bd33e8c7ec4611e01c41f527cde537cf0d02330873af1b0b48977c56",
  "accountId": "c5a8db54-9050-455d-8ce5-63f9acd54f2d",
  "network": "TestNet",
  "amountReceived": 3281842,
  "amountSent": 0,
  "totalAmount": 1360014550,
  "totalFees": 82009,
  "isSend": false,
  "isReceive": true,
  "blockHeight": 2003239,
  "blockhash": "000000000000009222d59a1ae2f15615019dd7cf53593139a75d09292e4a5a77",
  "createdAt": 1623042138,
  "scriptPubKey": "0014d0c4a3ef09e997b6e99e397e518fe3e41a118ca1",
  "isRBF": false,
  "hex": "02000000000101d08ab25f8a83247c30056613267960eb7dc43d69a54390ac88366f88af5ce06600000000171600141891ab25cf6f4db5ecdc2bc4b09f347257ddc36cfeffffff022419de5000000000160014fad91f55f8aa00108936a3fac5094fdf25669319b213320000000000160014d0c4a3ef09e997b6e99e397e518fe3e41a118ca1024730440220672095fc8fff9649dbe1516d278caac0aee3cbc62744b2aa6b8b3c0fd08ccc7a022007f11f33c0a87b4976516801c51da00b93fb6ccedc1e188f202811bf024f21a90121027ece44437634dae3f6bc400a3ec51bf2cfb6b1283f8cca0848f82ed59706c5c626911e00",
  "memo": "",
  "confirmations": 190541,
  "hasAproxCreatedAt": false
}