{
  "id": "8289b0d8563b4887aca76884073c1f7d10b4b8629a8ed2e802b793a038c34110",
  "accountId": "c5a8db54-9050-455d-8ce5-63f9acd54f2d",
  "network": "TestNet",
  "amountReceived": 0,
  "amountSent": 349528,
  "totalAmount": 349528,
  "totalFees": 250,
  "isSend": false,
  "isReceive": false,
  "blockHeight": 2035442,
  "blockhash": "000000000000001d84055d7059254d5e608103b8b996dc219fd0e84fdfca069e",
  "createdAt": 1626685306,
  "scriptPubKey": null,
  "isRBF": false,
  "sentScriptPubKey": "0014269a7224acf8a31f7be59efe7db8d9ba3a204ff6",
  "hex": "010000000001038068289576d2b15ca63f89e6eb10cdb022bcb88861672af313f7e9a4d013365d0000000000ffffffffef8833daf9eb799f20dd7d19c89f8aceccf66d4bcef66ce842ef179da88635eb0000000000ffffffff5a4f397e64c24aa83f20a09467c1839bc2c216884b902756bb28bf6b339c59fc0100000000ffffffff015855050000000000160014269a7224acf8a31f7be59efe7db8d9ba3a204ff602483045022100a5b61425746c541edbeed3e234a6e73326b271de54b9ce5756eaa2b10406439402201734e8051aefca53ee3f8a0d9deedb6875d530202f62f76da1417a97f8763757012103610008903596be72b0be7ed0dc9c2165fa6c82677ad77c706641a771a9bea2fd02483045022100b3d7ea878f1a746d3810ab1b3b7544008f85a9e5b834aca40f84b5bf83def143022072c05c5348bd05af263fef1206b0b9ef76c74e14d1d4905fec906f173f386f22012103bb5db212192d5b428c5db726aba21426d0a63b7a453b0104f2398326bca43fc202473044022068f6bcc9ac351ec8c5f936d1ed90882561f33c9e4f470e14a192e26f50bd7d82022023fff51f5e4c46e559dad252616e3cefbaaecc85fee82d8059672bb48d06cb1301210292ddba71871dd9515aac5f0f71e8acbc5db71fd5d816bdd62dd23448b608bbbb00000000",
  "memo": "",
  "confirmations": 158338,
  "hasAproxCreatedAt": false
}