{
  "id": "87ff85161e42516285ea0b11b96e361ab8c095ad0482a1631c5a8fa4a30a90f7",
  "accountId": "c5a8db54-9050-455d-8ce5-63f9acd54f2d",
  "network": "TestNet",
  "amountReceived": 501800,
  "amountSent": 0,
  "totalAmount": 501800,
  "totalFees": 713,
  "isSend": false,
  "isReceive": true,
  "blockHeight": 1261988,
  "blockhash": "0000000004de94a9bc1dea43e49dd72c49e2e056587bfbbe54fc6b65e1b0f62a",
  "createdAt": 1517670551,
  "scriptPubKey": "0014334924eaf46e806e86b3537a12f81595030d73a7",
  "isRBF": true,
  "hex": "0100000000010767d44539c7a789e1f927ae30e09a7514b489953f94bd8c96313dde5a62edd71f0000000017160014b51d3982008391fbfc626363162f8d4912d2025afdffffff67d44539c7a789e1f927ae30e09a7514b489953f94bd8c96313dde5a62edd71f0100000017160014b7d97fd2d68fedd011b0e8c158e2e0a5b3adb055fdffffff36bef6aecfcd6000203016dc105f74c6cb984ca042ccaa857c7fd999d15219350100000017160014b51d3982008391fbfc626363162f8d4912d2025afdffffff42bb7787c1b03bd9e976710d7859868e61bfec217780deb46546618893a42e3a0000000017160014b51d3982008391fbfc626363162f8d4912d2025afdffffff0749c55fd77f3f5e2e0a43daccd31e2c2655f016d7d2df38f8eb28886362894e00000000171600147b3738ab521ab0961a57307179c360feca70b217fdffffff0749c55fd77f3f5e2e0a43daccd31e2c2655f016d7d2df38f8eb28886362894e0100000017160014b51d3982008391fbfc626363162f8d4912d2025afdffffff581a2cbbe8a2c9e19790300bd6a19a052434ce83195f063f38dbed7f249685850000000017160014eaf93b3d4942fca0f800e37631ea181975d79a25fdffffff0128a8070000000000160014334924eaf46e806e86b3537a12f81595030d73a7024730440220024c438c2b59a054ddcceca9287ac2db50628e181a9fb9351ba4b4f6283ca01202202ef13932c652d1a99b564cf5eb88a01465e1140459148678f19e414e7ea1fa900121022e6e979545c86dc83cf6353e5c0540c8de8ac95d075252699421a506494d96ea0247304402206d8233e416554a3bee07ec93df1906210e173735b7c431a2e7436e48330e394702200e298ac15f04e3d13962f742f1522a0d5cbb7d23836083746ab4777c7dd5f7b3012102ddec9aaa758082dc2db2a155b6dcd2c853014664f39ffe14f38b6eff86d2486f0247304402200f6e31b953594921615af41c5779c2798347cae6f97115e77ed6e5f47bbca77f022058a81f1c6ae7bdb9452c291f29f0e533e8a0d05ca9ed1a5cce02fdd369b4de880121022e6e979545c86dc83cf6353e5c0540c8de8ac95d075252699421a506494d96ea02483045022100cd41886bdeb54d3f0457a677409e15938ef3247db42dc2f2e7e2c3de225d25f1022040207ca8a99c26e567099e06a47dcb53858d488338b2a54767b37f240c2bb55d0121022e6e979545c86dc83cf6353e5c0540c8de8ac95d075252699421a506494d96ea02483045022100b5d1ae96d0c06f273baa63ffe037d37796adb15f32978d8bd4656e1475c2aab902200e7f9a3a7011b85fbf8a3c06850d8273850ec1ba18f52a4e951f9ff993e4decf012102217e8a2b8f708e992c02a91780638a2a9f464a1c8a9bb7e64b94ccbe205b36660248304502210097a2e5aa99acce43af5e56bc25f819b75d02385510898ec305f72b51a18cbd1d022051a7ce427453dd20bbb16fb510fcd13381bf41d2448cda7ef6e70c1489a224a20121022e6e979545c86dc83cf6353e5c0540c8de8ac95d075252699421a506494d96ea0247304402203a38047db34f0db0a2c68613f8f23b385a81fb9af04c34aa1eb056183789a1cc02204b5e26b7a3b9c03cd6b2b4264c735e3fd52b09183c961a19b5a750d98c2cb6a40121022c70522971fd4bd90ff33a0e7477c65c5b22fba28daaa5f06255b35bb519faeba3411300",
  "memo": "",
  "confirmations": 931792,
  "hasAproxCreatedAt": false
}