{
  "id": "8e0c62dd7541e4c6fd8520499eb2f4f148dabdef310d8eb5a82daf845b024d01",
  "accountId": "c5a8db54-9050-455d-8ce5-63f9acd54f2d",
  "network": "TestNet",
  "amountReceived": 11000,
  "amountSent": 0,
  "totalAmount": 16854,
  "totalFees": 4068,
  "isSend": false,
  "isReceive": true,
  "blockHeight": 2164435,
  "blockhash": "000000000000672eb00b0bea4b65bc0ab7599d0e9bf15cddfb22d9b3a803134f",
  "createdAt": 1646199534,
  "scriptPubKey": "0014d0c4a3ef09e997b6e99e397e518fe3e41a118ca1",
  "isRBF": false,
  "hex": "0100000000010119017391baf279265797f285a38b379b631b3976b1435102da0820ab97a343c30000000000ffffffff02de160000000000001600147b55875d4b0e1b329d7f196e8bb20ccb6827cceff82a000000000000160014d0c4a3ef09e997b6e99e397e518fe3e41a118ca10247304402206c43f29839f4e716b102b6173cec7730a837b9c90fd0d6b49cfe7e667ce96017022064f39ffb3ff7c8739727abcfb1b4ac51244aa58b9795568fcd89f788dc603d858121027dd8bc1aa7c502db343011f952ebc280cf2bdd90be198ab7fa009d48a3d293fb00000000",
  "memo": "",
  "confirmations": 29345,
  "hasAproxCreatedAt": false
}