{
  "id": "90d4e91968eb49144628a7609e19d9b40a0f890da7d008c23b7493a5357e5bad",
  "accountId": "c5a8db54-9050-455d-8ce5-63f9acd54f2d",
  "network": "TestNet",
  "amountReceived": 30000,
  "amountSent": 0,
  "totalAmount": 3477225,
  "totalFees": 14100,
  "isSend": false,
  "isReceive": true,
  "blockHeight": 1935937,
  "blockhash": "000000005c7e879411235bf753b2dd6a678adbe8b40b60242c159d94325b2264",
  "createdAt": 1613290445,
  "scriptPubKey": "0014ae4a0a2fa69c198d6dfc33357f53761327636416",
  "isRBF": false,
  "hex": "010000000001013a9440ecf7dc4709394c296129334744ec05f4534ba55a0b3cab28f5edc9a5b40100000000ffffffff023075000000000000160014ae4a0a2fa69c198d6dfc33357f53761327636416b9993400000000001600143b55bc41676a9af4cd31bd0c01a4050e67b1b9d802483045022100810a1f7f6cbcee3cadee9f814d2066e32ea4c592b3aa4a58af3cdd6c033e04f7022007ccde2506632e21ef500021bca9b04c1d6f4fb087a605dc684a3fc5a0c609f40121024a116fdf74fedcda9cf00e4cb40cf39f5eb6fa2b9c209ee72ba5ff7955c84aa500000000",
  "memo": "",
  "confirmations": 257843,
  "hasAproxCreatedAt": false
}