{
  "id": "94537129750b3531e7585252e59a9c20cd2c1f48398848be75c77966e5230e76",
  "accountId": "c5a8db54-9050-455d-8ce5-63f9acd54f2d",
  "network": "TestNet",
  "amountReceived": 0,
  "amountSent": 200000000,
  "totalAmount": 204527783,
  "totalFees": 20000,
  "isSend": true,
  "isReceive": false,
  "blockHeight": 1439008,
  "blockhash": "000000000000021b4699e3e7964b48519922f2df0467430446cc4a45fdaefc67",
  "createdAt": 1539769547,
  "scriptPubKey": null,
  "isRBF": false,
  "sentScriptPubKey": "a914affa53441d8fcadbe552d13cdad61cde975e0c4487",
  "hex": "0100000000010c481168a6636d75000125e0d62158d953d72bb4a3eef7764762e64353da514cf201000000171600146c2e8710b5b40ee90a5905605cbff592b6e71e71ffffffff12962d4cd447bef4c1b33508744a2354d569819ad12a0d0298eb37f219f27bf3010000001716001438971f73930f6c141d977ac4fd4a727c854935b3ffffffff1cb8384f22fd5fbb1f28013cf9310e606d89914e47341567f41b02a9553f3652010000001716001438971f73930f6c141d977ac4fd4a727c854935b3ffffffff31832480bd7bee8df9623bd689d2fafd2dede2ccff409d6c10859f651f4d8c3c000000001716001438971f73930f6c141d977ac4fd4a727c854935b3ffffffff61e46ef02f2bdd47405978a2506681e51128da500873cb615063500984bf01da0200000000ffffffff8a837ff7cf5ff3bd73d2232e5b677eb431be287b536fa582b921a51bc8b4a1df00000000171600144d43faf6ef5e92d022788e25ee0097e23aa4276cffffffff03760a1def42fea5babf18f7fd070a759894edac0dc40fc299621e8d22bbe2e70200000017160014fed28dd4d5fe9c86d596aa7a4142553726625d94fffffffffba0f1f9de21d3da6d6d4941b31541b2e58bf2639e2178a25a02994ce11504d60100000000ffffffff342c10ffa0bcaf5a6b86b15e2c1a0cb3391484f76b9307621833035f969936610000000017160014eb250004cdc254f7e7c4b7c6ad044081f4d139b0ffffffffacf35da9d49f3e66dff584635ec332d8cda49ed286ef331f409d46a6b206ca9f0000000000ffffffff3c81b707216b5a1176f123e3766feb2da88ac0ed45b7474c0d20992eb799a225000000001716001464f73bda53d74405a4d1fb4a3de733a24ec95d5fffffffffe5b9d92e836b7c1611f2e150d72a233dfea1cedced3d47cf5b84eccf17abf4b5e2000000171600144d43faf6ef5e92d022788e25ee0097e23aa4276cffffffff02a716450000000000160014744c9993900c8e098d599b315a9f667777e4f82a00c2eb0b0000000017a914affa53441d8fcadbe552d13cdad61cde975e0c448702473044022013f98a1a1f633dd9e0815a1d083e1b905f50815d3d9bf5ef82d492dd44b543c9022055e60b29efd0b6d90e8c979559dcaee936b33f8e58f8e125c5ce85ccb4a1e748012102e2cb5fa5af4787ff9508296d5e055546449f95da515fa1b2fd6c48fe70a1e7ac02473044022074cca4ef287b75c3651639557a52f4539c08b5cb15f9aebeab619dcee39b691802201cd3f59f6d03671cfa583d4ac0d63dc86bf177543aba896bbe7985a1222e2eee012103a1af804ac108a8a51782198c2d034b28bf90c8803f5a53f76276fa69a4eae77f0247304402203f8e670bc84a30d259ffee469ef18cdd001a0cb31c36dec1215c0bc43b7b48ff022022196eaf371767ffd8433278fd6e050c9a488142c20f216f9bd62816e1af4a2c012103a1af804ac108a8a51782198c2d034b28bf90c8803f5a53f76276fa69a4eae77f02483045022100918adb9d8e08618007e3d309546dd5d004a04bfb59cfe54abdcdf2a5a58f585f02207fce66e67de3825d36e22c13b881f2ba789977d68ab467a03d1ba87a1d694b72012103a1af804ac108a8a51782198c2d034b28bf90c8803f5a53f76276fa69a4eae77f02473044022049d9be87e38fbfdca17ab3b3de26812f8c873c1b8a9cdfe1497f6256b52526cc02206bbf573e735091fbe032496e7adf0b11f19ed6c02f53d5c4d2466892d4ba666a012103bb5db212192d5b428c5db726aba21426d0a63b7a453b0104f2398326bca43fc202483045022100c950586dad56e9d0e92351cb5dcb68ab9826d9126cc58d6a4540de863bccd5be02206d9465216d2db1772a8d02dc8d2285ff4446bf07f9ab6827dd1be92b9fbcabe8012102cd026fcfe566c83502fbf73b94f6288357a6b5021a59989116b4621afbfe6467024730440220639a5787c811b7ff2e09d59315b99d9fc517fec8c1b6e5c9b9c1a16440cf6a4102207d97737c7e9bf9007dfbaf7997f60694d9ca29b2582ef50e6d6dc081ed2001ff012102dd3ff0129ed665e2f380f6129c070844feae0b74d15335e60d0c11f1febc449e02483045022100f364a803359b704f128c78155ced8ec463e95d9a65cd06dbda74439b37df1a890220588516d7d863a31ee8876a03c442d6cfb8c26eae1cf6567e47b1ab7076aa657e0121035d49eccd54d0099e43676277c7a6d4625d611da88a5df49bf9517a7791a777a50247304402204fdcf72fb78d2079b6669b9c86969f1c1b62ebf0867bd541746674c13e8969ef02203c11de1472e4bdba4cd1724959fec14b68684e23f4965c4f287c1c457c6674ef012102d2eace93888988e2ed19088137abb4ab2932c8145b4cb236bb4119c1116cd67e0248304502210098b82eebdbc9927080f9ac32a6f594827a6e0011f1b5869f6366970610a6f62e022029c10c305a5c68d2997a8e3bf7b6afba552530c9d8764d1aef216c9a9165eac0012102e7ab2537b5d49e970309aae06e9e49f36ce1c9febbd44ec8e0d1cca0b4f9c31902483045022100ec239bd88166311241a378c181f51f3dd8c39082243be8e57636728ce1edb90f02206e2458a33e1c1a5134b411a7cda48a4ee35861addc136f1649f77bb098da1cf30121034d82700bc493677818eb54aed7e30b19b1d81b294cbfb7714fc0ede3f9eacc7502483045022100c1056f428ae202a4ebfcf9388748c613c2e09fc1dbbe1901ded6a94a9bbadf820220468511c4585715bfd6541731aa3a0006f0aec5e188465f31af662335f7333a2c012102cd026fcfe566c83502fbf73b94f6288357a6b5021a59989116b4621afbfe646700000000",
  "memo": "",
  "confirmations": 754772,
  "hasAproxCreatedAt": false
}