{
  "id": "96e05e41ed10e907a64ea589de8d0f9d7fb2aaf859e9418cfff6c2277c4a209a",
  "accountId": "c5a8db54-9050-455d-8ce5-63f9acd54f2d",
  "network": "TestNet",
  "amountReceived": 40000,
  "amountSent": 0,
  "totalAmount": 49749,
  "totalFees": 141,
  "isSend": false,
  "isReceive": true,
  "blockHeight": 2137572,
  "blockhash": "0000000000706b466128e2d7da7c32e76df954d5c3fc3b999526b847a3376527",
  "createdAt": 1643150781,
  "scriptPubKey": "00141695cd2de135161207e3372ea111da2633222cb2",
  "isRBF": false,
  "hex": "02000000000101a14f419fddf22a22f74c491a3197dc6d780536c7a409a2b8385a52a08af394e90000000000feffffff02409c0000000000001600141695cd2de135161207e3372ea111da2633222cb2152600000000000016001490243b232ef836e182f43d68c1db85dffbc61b8302473044022021b86adca559a0d5f3109b77c5bedad970827824b3e9310ca47a122409eb04a50220445a6edafc824b4e4144817eeb18f34924e54c67259c07c50c9a310f9f851b73012102861cc299df005eb573d5390f6dce52548c63d28e430fb2e635f5532d8d1c0de6e39d2000",
  "memo": "",
  "confirmations": 56208,
  "hasAproxCreatedAt": false
}