{
  "id": "977b4ba28fbf1a2e5876d1daa040400bff57a5e37cecacbe87c593c35186781f",
  "accountId": "c5a8db54-9050-455d-8ce5-63f9acd54f2d",
  "network": "TestNet",
  "amountReceived": 0,
  "amountSent": 58640,
  "totalAmount": 99592,
  "totalFees": 408,
  "isSend": true,
  "isReceive": false,
  "blockHeight": 2163553,
  "blockhash": "00000000000000c76291faafadf59111c07c4896482e2b0c59bd9544ce5f4ce9",
  "createdAt": 1645690788,
  "scriptPubKey": null,
  "isRBF": true,
  "sentScriptPubKey": "5120fbdaee7bfdf2dc0cb29f758eee67d150d7660d9ea4242903f7efe06143b5681b",
  "hex": "010000000001012d472e3fa29cf297a940371409588c8f194d68e26f0351581de3c28547fb04120100000000fdffffff02f89f000000000000160014bf8d283f3712bab6470c79adf51b694e63c02dfd10e5000000000000225120fbdaee7bfdf2dc0cb29f758eee67d150d7660d9ea4242903f7efe06143b5681b024830450221008b520ec938fa05b2c9ccf1bbf04c383dd6a7f7e43184c70949a8c9c6597b1efd022019a72842a6dbbaded3ae28474226be75ad5a2dd83e53c1b59533d942bfd369f6012102e7ab2537b5d49e970309aae06e9e49f36ce1c9febbd44ec8e0d1cca0b4f9c31900000000",
  "memo": "",
  "confirmations": 30227,
  "hasAproxCreatedAt": false
}