{
  "id": "97ffe27197b435b4d80f260038f2622275813595be13533d5ca3c3415301f4a2",
  "accountId": "c5a8db54-9050-455d-8ce5-63f9acd54f2d",
  "network": "TestNet",
  "amountReceived": 10000,
  "amountSent": 0,
  "totalAmount": 167400,
  "totalFees": 2260,
  "isSend": false,
  "isReceive": true,
  "blockHeight": 2192029,
  "blockhash": "00000000597c8cbbd8bc6a43ced3e71ae0563f6acb73daaaecbe361540c0971c",
  "createdAt": 1648542321,
  "scriptPubKey": "0014d0c4a3ef09e997b6e99e397e518fe3e41a118ca1",
  "isRBF": false,
  "hex": "0100000000010144759a521aedfb6885ee1d3c49ccb59a18a3bd144cb8484a5ce937fbdb329d4a0000000000ffffffff02d866020000000000160014a843e706518658e10e7c158cb8ef293cbc1bb0c01027000000000000160014d0c4a3ef09e997b6e99e397e518fe3e41a118ca102483045022100a79fc85d324e3bea99d54791060a943308e7b939f115ce004d4b10473f9be2340220617ae1edf391d862e3643a59f34d832fb28b9f752b1d8d1e3f322cbd57f132728121032ddcf36491641c7b0ad4a22046a479b6e827fd968687eed166e094214fa5be9500000000",
  "memo": "",
  "confirmations": 1751,
  "hasAproxCreatedAt": false
}