{
  "id": "9846a0ff071dcd1c74cbb84d5065f9beb1b85f5c875b77c071bec4ddbe543b8f",
  "accountId": "c5a8db54-9050-455d-8ce5-63f9acd54f2d",
  "network": "TestNet",
  "amountReceived": 10000,
  "amountSent": 0,
  "totalAmount": 130620,
  "totalFees": 2260,
  "isSend": false,
  "isReceive": true,
  "blockHeight": 2192029,
  "blockhash": "00000000597c8cbbd8bc6a43ced3e71ae0563f6acb73daaaecbe361540c0971c",
  "createdAt": 1648542321,
  "scriptPubKey": "0014d0c4a3ef09e997b6e99e397e518fe3e41a118ca1",
  "isRBF": false,
  "hex": "01000000000101b8d34d68fdce407080b487bf9710a6e41195cd8de396fa263e0da039db1712540000000000ffffffff022cd7010000000000160014a843e706518658e10e7c158cb8ef293cbc1bb0c01027000000000000160014d0c4a3ef09e997b6e99e397e518fe3e41a118ca102483045022100d1abc7eeafe4a62c1ac03579f17fb6f91e515bb758caa9020f576619852789160220130013d34fbcac2bc060f127350fcaaa6c160e0ec1f1767ee9066baa8f9166fc8121032ddcf36491641c7b0ad4a22046a479b6e827fd968687eed166e094214fa5be9500000000",
  "memo": "",
  "confirmations": 1751,
  "hasAproxCreatedAt": false
}