{
  "id": "9a44ab92728456c857faf8445f6599225f0321fb26893cfb02182d658c37d97e",
  "accountId": "c5a8db54-9050-455d-8ce5-63f9acd54f2d",
  "network": "TestNet",
  "amountReceived": 100000,
  "amountSent": 0,
  "totalAmount": 1173641,
  "totalFees": 164,
  "isSend": false,
  "isReceive": true,
  "blockHeight": 1934279,
  "blockhash": "0000000000000033dcc1a80e50c063092ececc19c9909da2f35fa2418d08d3db",
  "createdAt": 1612693411,
  "scriptPubKey": "0014d0c4a3ef09e997b6e99e397e518fe3e41a118ca1",
  "isRBF": false,
  "hex": "0200000000010188d0fea211844bce593f231198fd58f47e6439942ed095a4a2d48967efa7925101000000171600148fdda4800209fde613e200e3e8c1194eacc763c7feffffff02e96110000000000016001453d77161c6a119113d78c89f71068d1384c63c75a086010000000000160014d0c4a3ef09e997b6e99e397e518fe3e41a118ca102473044022068d01208d24e9e1a0f1dad405eeb3994e0033513b389943815799c7ea1e92877022027f59d3c04daa175fb1228f87b825bf686ffb8a2b07ea2c1d1da651ae0a09a17012102f83d02bee0f0e921c612086972f91ef0e17fca8d35fbfcbdd3eee68898484f58c6831d00",
  "memo": "",
  "confirmations": 259501,
  "hasAproxCreatedAt": false
}