{
  "id": "9a721346546e4022ae9cfe534ef6c32916cc2830f1635e3b68edc16ca5b9e944",
  "accountId": "c5a8db54-9050-455d-8ce5-63f9acd54f2d",
  "network": "TestNet",
  "amountReceived": 0,
  "amountSent": 20000,
  "totalAmount": 89704,
  "totalFees": 142,
  "isSend": true,
  "isReceive": false,
  "blockHeight": 1934292,
  "blockhash": "00000000000000293812138cbb459264267e946d9f3ce0da85ade83d6989c851",
  "createdAt": 1612697238,
  "scriptPubKey": null,
  "isRBF": true,
  "sentScriptPubKey": "00143fa3d012fb9ab84cc75a99dc4cf179338eae2a30",
  "hex": "02000000000101cad3149d65bc41185ce86d45adc755821dcec8eaca7e7a2694bd95ff5daa64ac0100000000fdffffff0248100100000000001600145337d7bd6d520bffb8f7774f32447ef546b5fbb9204e0000000000001600143fa3d012fb9ab84cc75a99dc4cf179338eae2a3002483045022100916e624af3367ed1fb1462e682f501609b8024777d52150f220dcc7274376382022079d833ae881b9ee6baff9b56ef599fb4a9c19985800d02504506a6f79de9d3af0121035d49eccd54d0099e43676277c7a6d4625d611da88a5df49bf9517a7791a777a500000000",
  "memo": "",
  "confirmations": 259488,
  "hasAproxCreatedAt": false
}