{
  "id": "9b04f8ded9956365e01acaeba97eb2921fa150561d7028b2421e959d22345463",
  "accountId": "c5a8db54-9050-455d-8ce5-63f9acd54f2d",
  "network": "TestNet",
  "amountReceived": 1000,
  "amountSent": 0,
  "totalAmount": 1000,
  "totalFees": 200,
  "isSend": false,
  "isReceive": true,
  "blockHeight": 1974228,
  "blockhash": "00000000d95fbb85675ef30475b9f56ee84f985c3b94806fc631be45ed2b164d",
  "createdAt": 1620059230,
  "scriptPubKey": "0014d0c4a3ef09e997b6e99e397e518fe3e41a118ca1",
  "isRBF": false,
  "hex": "0200000000010193b3387341279dbd8cf7273b2cf0c1ade89c359fc8551792e70625c7da9388360000000000feffffff01e803000000000000160014d0c4a3ef09e997b6e99e397e518fe3e41a118ca10347304402206154d317ead153c9cf91ce79a59868ac833ced648665a2e6f58e3381ec39d39502204a376cbd5db3781ed89d57d4bcd89bf4c34a0de95dc67cba6ad281b40a626cb801202bb80d537b1da3e38bd30361aa855686bde0eacd7162fef6a25fe97bf527a25b65a9140f29b5431fd985d12c6074072f98fd0ae7939d8887632102e7ab2537b5d49e970309aae06e9e49f36ce1c9febbd44ec8e0d1cca0b4f9c31967032f201eb175210256f451edcd30d091dc3133f3bcb2da16683a3227a200a04767d3ed02ca4b551168ac00000000",
  "memo": "",
  "confirmations": 219552,
  "hasAproxCreatedAt": false
}