{
  "id": "9b073f92ee6009a160cf21cec9929df4186e53b2b0f0cd919ab99a18e4f9a88e",
  "accountId": "c5a8db54-9050-455d-8ce5-63f9acd54f2d",
  "network": "TestNet",
  "amountReceived": 0,
  "amountSent": 6747237,
  "totalAmount": 6747237,
  "totalFees": 110,
  "isSend": false,
  "isReceive": false,
  "blockHeight": 1260300,
  "blockhash": "000000000000040bc8ad8afc07e25dae0c9657d6aef33e1208386e988b7b2561",
  "createdAt": 1516823466,
  "scriptPubKey": null,
  "isRBF": true,
  "sentScriptPubKey": "0014aa4e900422a74b2a8d3065f8be6c840e35f533a2",
  "hex": "010000000001013452e45ec55ee6273eeae8b987cdfd451ca33e810ef1defcc9c04867da6626470100000000fdffffff0165f4660000000000160014aa4e900422a74b2a8d3065f8be6c840e35f533a20248304502210088736d7386a9a0dfebac6cf152753f35fae57bd4d84626fd56e973e689d67a6202205f8ba158053fdf40b5c3570eb7f7e0e53332d9ed5d88b82bed47adcc52f4bbbb012103eeed205a69022fed4a62a02457f3699b19c06bf74bf801acc6d9ae84bc16a9e10b3b1300",
  "memo": "",
  "confirmations": 933480,
  "hasAproxCreatedAt": false
}