{
  "id": "a24d6fe335549e92ffd20ed15d21dc8c8adae7101eec59f42d3a2963850aede0",
  "accountId": "c5a8db54-9050-455d-8ce5-63f9acd54f2d",
  "network": "TestNet",
  "amountReceived": 0,
  "amountSent": 100000,
  "totalAmount": 115718,
  "totalFees": 282,
  "isSend": true,
  "isReceive": false,
  "blockHeight": 2095919,
  "blockhash": "000000000000003ad1c9ad93354353a9cb5ade3c46fff9d6aa56a11cc58d5d21",
  "createdAt": 1632409229,
  "scriptPubKey": null,
  "isRBF": false,
  "sentScriptPubKey": "76a9148952d9d69aa6f734fe66fc5a1fdfad22a7f943b988ac",
  "hex": "010000000001038c757193cf41a7a8b657829a0bda0f5b2f6c08a430796583d2f96969aaeddf390100000000ffffffff9a394de7ced63e87bbb26ab7a3da29212d4807258e6b5cfd8d68762a47518f800000000000ffffffff6cb2643385727d7382c8b28792e35716485544465ab2ad0fca97178cd19e4e160000000000ffffffff02a0860100000000001976a9148952d9d69aa6f734fe66fc5a1fdfad22a7f943b988ac663d000000000000160014d6c243680c60797b21fc2a41e6b7ffbe84380c2e0247304402204525399b255eee128d7d969188b4cd13828ee8ef0a15291f4fa6d0cb4a5dcd5b02207bdd895b1cf093f4960027adb1cd8357749b45b10a3eb681c57391900d338c4f012102dde6c72fef483048696097ff6ad96092a496d22b03ee69fc18e8806d4872f91e0247304402201e8f640267a64d447288c96012aaa11c51bc504c150f2f2bdb45fc95e57f79000220092ea9d75e790fad0769273c3e06ba4f6cfd6b46d6c9387a022f918c86728273012102dde6c72fef483048696097ff6ad96092a496d22b03ee69fc18e8806d4872f91e02483045022100dc6271e834a71ff8e863d93232ec6747f198de28cfd57658d2551977c394ce6802206c692944fc6d1b353206dcc5def8541a4bb75d0e8d001096ae6e0a7b1d9812a70121022f590a1f42418c86daede01666b0ba1b388096541fdd90899cee35102509dd0c00000000",
  "memo": "",
  "confirmations": 97861,
  "hasAproxCreatedAt": false
}