{
  "id": "a2b83ee25b0cbdd032b3b6a3b2ef7b3ebeba7b55f1b0f50a9b8f7e7e4d7cf43d",
  "accountId": "c5a8db54-9050-455d-8ce5-63f9acd54f2d",
  "network": "TestNet",
  "amountReceived": 100000,
  "amountSent": 0,
  "totalAmount": 735614,
  "totalFees": 50420,
  "isSend": false,
  "isReceive": true,
  "blockHeight": 2163253,
  "blockhash": "0000000000000138e0bfe2cacd5b1bee79cfabb900282ae035e8464e5fd9fad6",
  "createdAt": 1645509028,
  "scriptPubKey": "0014d0c4a3ef09e997b6e99e397e518fe3e41a118ca1",
  "isRBF": false,
  "hex": "010000000001012d472e3fa29cf297a940371409588c8f194d68e26f0351581de3c28547fb04120000000000ffffffff02deb20900000000001600147b55875d4b0e1b329d7f196e8bb20ccb6827ccefa086010000000000160014d0c4a3ef09e997b6e99e397e518fe3e41a118ca102483045022100d474ace9a3a67ff136b38cb9529c850afe7b579161170690231bc68ce1a6bf86022002b11fbce9b0c64809416ea56634eb92a6c98dd268654a246ddd7328cc8e97038121027dd8bc1aa7c502db343011f952ebc280cf2bdd90be198ab7fa009d48a3d293fb00000000",
  "memo": "",
  "confirmations": 30527,
  "hasAproxCreatedAt": false
}