{
  "id": "afb3b9fae475224ff5c4ee28d3eb8e74cd5b83d40d87046d305e0510b30a8ade",
  "accountId": "c5a8db54-9050-455d-8ce5-63f9acd54f2d",
  "network": "TestNet",
  "amountReceived": 10000,
  "amountSent": 0,
  "totalAmount": 106100,
  "totalFees": 2260,
  "isSend": false,
  "isReceive": true,
  "blockHeight": 2192030,
  "blockhash": "00000000097fb9744aba1b5b9afea109ddf6b0e006dbfac49749b25a6f452b7a",
  "createdAt": 1648543523,
  "scriptPubKey": "0014d0c4a3ef09e997b6e99e397e518fe3e41a118ca1",
  "isRBF": false,
  "hex": "010000000001018800fa5f9b3fbf3b831673d48c168e958ca804199cd4e86592142eb7738e4cc00000000000ffffffff026477010000000000160014a843e706518658e10e7c158cb8ef293cbc1bb0c01027000000000000160014d0c4a3ef09e997b6e99e397e518fe3e41a118ca102483045022100b13f9df0155264ede5378a08e5a4d6a2b930670b4ff6a2bb483b367016bf1d94022019fc6f40e230aa1353fe151a88d11618e5a7cf706fdbc8fdb5293c3a393d23908121032ddcf36491641c7b0ad4a22046a479b6e827fd968687eed166e094214fa5be9500000000",
  "memo": "",
  "confirmations": 1750,
  "hasAproxCreatedAt": false
}