{
  "id": "b47f0c02a9da4b0b6394f89501b91d89f1dca1233832b67d75d629805d47172c",
  "accountId": "c5a8db54-9050-455d-8ce5-63f9acd54f2d",
  "network": "TestNet",
  "amountReceived": 100000,
  "amountSent": 0,
  "totalAmount": 11505870,
  "totalFees": 141,
  "isSend": false,
  "isReceive": true,
  "blockHeight": 2094407,
  "blockhash": "000000000000003b0fa5981c0ec5c3ea1eb8e4291dd2e1060284e8e415465b94",
  "createdAt": 1631753196,
  "scriptPubKey": "0014d0c4a3ef09e997b6e99e397e518fe3e41a118ca1",
  "isRBF": false,
  "hex": "02000000000101094d9c190a05d109573c8ba9057accab798c31605e8a42b9bed9a5e3fad2b1cd0000000000feffffff02a086010000000000160014d0c4a3ef09e997b6e99e397e518fe3e41a118ca12e0aae000000000016001431d4133c0fd7ce0503d024e0d7da73836b53977002473044022073b761bf805fd973f968ab4c9d0fc816002c58e95690618a520b53778dd6c4a202204f3b2932cee42b4cc83e82f40e25833f890804d17686198db833892f252310fd01210275d5a17c99fb29d848d5ab22b73cebe9b08200b60c837d71e098fecc8e44c52e46f51f00",
  "memo": "",
  "confirmations": 99373,
  "hasAproxCreatedAt": false
}