{
  "id": "b4cbc080f6c0b8bbe977b814400d5358ee6e63ad7874f04e2c0f1622bb065a5d",
  "accountId": "c5a8db54-9050-455d-8ce5-63f9acd54f2d",
  "network": "TestNet",
  "amountReceived": 100000,
  "amountSent": 0,
  "totalAmount": 690960,
  "totalFees": 2260,
  "isSend": false,
  "isReceive": true,
  "blockHeight": 2190017,
  "blockhash": "00000000000000551293af1579c42957318d80b79f5f2afc5fc395e6f623a13b",
  "createdAt": 1647418570,
  "scriptPubKey": "0014d0c4a3ef09e997b6e99e397e518fe3e41a118ca1",
  "isRBF": false,
  "hex": "0100000000010157b40b603ffb5b8e2f729d77f7fcae9492ae4707284cf4f0b141edc6607742dd0000000000ffffffff027004090000000000160014a843e706518658e10e7c158cb8ef293cbc1bb0c0a086010000000000160014d0c4a3ef09e997b6e99e397e518fe3e41a118ca102483045022100d7066cf486020dc548f02966f77b47506d81ed2bf8eb5446ea856375aa93d9870220146a9e063c6ff668f83a40a508fbee6cbb69a5208beaf86887a4a3d98358d55a8121032ddcf36491641c7b0ad4a22046a479b6e827fd968687eed166e094214fa5be9500000000",
  "memo": "",
  "confirmations": 3763,
  "hasAproxCreatedAt": false
}