{
  "id": "b4f5327bdef40eae63bc477d18bea121742866d419a7585ec40e2d324a013ad3",
  "accountId": "c5a8db54-9050-455d-8ce5-63f9acd54f2d",
  "network": "TestNet",
  "amountReceived": 10000,
  "amountSent": 0,
  "totalAmount": 2857316438,
  "totalFees": 141,
  "isSend": false,
  "isReceive": true,
  "blockHeight": 2131245,
  "blockhash": "000000005a7d116606bff77be8dd13abbc6ff709490cfeedb7115ea54bb9c8b2",
  "createdAt": 1639574665,
  "scriptPubKey": "00144b302921d3c6bf558eb9c9d9f4a47ab8a69f7147",
  "isRBF": false,
  "hex": "02000000000101d3e779999e33db5d346cf5e843ed08d2fadc4a79ac239d4e8e973c2862a734dd0000000000feffffff0210270000000000001600144b302921d3c6bf558eb9c9d9f4a47ab8a69f714746094faa000000001600142fc7d467fa8331f5935332e4740bdf39355786b90247304402206bed330b4c911ad5fcb444777d5784c25ca1ebc8b6b9e8665817c0c51a549721022045dc68689ac765e3caf41cd0a4f74712abbc992e6bde9b6250a67fb663b9b454012102b9ac85e68fc015a746036ba0707f1dbb269e229dd95d87b7b96b331634bcd25f2c852000",
  "memo": "",
  "confirmations": 62535,
  "hasAproxCreatedAt": false
}