{
  "id": "b950b1f85c9b79890baecde0f47bc82d5d39fd3e2a4a0dc08826247bf1006d51",
  "accountId": "c5a8db54-9050-455d-8ce5-63f9acd54f2d",
  "network": "TestNet",
  "amountReceived": 0,
  "amountSent": 3271488,
  "totalAmount": 3271488,
  "totalFees": 112,
  "isSend": false,
  "isReceive": false,
  "blockHeight": 2003834,
  "blockhash": "000000000000003c8b580df764f57224d586a917e3ab1e22c5df87d399aa9fcb",
  "createdAt": 1623144794,
  "scriptPubKey": null,
  "isRBF": false,
  "sentScriptPubKey": "0014269a7224acf8a31f7be59efe7db8d9ba3a204ff6",
  "hex": "0100000000010199d69070bbb2a50d9fad0cc27dd532927a8330bfae4a14bd5632a62a0a8f4cce0100000000ffffffff0140eb310000000000160014269a7224acf8a31f7be59efe7db8d9ba3a204ff602483045022100a80120e442d5167787966e565b90008ef20f52a6f8ecfee2c05f069149f2682602205eda8abb0d4fde558709cd878e2eb07c417c42abe3ddccb9a093c101ddae240c0121023d923f5259aadeef9221abb1ee7610a17cf07868c996d45329e8a4fa0a97276700000000",
  "memo": "",
  "confirmations": 189946,
  "hasAproxCreatedAt": false
}