{
  "id": "bfb5703b543e5f3695cfa5b16d32cb1c7bbed0fec2d4cdf3de6395771d98427b",
  "accountId": "c5a8db54-9050-455d-8ce5-63f9acd54f2d",
  "network": "TestNet",
  "amountReceived": 0,
  "amountSent": 100000000,
  "totalAmount": 216520500,
  "totalFees": 10000,
  "isSend": true,
  "isReceive": false,
  "blockHeight": 1439006,
  "blockhash": "00000000000003ef3f5ece882d8dbc7c0e2a6ea81c02b7f9dcafdc2b9d76d294",
  "createdAt": 1539767907,
  "scriptPubKey": null,
  "isRBF": false,
  "sentScriptPubKey": "a914affa53441d8fcadbe552d13cdad61cde975e0c4487",
  "hex": "0100000000010219c104e49cdbd51a432f6ba07ae2027bbce870bf1d78962bfd4b4dab437e2871150000001716001421229dd07e73e93ebc03bac3533ba2f4e3532de2ffffffff705e3c79b2454863e1b8a75a027f389943e0aa476b36c84be5134c4581eb0a26000000001716001438971f73930f6c141d977ac4fd4a727c854935b3ffffffff0234f6f1060000000016001468a8fdde38a4d5325fa2f9b1cdc716737cc0853700e1f5050000000017a914affa53441d8fcadbe552d13cdad61cde975e0c44870247304402202b02a0face6206cad884fc4c0a06636df50de3d9ef0f1e76273a205ce27b2c4d02207b4773599148c22eccf262a4459c33db25b4cd530c5012ec5905200259aaf86a012102153f62942572bbebff87237af7c2349158b74831cd7d440d48eecdae998ac51b02483045022100f74413273c59f98c9db54e5d5cee47ef9f35a0d72af44641603b56a9d3bd0d7e02207d17916d3b2e48e9e1f06ed8a4d70f31cbc13455be8405b9646f1fb8e652c583012103a1af804ac108a8a51782198c2d034b28bf90c8803f5a53f76276fa69a4eae77f00000000",
  "memo": "",
  "confirmations": 754774,
  "hasAproxCreatedAt": false
}