{
  "id": "c04c8e73b72e149265e8d49c1904a88c958e168cd47316833bbf3f9b5ffa0088",
  "accountId": "c5a8db54-9050-455d-8ce5-63f9acd54f2d",
  "network": "TestNet",
  "amountReceived": 10000,
  "amountSent": 0,
  "totalAmount": 118360,
  "totalFees": 2260,
  "isSend": false,
  "isReceive": true,
  "blockHeight": 2192030,
  "blockhash": "00000000097fb9744aba1b5b9afea109ddf6b0e006dbfac49749b25a6f452b7a",
  "createdAt": 1648543523,
  "scriptPubKey": "0014d0c4a3ef09e997b6e99e397e518fe3e41a118ca1",
  "isRBF": false,
  "hex": "010000000001018f3b54beddc4be71c0775b875c5fb8b1bef965504db8cb741ccd1d07ffa046980000000000ffffffff0248a7010000000000160014a843e706518658e10e7c158cb8ef293cbc1bb0c01027000000000000160014d0c4a3ef09e997b6e99e397e518fe3e41a118ca10247304402205f83750a6343d504ee563426ab8bd96862845b8730bff937ff0e76145b25dfcd0220420c9dfd2f6c4e3e7255fc915d2dbc15ad472fef265f7b5dab1b559e8e7d8c7f8121032ddcf36491641c7b0ad4a22046a479b6e827fd968687eed166e094214fa5be9500000000",
  "memo": "",
  "confirmations": 1750,
  "hasAproxCreatedAt": false
}