{
  "id": "c45dd5cdbbe626a5ace161d986ba5796b372ecec2ce3da1d9ce03d5ea8ce0b98",
  "accountId": "c5a8db54-9050-455d-8ce5-63f9acd54f2d",
  "network": "TestNet",
  "amountReceived": 100,
  "amountSent": 0,
  "totalAmount": 119834,
  "totalFees": 50420,
  "isSend": false,
  "isReceive": true,
  "blockHeight": 2163260,
  "blockhash": "00000000000000fa570407b15f2e72985231cbaf21714bf8442fb70024d653cf",
  "createdAt": 1645510878,
  "scriptPubKey": "0014d0c4a3ef09e997b6e99e397e518fe3e41a118ca1",
  "isRBF": false,
  "hex": "01000000000101e39d1debc2d48c788a49b434ffe6911a92ea631229847b64c033617c77c4c7290000000000ffffffff02b6d30100000000001600147b55875d4b0e1b329d7f196e8bb20ccb6827ccef6400000000000000160014d0c4a3ef09e997b6e99e397e518fe3e41a118ca10247304402201061086bd9d9a40dfbd4b4628316f33ad134693a4a73fc55b504be95eb82dd8e0220348e46a65de058b9404d2286d52ec774f6e936273fdd023316d1407454c533338121027dd8bc1aa7c502db343011f952ebc280cf2bdd90be198ab7fa009d48a3d293fb00000000",
  "memo": "",
  "confirmations": 30520,
  "hasAproxCreatedAt": false
}