{
  "id": "c9ff43df8b26d8648a2c104437550152b6067519dba0c83f7d2ec9b2ce37938e",
  "accountId": "c5a8db54-9050-455d-8ce5-63f9acd54f2d",
  "network": "TestNet",
  "amountReceived": 10000,
  "amountSent": 0,
  "totalAmount": 2337668516,
  "totalFees": 141,
  "isSend": false,
  "isReceive": true,
  "blockHeight": 2136735,
  "blockhash": "000000009f0d5105ed5772995b8395e5aad1c642601b813c270195baa4943fe8",
  "createdAt": 1642722778,
  "scriptPubKey": "0014fd4f17412bb694662eb6a3b4f3dd4e2908a98e7b",
  "isRBF": false,
  "hex": "0200000000010192cc2656dec0723a240d77f3713bfe31c46086f6aecfee89d731ab53dd56d7b10100000000feffffff021027000000000000160014fd4f17412bb694662eb6a3b4f3dd4e2908a98e7b94d6558b00000000160014f0ff3f2272aa46273318ff60f5f3a5d1da8488b10247304402205d9ed231d847938f275de9f72372ab7a0eb83eba57430a9b8d10528a744b4ad102206d8f9f35193b23180938a1e2a1a7fc30f3bacec281dd6756de3a644811de799f0121022ad9248eb1d29b690c246504a375186adbba9b89a3daad3adf739ba8a3fc761c9e9a2000",
  "memo": "",
  "confirmations": 57045,
  "hasAproxCreatedAt": false
}