{
  "id": "ca4104ac8cf9df5fcc0f2ce6d23b0f3fffa80ff6db03771c95b725a71c3724cc",
  "accountId": "c5a8db54-9050-455d-8ce5-63f9acd54f2d",
  "network": "TestNet",
  "amountReceived": 100000,
  "amountSent": 0,
  "totalAmount": 5368987,
  "totalFees": 164,
  "isSend": false,
  "isReceive": true,
  "blockHeight": 1934280,
  "blockhash": "00000000000000231568eae58cc80589ac302e414a7915c70bab1007e5f42ae7",
  "createdAt": 1612693940,
  "scriptPubKey": "0014d0c4a3ef09e997b6e99e397e518fe3e41a118ca1",
  "isRBF": false,
  "hex": "02000000000101bddcc19e6cf7e33afeaf6d3af560be96738cb0f2651bac593606b414347412ce00000000171600148c4230e9c4db83df18341b2d5d1a2c50da501b1cfeffffff02a086010000000000160014d0c4a3ef09e997b6e99e397e518fe3e41a118ca1fb6550000000000016001487d6f94bfab6ecfeae6c710b65a228e21ce2225c024730440220105f3c3156113cd36a31652efe239d3b92be79cf6884b4cf49131809dd54e87202204ae5f746e67c45922cf1f7c554214909a0f139c650b5c001f8fa3f4a5a9c1aef012102a3b73826e66ba2254291ddc8fefb2e3809a81593a57fcff8883eff68ca6eb767c7831d00",
  "memo": "",
  "confirmations": 259500,
  "hasAproxCreatedAt": false
}