{
  "id": "caf3a3b07e673cfdb4d0fbf60445069d39155459e556267c7734adfb04ee78f0",
  "accountId": "c5a8db54-9050-455d-8ce5-63f9acd54f2d",
  "network": "TestNet",
  "amountReceived": 50000,
  "amountSent": 0,
  "totalAmount": 16797393,
  "totalFees": 164,
  "isSend": false,
  "isReceive": true,
  "blockHeight": 2034934,
  "blockhash": "0000000000000001cfa672bb6c89464074c31c74c7d82f530574ad1d3a418669",
  "createdAt": 1626521457,
  "scriptPubKey": "0014334924eaf46e806e86b3537a12f81595030d73a7",
  "isRBF": false,
  "hex": "02000000000101fe66669997918299bd6c6c9161101e7ed71462be0b3c2a8e1da771052ceee3dd0000000017160014c2b8a93344f38c274c01554ac99e632d0542af31feffffff02818bff0000000000160014ba483d202b4deabeca029980fb095e886117650450c3000000000000160014334924eaf46e806e86b3537a12f81595030d73a702473044022050ec1b5c7c7d81c126f331a30e3fb9fb35b4acf3abdc78d08be8f2d64a69b4ad0220537559a898709f06638c4dadc1b3fca8f3dfa13e5c005b1b540917bcb9b298da012102b537c8622b0584e9cb9530531658c2f2bf99ad3dd291f1f2ccd72c16419a8a21f50c1f00",
  "memo": "",
  "confirmations": 158846,
  "hasAproxCreatedAt": false
}