{
  "id": "ce4c8f0a2aa63256bd144aaebf30837a9232d57dc20cad9f0da5b2bb7090d699",
  "accountId": "c5a8db54-9050-455d-8ce5-63f9acd54f2d",
  "network": "TestNet",
  "amountReceived": 0,
  "amountSent": 10000,
  "totalAmount": 3281600,
  "totalFees": 242,
  "isSend": true,
  "isReceive": false,
  "blockHeight": 2003668,
  "blockhash": "00000000000000e782802ad9dea9b31b484ce0cbfbe104fcdca28e1e44624c62",
  "createdAt": 1623122875,
  "scriptPubKey": null,
  "isRBF": true,
  "sentScriptPubKey": "0014a8ba3f31f06770ccb04ebad873b5563c1adef9e2",
  "hex": "02000000000101567c97480b1baf730833020dcf37e5cd27f5411ce01146ecc7e833bdc1cc52810100000000fdffffff021027000000000000160014a8ba3f31f06770ccb04ebad873b5563c1adef9e2b0eb3100000000001600140b7223b24f0a931e87a212f1ab690f73cb0f8cc4024730440220248ebd5b00cf7529b6d1fa80db53cd6224ae34e169c326940919a416e056727902201327c4798652853e186e8692ac6c00c572f3d175c8fc0dd74565219bfbcb8fc5012102e7ab2537b5d49e970309aae06e9e49f36ce1c9febbd44ec8e0d1cca0b4f9c319d2921e00",
  "memo": "",
  "confirmations": 190112,
  "hasAproxCreatedAt": false
}