{
  "id": "ce682dc18d65c40e9fe420e47416a8989cd2a890abba442a172e9daf3feb7d20",
  "accountId": "c5a8db54-9050-455d-8ce5-63f9acd54f2d",
  "network": "TestNet",
  "amountReceived": 100000,
  "amountSent": 0,
  "totalAmount": 5393362,
  "totalFees": 141,
  "isSend": false,
  "isReceive": true,
  "blockHeight": 2135917,
  "blockhash": "00000000000000ad79980ab59e18013fa65e8af7e2e844b46005b9dd992ea6b3",
  "createdAt": 1642207038,
  "scriptPubKey": "0014d0c4a3ef09e997b6e99e397e518fe3e41a118ca1",
  "isRBF": false,
  "hex": "020000000001012691bd07ba929be4784dcef4097946f96a6ebbaf4e2aab63ed16c7403c9f239c0100000000feffffff0232c5500000000000160014f4cc9f89f18b7ca2002b8c14bbbfb716e4ccf6e8a086010000000000160014d0c4a3ef09e997b6e99e397e518fe3e41a118ca10247304402202951e12e4e6696b13679a36d2640e73f8476ffa3fc8944d013388238d15be9520220798ac5ffd320da90ab41562ccd2c94bd5fa70b054458e302c5149b9334239c36012102492ae7420083abd6956773070accb8a03bd89881f88b207e0b891083e806c9416c972000",
  "memo": "",
  "confirmations": 57863,
  "hasAproxCreatedAt": false
}