{
  "id": "d3d2a552f0cb79bced50ae8f2b9010e98159224420e70d9d2b726fed0ea0e85d",
  "accountId": "c5a8db54-9050-455d-8ce5-63f9acd54f2d",
  "network": "TestNet",
  "amountReceived": 1000,
  "amountSent": 0,
  "totalAmount": 9838,
  "totalFees": 162,
  "isSend": false,
  "isReceive": true,
  "blockHeight": 2161397,
  "blockhash": "0000000000000993a66b98611c53f6c81cd7275424c1a67ce6ee3646ff6ce89c",
  "createdAt": 1645155397,
  "scriptPubKey": "0014d0c4a3ef09e997b6e99e397e518fe3e41a118ca1",
  "isRBF": false,
  "hex": "01000000000101d5191cc480a963921a00739dfef61b19a0bb66c3f0742f9bafc10bbf69055f700000000000ffffffff02e803000000000000160014d0c4a3ef09e997b6e99e397e518fe3e41a118ca1862200000000000016001424d53c5f8829f57e59dbdb6be682723976140b94024730440220286830bb8819bfe4b8e01c922c854980ed511a2eb3fa5834ffaa9b480271db8f022071da842ae57b2988ed59f6358d7e4d3dc3cc286b00ba8a7b7fb509d3732e2834012102f7a9f1dd4c4ca56c2e1d27f081e1a8f5a2d904810529ab35ee6629811e10bfc400000000",
  "memo": "",
  "confirmations": 32383,
  "hasAproxCreatedAt": false
}