{
  "id": "d60415e14c99025aa278219e63f28be5b24115b341496d6ddad321def9f1a0fb",
  "accountId": "c5a8db54-9050-455d-8ce5-63f9acd54f2d",
  "network": "TestNet",
  "amountReceived": 0,
  "amountSent": 100000,
  "totalAmount": 501659,
  "totalFees": 141,
  "isSend": true,
  "isReceive": false,
  "blockHeight": 1282451,
  "blockhash": "0000000000000c76e75392feef75b7c122e4bc4db9b8af33f695a0daa7a4664e",
  "createdAt": 1518536742,
  "scriptPubKey": null,
  "isRBF": true,
  "sentScriptPubKey": "0014684607e7564490548cf65f5dcc44b617f8a5e53d",
  "hex": "01000000000101f7900aa3a48f5a1c63a18204ad95c0b81a366eb9110bea856251421e1685ff870000000000fdffffff02a086010000000000160014684607e7564490548cf65f5dcc44b617f8a5e53dfb200600000000001600142f34aa1cf00a53b055a291a03a7d45f0a6988b5202473044022059d103a645b66cca667a87fcfa9a2c2184fdffc2acb651750806b80986ee708302204cae8593aec2d12392effb2cf792e5d1eb947a7ad53a509ce39b714fc3eb5caa012102339193c34cd8ecb21ebd48af64ead71d78213470d61d7274f932489d6ba21bd391911300",
  "memo": "",
  "confirmations": 911329,
  "hasAproxCreatedAt": false
}