{
  "id": "d74d5aed39d64421f7ed25843e8820eef84c17d8c9de9a418e0df9990d8f54cf",
  "accountId": "c5a8db54-9050-455d-8ce5-63f9acd54f2d",
  "network": "TestNet",
  "amountReceived": 10000,
  "amountSent": 0,
  "totalAmount": 59058,
  "totalFees": 4068,
  "isSend": false,
  "isReceive": true,
  "blockHeight": 2164435,
  "blockhash": "000000000000672eb00b0bea4b65bc0ab7599d0e9bf15cddfb22d9b3a803134f",
  "createdAt": 1646199534,
  "scriptPubKey": "0014d0c4a3ef09e997b6e99e397e518fe3e41a118ca1",
  "isRBF": false,
  "hex": "0100000000010167547f888ccfc7a3ca81230b70957cbc573aa5eba4f9c612e1568d5b1a0c32150000000000ffffffff02a2bf0000000000001600147b55875d4b0e1b329d7f196e8bb20ccb6827ccef1027000000000000160014d0c4a3ef09e997b6e99e397e518fe3e41a118ca10247304402207ac7c0b4668672879829e1610968c48d96935fb9297a973d27d574a91f297b7a022050b88c3cf4b6c62d68e34e449487f13abd038deaddf157e5064fe930302c01dc8121027dd8bc1aa7c502db343011f952ebc280cf2bdd90be198ab7fa009d48a3d293fb00000000",
  "memo": "",
  "confirmations": 29345,
  "hasAproxCreatedAt": false
}