{
  "id": "d85cab6a19a5d2a3f48e4ff9de1c6eb1c710f3b4adca8f5dc60e50924f99f09a",
  "accountId": "c5a8db54-9050-455d-8ce5-63f9acd54f2d",
  "network": "TestNet",
  "amountReceived": 79584096,
  "amountSent": 0,
  "totalAmount": 1679794764,
  "totalFees": 1026,
  "isSend": false,
  "isReceive": true,
  "blockHeight": 1864370,
  "blockhash": "00000000000000c7aab5ce982afee5a058664c46892659a55e3757d00ec108c5",
  "createdAt": 1603507715,
  "scriptPubKey": "0014d0c4a3ef09e997b6e99e397e518fe3e41a118ca1",
  "isRBF": false,
  "hex": "02000000000102a01f6e46e6d9ba1f33149ea23301ad1f38999443c5e551392e6945df5a35bec80100000000feffffff2e6a48c4f0977c6b97c4917d12d01d634813b4a556b29245be9f4de0f09c4aed0a00000000feffffff1b8444600300000000160014433a1b3ce5d1eef8e9931ea67fd222369bd1c616bead99040000000017a91450c7e0ee87c11a19b88857a2d482b8852988896f871faf0203000000001976a914ef72999fde6107c6667742516abb5e3bdb3a9efc88ac53d90d03000000001976a914532d5a023ee9d928dab4b2c216065bc1e3fcb1bc88acb680d5010000000017a914ef86a5e90694fb7826de411f6ceb5015b6d73a0087b34aaf040000000017a914c69533ccbac5c562dfd42ce00d7812aad1e521d98747459c02000000001976a914f930eee3ff44739f2823c23a6bf5072b99fd929788ac40658103000000001976a914049b00212f558d4648e65a99cec8724841be1d2288ac974ce0010000000017a914cf6ee5b9748223040e7200e6874ec861e2a3487287c5a303040000000017a9143ce41d8f717e20e6b46520e531a5663631d5d477875f08b204000000001976a9140fe4f2486e9fdf44aafd151a230105222af6bf3288ac1b5197020000000017a914c69535e8ee4d4538a1439a0dd2cf0f09304e11ec8716b68b030000000017a91463f007a4697bd8b9d61f598457c85802d76641ce878c7d0904000000001976a9146f9bc3565a63b50a0fd50cfe97bcd7653b3328d988ac4956ee010000000017a914c6953654bf2e50b98ed65a45885c399cc13bec4487e1352d04000000001976a9144397cf4817a7aaf613ad15a5a686900a16219c4788aceecf160300000000160014065081d48fc9ac178dba8929300042b7af21b6599e8c9d04000000001976a914d26459ace1bc2ed458b5fbd1e56c470069b1e01788acb7c1da0a00000000160014d809e3bbcf82e6d82d55d216bfa66a7cc3e1be97e3e2d803000000001600149b466f3a2b329943375d914bc2a2434915d200c0340c2603000000001976a9149f6caaa4f571b99217c33c43d3ca153260991cb988ac605bbe0400000000160014d0c4a3ef09e997b6e99e397e518fe3e41a118ca14cf8410400000000160014b5a022931f96a24dec0a26eaf2de9128e87f37252d6107040000000017a914579a24aa1639b6da15a90613757aee41e1ead37487aac6e301000000001976a9141d0adf3bb650234782fbb3461810cbb042ea460488acc300ab020000000017a9142f51263290be7c3531da8188d5fff2068a5d8b7087661e7003000000001976a9146ca33c6d0038cb3daf7afc0ec25bf76bfd12aa3c88ac0247304402200d85ab3bccc651d435cfdc7349b9831c85dcaeda3c764415209b9dd98ec73a2102204f34f2277bf18b2d0fe3521ec65a973662c32ac73f5a6d9e8ec987d9cd203c8b012103aa054e529f72af74205897dc14226fc4d2f658230c503fb6e80fa5697e7b386e024730440220237682c004c2aea33782ed47931c03111b27c17142a6b77ec9712d197bcdf788022033c8510895665b9b900e005b172a2067f2c71efed3ce3ec7914d4fa891229710012102f5d20837a5ba51ac38d8ff726a97e8ffd7422421fb564a7cb780e3ddf98e6672b1721c00",
  "memo": "",
  "confirmations": 329410,
  "hasAproxCreatedAt": false
}