{
  "id": "da01bf840950635061cb730850da2811e5816650a278594047dd2b2ff06ee461",
  "accountId": "c5a8db54-9050-455d-8ce5-63f9acd54f2d",
  "network": "TestNet",
  "amountReceived": 300000,
  "amountSent": 0,
  "totalAmount": 23599195,
  "totalFees": 205,
  "isSend": false,
  "isReceive": true,
  "blockHeight": 1282455,
  "blockhash": "000000000000027e5529071a473c7cf03af9bc0802e7afe48f67d7bca0e295b7",
  "createdAt": 1518538984,
  "scriptPubKey": "0014d7bc5f47ee7bbc5d216b0928a4a8ba903bdb404f",
  "isRBF": true,
  "hex": "01000000000101342c10ffa0bcaf5a6b86b15e2c1a0cb3391484f76b9307621833035f969936610100000000fdffffff04a08601000000000017a9149a1ba4b94d73e6e438ebf3c4501b62603437f20c87400d03000000000017a9142841cdd7f785bdf20dce6b1b8184cd3a1b0149ad87e093040000000000160014d7bc5f47ee7bbc5d216b0928a4a8ba903bdb404f9bf05e0100000000160014eb70d6d08c7ca0c0eab1855476066f1a2a54799002483045022100937283c0ae90f2ca866c49d2f2ef8436103999aff32c621feb4b6c84c44c1aad02207d7deaf12b257cbd373b67f51e7a030448efbcff3d3ce439611cc050a348675f012103e3abfca75dcad3d0988221be9dbecd4048f0509d68764701967e4af8d65138f596911300",
  "memo": "",
  "confirmations": 911325,
  "hasAproxCreatedAt": false
}