{
  "id": "dd427760c6ed41b1f0f44c280747ae9294aefcf7779d722f8e5bfb3f600bb457",
  "accountId": "c5a8db54-9050-455d-8ce5-63f9acd54f2d",
  "network": "TestNet",
  "amountReceived": 100000,
  "amountSent": 0,
  "totalAmount": 793220,
  "totalFees": 2260,
  "isSend": false,
  "isReceive": true,
  "blockHeight": 2190012,
  "blockhash": "00000000000000304205052a22721675cc91746ea3d42044ef71012bd373083a",
  "createdAt": 1647417016,
  "scriptPubKey": "0014d0c4a3ef09e997b6e99e397e518fe3e41a118ca1",
  "isRBF": false,
  "hex": "01000000000101c0fcf04b2ac9d175dabb9562b8399a36ddce275e7c9aa763733386c73706e1210000000000ffffffff02e4930a0000000000160014a843e706518658e10e7c158cb8ef293cbc1bb0c0a086010000000000160014d0c4a3ef09e997b6e99e397e518fe3e41a118ca102483045022100f852913e85ad41ff15129c7e23870faa4a54ab689efa4b305ce19768e310ea6002204e492a6652a3a30f55546536f2b5ed959100a6d26f7a694561c1e7e488ee0e898121032ddcf36491641c7b0ad4a22046a479b6e827fd968687eed166e094214fa5be9500000000",
  "memo": "",
  "confirmations": 3768,
  "hasAproxCreatedAt": false
}