{
  "id": "e2e53d42709caf997f76778081b7c63e321c98fa1111532f3db87194ae8ac1d4",
  "accountId": "c5a8db54-9050-455d-8ce5-63f9acd54f2d",
  "network": "TestNet",
  "amountReceived": 0,
  "amountSent": 175742,
  "totalAmount": 175742,
  "totalFees": 258,
  "isSend": false,
  "isReceive": false,
  "blockHeight": 1972891,
  "blockhash": "000000000000000da9d3db0b5abb465ab07db7ea1fdb3ce6fd2a9d6f2b3dfa2d",
  "createdAt": 1619539128,
  "scriptPubKey": null,
  "isRBF": true,
  "sentScriptPubKey": "002019866592c8e2e4690045e22545e5bcb5ffa06fff591d35bdbea748d78fb03642",
  "hex": "020000000001033237f023326c80a1efc27459d1da4b3f41159db4a1aacec08f3bec524c6b594a0000000000fdffffff8058ad045a01b433cfd3a765d8d897f6c37cec5148e9b4bcfc03ad70d7686c800100000000fdffffffcf8a1f830d61f3e3379d5546a3398421fb5843dbdaf2741f9659fbf75a5002ee0100000000fdffffff017eae02000000000022002019866592c8e2e4690045e22545e5bcb5ffa06fff591d35bdbea748d78fb036420247304402207f1548f6e367e83403751254fa5ed2c25139f49c428a99b811b1bd51ad81fc7e02201b930e759c942981132cfee53921796370bb43877f4ef147f6fdb4e08b6da550012102b1571f70c0d52ba8d491afa0e9891f83cbc558c74d12509307edd188abf800f40247304402206511d90b6128e4dcca243aee0cf32b9c46a7a2e6d95812a7f67cb8efaa97907c02205629869d12722df7b38e565b33397acb41b50bea6aaae10607cfd6684fdc9404012102e7ab2537b5d49e970309aae06e9e49f36ce1c9febbd44ec8e0d1cca0b4f9c319024730440220313cd43d9de3e1cbdffb83b33a4aee91dd06ed039bab0dd4f194553f9d3fe5c10220712da62663eaf1fa281ea1276c74fc4f32ab00da06bb7ec0ad6fcc1cda19b60c012103eeed205a69022fed4a62a02457f3699b19c06bf74bf801acc6d9ae84bc16a9e19a1a1e00",
  "memo": "",
  "confirmations": 220889,
  "hasAproxCreatedAt": false
}