{
  "id": "e6ab3facf0bb6563247862c7debfffcbbbbb93b7e479b830a1de97f702006746",
  "accountId": "c5a8db54-9050-455d-8ce5-63f9acd54f2d",
  "network": "TestNet",
  "amountReceived": 50000,
  "amountSent": 0,
  "totalAmount": 3433125,
  "totalFees": 14100,
  "isSend": false,
  "isReceive": true,
  "blockHeight": 1935949,
  "blockhash": "00000000000000098d9efbbf31c192e3b71ecf33c47ffd2d04b6b5a959943fc4",
  "createdAt": 1613297458,
  "scriptPubKey": "00144c0649eaf7512e13043ed95b7a54c72bb2b59136",
  "isRBF": false,
  "hex": "01000000000101ad5b7e35a593743bc208d0a70d890f0ab4d9199e60a728461449eb6819e9d4900100000000ffffffff0250c30000000000001600144c0649eaf7512e13043ed95b7a54c72bb2b59136559f330000000000160014f6f0c0fd9ef262d916871160491d09952c32f0b402483045022100a9b2183000ebaf43639b21241c23d5e91b9054934db78bbdfedbfd62fc7cba0802201e99b15a20f0fc0facd21927e168d2454556e57ed98ee33ffd1a58616a5db54c0121034a91508fd37639abe32233c7238277868ecf22c87f81b7582ff3ad9741978e6c00000000",
  "memo": "",
  "confirmations": 257831,
  "hasAproxCreatedAt": false
}