{
  "id": "eb3586a89d17ef42e86cf6ce4b6df6ccce8a9fc8197ddd209f79ebf9da3388ef",
  "accountId": "c5a8db54-9050-455d-8ce5-63f9acd54f2d",
  "network": "TestNet",
  "amountReceived": 49889,
  "amountSent": 0,
  "totalAmount": 49889,
  "totalFees": 111,
  "isSend": false,
  "isReceive": true,
  "blockHeight": 2034937,
  "blockhash": "00000000b673ebb852bbdcd97c83958eca9668770dfc835ad6a58bbb8589e399",
  "createdAt": 1626522782,
  "scriptPubKey": "0014d7bc5f47ee7bbc5d216b0928a4a8ba903bdb404f",
  "isRBF": true,
  "hex": "02000000000101f078ee04fbad34777c2656e5595415399d064504f6fbd0b4fd3c677eb0a3f3ca0100000000fdffffff01e1c2000000000000160014d7bc5f47ee7bbc5d216b0928a4a8ba903bdb404f0248304502210081b141e64c62ee243890f414cf5b953e897d703207e598e50580c1ebca1cf764022056f8456bbc635d3507649e38a9a5772f96692b0131fbdb8605341c491e075a5e012102339193c34cd8ecb21ebd48af64ead71d78213470d61d7274f932489d6ba21bd300000000",
  "memo": "",
  "confirmations": 158843,
  "hasAproxCreatedAt": false
}