{
  "id": "ebc97304a88f56a02b826403331fb56af9474eccffec9f96871a6c26d3dd548c",
  "accountId": "c5a8db54-9050-455d-8ce5-63f9acd54f2d",
  "network": "TestNet",
  "amountReceived": 100000,
  "amountSent": 0,
  "totalAmount": 486440,
  "totalFees": 2260,
  "isSend": false,
  "isReceive": true,
  "blockHeight": 2190020,
  "blockhash": "00000000000000b29e60965a2edf6fc1f1f824d1b573ed4f052d3f0d336702e1",
  "createdAt": 1647420106,
  "scriptPubKey": "0014d0c4a3ef09e997b6e99e397e518fe3e41a118ca1",
  "isRBF": false,
  "hex": "01000000000101b89c2e257845d600b5d2fd6bfcb0f12b1c493fc5938c7e83544d9dc5e344191d0000000000ffffffff0288e5050000000000160014a843e706518658e10e7c158cb8ef293cbc1bb0c0a086010000000000160014d0c4a3ef09e997b6e99e397e518fe3e41a118ca102483045022100bd6ecc9d3daa7eef985b0c61b3010c1bd017380b154e2441e5c07558736ce318022074366e8bbb24293739dde291934d23a8b1ca27dc0c7a923b1d7820b08f92b9b68121032ddcf36491641c7b0ad4a22046a479b6e827fd968687eed166e094214fa5be9500000000",
  "memo": "",
  "confirmations": 3760,
  "hasAproxCreatedAt": false
}