{
  "id": "ee02505af7fb59961f74f2dadb4358fb218439a346559d37e3f3610d831f8acf",
  "accountId": "c5a8db54-9050-455d-8ce5-63f9acd54f2d",
  "network": "TestNet",
  "amountReceived": 88000,
  "amountSent": 0,
  "totalAmount": 38663091831,
  "totalFees": 141,
  "isSend": false,
  "isReceive": true,
  "blockHeight": 1972891,
  "blockhash": "000000000000000da9d3db0b5abb465ab07db7ea1fdb3ce6fd2a9d6f2b3dfa2d",
  "createdAt": 1619539128,
  "scriptPubKey": "00146fa016500a3c6a737ebb260e2ddca78ba9234558",
  "isRBF": false,
  "hex": "02000000000101423a6c8184fc7d91a89af5381bf5784da8e4a61b634d1948cd2f62c265425e790100000000feffffff02b79e7e0009000000160014d8028cda505c85487b71132589501ad2f2800b20c0570100000000001600146fa016500a3c6a737ebb260e2ddca78ba923455802473044022074ef66b41816cb69485460f24806614392353488649a53055698e56f1c2c2f1d022032a2d3050771228bdda1adaa59313d674b11a91dc453afc63079374d8cb74b6401210206933b967ab8e0a732933923cdb4fc9ec60773f1ff1401cc8c8839c9b6b7aa079a1a1e00",
  "memo": "",
  "confirmations": 220889,
  "hasAproxCreatedAt": false
}