{
  "id": "f022b123e9d8d473e752ff86c9bdf70f81e14e3d388534aa66bd087bb0e627ae",
  "accountId": "c5a8db54-9050-455d-8ce5-63f9acd54f2d",
  "network": "TestNet",
  "amountReceived": 0,
  "amountSent": 99886,
  "totalAmount": 99886,
  "totalFees": 114,
  "isSend": false,
  "isReceive": false,
  "blockHeight": 2034934,
  "blockhash": "0000000000000001cfa672bb6c89464074c31c74c7d82f530574ad1d3a418669",
  "createdAt": 1626521457,
  "scriptPubKey": null,
  "isRBF": true,
  "sentScriptPubKey": "76a914344a0f48ca150ec2b903817660b9b68b13a6702688ac",
  "hex": "020000000001018ee411bfd8be1655641ea56b990e7c2f47679aa6503a53a996cb1c49e86fda0a0100000000fdffffff012e860100000000001976a914344a0f48ca150ec2b903817660b9b68b13a6702688ac02473044022026fd2dbfaf8d7564c2d94ed2dc5eaa7fb9020911f632ecfc065748701351b8ef022015c42001b5b97412abc9e98f725b6f4e565d76eb191c63240c72679fc547682f012103eeed205a69022fed4a62a02457f3699b19c06bf74bf801acc6d9ae84bc16a9e100000000",
  "memo": "",
  "confirmations": 158846,
  "hasAproxCreatedAt": false
}