{
  "id": "f3fa2567bca6f5ed705d04ed3709fdaf579aa94316bcc352d1f986b3e58b9fb9",
  "accountId": "c5a8db54-9050-455d-8ce5-63f9acd54f2d",
  "network": "TestNet",
  "amountReceived": 0,
  "amountSent": 10000,
  "totalAmount": 99846,
  "totalFees": 154,
  "isSend": true,
  "isReceive": false,
  "blockHeight": 1934516,
  "blockhash": "0000000043eb5714b74b5d0cbd9df5e7eb765d2e5be242036250eb087726ab4d",
  "createdAt": 1612763033,
  "scriptPubKey": null,
  "isRBF": true,
  "sentScriptPubKey": "00207e2725f077352d7c18d8e3eb31d4288be780d73903ae7240da18e01cd98f1aa2",
  "hex": "020000000001017ed9378c652d1802fb3c8926fb21035f2299655f44f8fa57c856847292ab449a0100000000fdffffff0210270000000000002200207e2725f077352d7c18d8e3eb31d4288be780d73903ae7240da18e01cd98f1aa2f65e0100000000001600142f34aa1cf00a53b055a291a03a7d45f0a6988b5202473044022077da36b7a514cc8973151544ccfb4ec16920471d63f173bced069579fd63e19a02200741d2b4018a8709aa9cef700c09a811ec8b931fe9f8928239986eba741170dc012102e7ab2537b5d49e970309aae06e9e49f36ce1c9febbd44ec8e0d1cca0b4f9c31900000000",
  "memo": "",
  "confirmations": 259264,
  "hasAproxCreatedAt": false
}