{
  "id": "fbe1447e16ca92f65eea9414a2531df9ca9e3b5765904424b3abab78165533ff",
  "accountId": "c5a8db54-9050-455d-8ce5-63f9acd54f2d",
  "network": "TestNet",
  "amountReceived": 0,
  "amountSent": 19852,
  "totalAmount": 19852,
  "totalFees": 182,
  "isSend": false,
  "isReceive": false,
  "blockHeight": 1891234,
  "blockhash": "000000000000002f1c356eaea69111533cb3c9f6de6d401848cd2466443e4ed3",
  "createdAt": 1605047488,
  "scriptPubKey": null,
  "isRBF": false,
  "sentScriptPubKey": "0014269a7224acf8a31f7be59efe7db8d9ba3a204ff6",
  "hex": "01000000000102a8d3dfce68c0394ba723eafc1a50922d1761b5c857864eba3a20e0c81d172db90000000000fffffffffd5ecaf090c2176419778624c99ccfbc463f982050fdefa608223f5bfdd3ddff0100000000ffffffff018c4d000000000000160014269a7224acf8a31f7be59efe7db8d9ba3a204ff6024730440220696536788aff73d14b83ed20ffa610ef0f7a1ed6d6eebebe430ff2434d2e18f70220712abb95196fbc685e89c5e000401944c5ba179d4ec8fb27a393f926ff1d16b3012102e7ab2537b5d49e970309aae06e9e49f36ce1c9febbd44ec8e0d1cca0b4f9c31902483045022100c4544fb07670b4859fb7b21accccd9e72d0b273cf080beea7b46b4432c3561a7022014c3dc436712007b748dc82988a4a1f4e07e274c9aa950e7c2e7d71c9ebc902e012103f6760536385d2132a57ecb332354610323b057ea29925734cc825354c00306c000000000",
  "memo": "",
  "confirmations": 302546,
  "hasAproxCreatedAt": false
}