{
  "id": "fc599c336bbf28bb5627904b8816c2c29b83c16794a0203fa84ac2647e394f5a",
  "accountId": "c5a8db54-9050-455d-8ce5-63f9acd54f2d",
  "network": "TestNet",
  "amountReceived": 200000,
  "amountSent": 0,
  "totalAmount": 1077743,
  "totalFees": 142,
  "isSend": false,
  "isReceive": true,
  "blockHeight": 2034940,
  "blockhash": "0000000000000028c24c330277676f0f4a0dddb9e524f8edb1431ae8282ce781",
  "createdAt": 1626524491,
  "scriptPubKey": "0014ae4a0a2fa69c198d6dfc33357f53761327636416",
  "isRBF": true,
  "hex": "020000000001012d111ef006fa82cc832ea6c3d5f3863f4a0d220a23f17ff967ce8f41bf21df010000000000fdffffff02af640d000000000016001449a3411e28a42a77a7c6214b85db11b66cbfd0d0400d030000000000160014ae4a0a2fa69c198d6dfc33357f5376132763641602483045022100d8253f4e3f2baa92843a8a82f410ad5279e4c95f1e4692b77635465b6d53d2b202200b203208bb23c01711fa9fa54d9471e7ddc5e592050d114257d45619da778fe7012102a20df53c3fdfd69918fbc3f9a98936ddadeeabcbc963658f236a2227e96a31a800000000",
  "memo": "",
  "confirmations": 158840,
  "hasAproxCreatedAt": false
}