{
  "id": "fd373e04572e9f87f8faf8b43000987df4b5629a2a92b90f5df25d01a77d4300",
  "accountId": "c5a8db54-9050-455d-8ce5-63f9acd54f2d",
  "network": "TestNet",
  "amountReceived": 10000,
  "amountSent": 0,
  "totalAmount": 18026,
  "totalFees": 141,
  "isSend": false,
  "isReceive": true,
  "blockHeight": 2094473,
  "blockhash": "000000000026e1a5e4c23be314be4f7c515d5b24241853f423c4a769e38c540e",
  "createdAt": 1631778113,
  "scriptPubKey": "0014d0c4a3ef09e997b6e99e397e518fe3e41a118ca1",
  "isRBF": false,
  "hex": "020000000001014cdca1c1ef2930a8cd5d9b2ca4e1b2a737e584aac66460602c3e1db3f48729c70000000000feffffff021027000000000000160014d0c4a3ef09e997b6e99e397e518fe3e41a118ca15a1f000000000000160014270d677dc4b89a6745f0f89a2ae89db86f3afe220247304402203d177eed6058554a151f20f1b1ec1b9bc881f9c4a480c2bfbe3a00891a6bba21022047f0056f4d6dc6589958e2ba44f60b6988ed0520076768318e8150d6d1d27b9c012102e5f45fb168a161975a4b48e7d74ccfe48d642d997c58842809724b6e64533c8b88f51f00",
  "memo": "",
  "confirmations": 99307,
  "hasAproxCreatedAt": false
}