{
  "id": "fff79ac3151917124a6239a0bba3088f1498ba6e9eee275bccd28b0ebdeb7200",
  "accountId": "c5a8db54-9050-455d-8ce5-63f9acd54f2d",
  "network": "TestNet",
  "amountReceived": 100,
  "amountSent": 0,
  "totalAmount": 115114,
  "totalFees": 2260,
  "isSend": false,
  "isReceive": true,
  "blockHeight": 2163341,
  "blockhash": "00000000178c6314762d1d37eee25455fda0558ff2d3abc3fb453564d4926644",
  "createdAt": 1645584486,
  "scriptPubKey": "0014d0c4a3ef09e997b6e99e397e518fe3e41a118ca1",
  "isRBF": false,
  "hex": "010000000001017f61455b7f1492b6d4caee162a0aebc6d6033d02e578febe9c93fa9879f440300000000000ffffffff0246c10100000000001600147b55875d4b0e1b329d7f196e8bb20ccb6827ccef6400000000000000160014d0c4a3ef09e997b6e99e397e518fe3e41a118ca102473044022043643cb4d8e9810bfc27fcd7dcaa965db6ca632be577249b87b55c6576fb8e1c02204075c24d4581dfe2049fc8cb2176fa12d94c2437f2d22dd7482d39cc4b8de5b08121027dd8bc1aa7c502db343011f952ebc280cf2bdd90be198ab7fa009d48a3d293fb00000000",
  "memo": "",
  "confirmations": 30439,
  "hasAproxCreatedAt": false
}